:1000000088C00000B7C00000B5C00000B3C0000049
:10001000B1C00000AFC00000ADC00000ABC0000028
:10002000A9C00000A7C00000A5C00000A3C0000038
:10003000A1C000009FC00000FEC000009BC00000E7
:1000400099C0000097C0000095C0000093C0000058
:1000500091C000008FC000008DC000008BC0000068
:1000600089C0000087C0000085C0000083C0000078
:1000700081C000007FC000007DC00000C0C0000043
:1000800079C0000077C0000075C0000073C0000098
:1000900071C000006FC000006DC000006BC00000A8
:1000A00069C0000067C0000065C0000063C00000B8
:1000B00061C000005FC000005DC000005BC00000C8
:1000C00059C0000057C0000055C0000053C00000D8
:1000D00051C000004FC000004DC000004BC00000E8
:1000E00049C0000047C0000045C0000043C00000F8
:1000F00041C0000005A84CCDB2D44EB93836A90293
:100100000C50B9918688083CA6AAAA2ABE00000015
:10011000803F11241FBECFEFCDBFDFE7DEBF809150
:10012000400080934000811105C098ED21E094BF0C
:10013000209341008CBB80E38093011088ED90EB0D
:1001400084BF9093011010E4A0E0B0E4ECE1FDE086
:1001500000E00BBF02C007900D92A430B107D9F7A1
:1001600022E4A4E0B0E401C01D92A231B207E1F79D
:10017000ECD0D2C545CF9FB7F894E0912A0BF0910F
:100180002B0B8091260B20910E4230910F42409113
:100190001042509111429FBF80FF08C0CF018827B5
:1001A000892B21F42F5F3F4F4F4F5F4F0F01169464
:1001B0000794169407941694079416940794F001E4
:1001C00016940794E00DF11D16940794102C1694C4
:1001D00001181694010C169401181694010C16942B
:1001E000011816941694010C1124E019F109A8EED7
:1001F000B3E08BD26E0F7F1F811D911D0895EF9389
:10020000FF93EEE0F2E48F938FB78F9380818F5F3F
:10021000808381818F4F818382818F4F828383810D
:100220008F4F838381E08093260B8F918FBF8F91B7
:10023000FF91EF9118951F920F920FB60F92112414
:100240000BB60F922F933F934F935F936F937F93D0
:100250008F939F93AF93BF93CF93DF93EF93FF93CE
:1002600040910A4250910B4260910C4270910D42B4
:100270008091044090910540A0910640B0910740C4
:10028000840F951FA61FB71F8093044090930540CD
:10029000A0930640B0930740409104405091054020
:1002A0006091064070910740809104409091054014
:1002B000A0910640B0910740472F55276627772722
:1002C000FA01EE0FFF1FE85FFF4BC081D1814F5F46
:1002D0005F4F440F551FFA01E85FFF4B20813181CA
:1002E00050E040E02C1B3D0B41095109B0E00DD21C
:1002F000672F782F892F992787FD9A95C60FD71FCB
:100300008C2F8295880F880F807CE0EAF6E082834C
:10031000D695C795D695C795C38381E08093060B84
:10032000FF91EF91DF91CF91BF91AF919F918F910D
:100330007F916F915F914F913F912F910F900BBEE5
:100340000F900FBE0F901F90189588ED94E284BF18
:100350009093680021E02093030A8EEF8093260A91
:100360008093270A9BE09093000A2093430A80938E
:10037000660A8093670A9093400A32E03093E6055C
:100380009093E70537E03093010B80930C0B1092AC
:100390000D0B95E09093000B3093110B80931C0B89
:1003A00010921D0B9093100B3093310B80933C0BEC
:1003B00010923D0B9093300B4FEF5FE04093AA0BF0
:1003C0005093AB0B80E88093820B1092810B4BEF24
:1003D00053E04093AE0B5093AF0B81E78093800BBB
:1003E0001092E805E0E0F6E092838EE0858380E6F7
:1003F0008383908385E582953091B200387F877042
:10040000832B8093B2004FED5EE240932C0B509310
:100410002D0B2093250B1092210B83E08093200B52
:10042000789484E0809370049093B0002093000649
:10043000809302061092080620930A0680910D060A
:1004400080FFFCCF609110067091110690E080E073
:10045000611571058105910509F032D108E010E4BC
:10046000D0E0C0E0BE010D2E000C880B990B5BD2D2
:1004700020E030E040E85BE3F2D29B01AC0187D1A1
:100480002BED3FE049E450E4EAD24CD320E030E8E1
:100490004FEF53E4E4D220E030E040E054E477D181
:1004A00014D2F801619371938F012196C115F1E087
:1004B000DF07C1F68091084090910940809308427F
:1004C0009093094284E08093760490E89093B20080
:1004D00091EC9093A0068093720481E080930007D2
:1004E00097E19093020795E0909310079FE7909310
:1004F000140792E2909313071092000B1092010BD5
:100500002FE132E020930C0B30930D0B8093050B01
:100510008093000BB2E04B2EB3E05B2E612C712C6C
:1005200083D0A3019201D5D062597F4F8F4F9F4F47
:10053000FAD196D100E2D7D3E4E4AE2EFCEABF2E86
:10054000C12CD12CE12CF12C00E010E070D3C901BA
:10055000DA0180930A4290930B42A0930C42B0932D
:100560000D4209DEEB01ADE7CA2ED12CE12CF12CB6
:1005700002DE6C1B7D0B683E7340D0F3E1E0CE1AC7
:10058000D108E108F108C851DC4FC114D104E104DD
:10059000F10471F7C5CF8F929F92AF92BF92CF9225
:1005A000DF92EF92FF92CF93DF93EC016881798124
:1005B0008A819B81611571058105910521F464E2B1
:1005C00079ED8BE597E02DE133EF41E050E081D00C
:1005D00049015A019B01AC01A7EAB1E496D06B0135
:1005E0007C01ACEEB4EFA50194019BD0C60ED71EE2
:1005F000E81EF91EF7FE06C081E0C81AD108E1081E
:1006000080E8F80AC882D982EA82FB82C701B60173
:100610009F77DF91CF91FF90EF90DF90CF90BF90C9
:10062000AF909F908F9008958F929F92AF92BF92BC
:10063000CF92DF92EF92FF92609100407091014063
:1006400080910240909103406115710581059105EB
:1006500021F464E279ED8BE597E02DE133EF41E0A1
:1006600050E037D049015A019B01AC01A7EAB1E43F
:100670004CD06B017C01ACEEB4EFA501940151D0DC
:10068000C60ED71EE81EF91EF7FE06C081E0C81A86
:10069000D108E10880E8F80AC0920040D0920140F9
:1006A000E0920240F0920340C701B6019F77FF90AD
:1006B000EF90DF90CF90BF90AF909F908F90089574
:1006C00060930040709301408093024090930340F8
:1006D0000895052E97FB16F400940FD057FD05D012
:1006E00024D007FC02D046F408C0509540953095C0
:1006F00021953F4F4F4F5F4F08959095809570958E
:1007000061957F4F8F4F9F4F089531D0A59F900DDA
:10071000B49F900DA49F800D911D11240895B7FFE3
:10072000F4CFF3DF821B930B0895A1E21A2EAA1BCC
:10073000BB1BFD010DC0AA1FBB1FEE1FFF1FA21791
:10074000B307E407F50720F0A21BB30BE40BF50B8E
:10075000661F771F881F991F1A9469F76095709517
:10076000809590959B01AC01BD01CF010895A29F9A
:10077000B001B39FC001A39F700D811D1124911D75
:10078000B29F700D811D1124911D08955058BB27F3
:10079000AA270ED02AC11BD130F020D120F031F48D
:1007A0009F3F11F41EF400C10EF4E095E7FBF6C084
:1007B000E92F2CD180F3BA176207730784079507D6
:1007C00018F071F49EF544C10EF4E0950B2EBA2F8B
:1007D000A02D0B01B90190010C01CA01A001112447
:1007E000FF27591B99F0593F50F4503E68F11A16F3
:1007F000F040A22F232F342F4427585FF3CF469584
:1008000037952795A795F0405395C9F77EF41F16A5
:10081000BA0B620B730B840BBAF09150A1F0FF0F6F
:10082000BB1F661F771F881FC2F70EC0BA0F621F5B
:10083000731F841F48F4879577956795B795F7954B
:100840009E3F08F0B3CF9395880F08F09927EE0FDD
:10085000979587950895BEE304D008F490E808952D
:10086000BFE322273327A901D9D058F19F5740F180
:10087000B91738F1BFE3B91B9927B8503AF4660F9E
:10088000771F881F991FB395D2F316C0B8504AF04E
:10089000232F342F452F562F672F782F8827B850B6
:1008A000BAF7B85F49F0869577956795579547955C
:1008B00037952795BA95B9F70EF479D088940895AD
:1008C000889460E070E0CB010895A8D088F09F572D
:1008D00090F0B92F9927B751A0F0D1F0660F771F8C
:1008E000881F991F1AF0BA95C9F712C0B13081F06C
:1008F000AFD0B1E00895ACC0672F782F8827B85FDC
:1009000039F0B93FCCF3869577956795B395D9F7CC
:100910003EF490958095709561957F4F8F4F9F4FD6
:100920000895E89409C097FB3EF4909580957095E2
:1009300061957F4F8F4F9F4F9923A9F0F92F96E92B
:10094000BB279395F695879577956795B795F111A0
:10095000F8CFFAF4BB0F11F460FF1BC06F5F7F4F3D
:100960008F4F9F4F16C0882311F096E911C077234F
:1009700021F09EE8872F762F05C0662371F096E858
:10098000862F70E060E02AF09A95660F771F881F27
:10099000DAF7880F9695879597F9089597F99F67E5
:1009A00080E870E060E008959FEF80EC08959095F6
:1009B00080957095609550954095309521953F4F65
:1009C0004F4F5F4F6F4F7F4F8F4F9F4F08950024C2
:1009D0000A941616170618060906089500240A94A4
:1009E00012161306140605060895092E0394000C2A
:1009F00011F4882352F0BB0F40F4BF2B11F460FFB9
:100A000004C06F5F7F4F8F4F9F4F089557FD9058E1
:100A1000440F551F59F05F3F71F04795880F97FBC2
:100A2000991F61F09F3F79F087950895121613067C
:100A30001406551FF2CF4695F1DF08C016161706AB
:100A40001806991FF1CF86957105610508940895E0
:100A5000E894BB2766277727CB0197F908950BD039
:100A6000C4CFB5DF28F0BADF18F0952309F096CF90
:100A70009BCF1124EECFCADFA0F3959FD1F3950F42
:100A800050E0551F629FF001729FBB27F00DB11D12
:100A9000639FAA27F00DB11DAA1F649F6627B00DA2
:100AA000A11D661F829F2227B00DA11D621F739F8B
:100AB000B00DA11D621F839FA00D611D221F749F99
:100AC0003327A00D611D231F849F600D211D822FE0
:100AD000762F6A2F11249F5750408AF0E1F0882327
:100AE0004AF0EE0FFF1FBB1F661F771F881F915034
:100AF0005040A9F79E3F510570F050CFAACF5F3FFD
:100B0000ECF3983EDCF3869577956795B795F79566
:100B1000E7959F5FC1F7FE2B880F911D96958795EE
:100B200097F908959F9305D00F9007FCEE5F28C0BA
:100B30003BCF74DFE8F3E894E0E0BB279F57F0F089
:100B40002AED3FE049EC06C0EE0FBB0F661F771F92
:100B5000881F28F0B23A62077307840728F0B25A58
:100B6000620B730B840BE3959A9572F7803830F41F
:100B70009A95BB0F661F771F881FD2F7904813C046
:100B8000EF93E0FF06C0A2EA2AED3FE049EC5FEBFD
:100B90000FDE2BDF0F90039401FC9058E4EFF0E0A0
:100BA0000EC09F3F31F0915020F48795779567955F
:100BB000B795880F911D9695879597F908959F93FE
:100BC0008F937F936F93FF93EF939B01AC0147DF6C
:100BD000EF91FF9105D02F913F914F915F913FCFC2
:100BE000DF93CF931F930F93FF92EF92DF927B01DE
:100BF0008C01689405C0DA2EEF013DDFFE01E89418
:100C0000A5912591359145915591AEF3EF01D0DD38
:100C1000FE019701A801DA9479F7DF90EF90FF9039
:100C20000F911F91CF91DF910895689401C0E894CE
:100C30008F929F92CF93DF9305D0DF91CF919F90BA
:100C40008F90089588249924F401E401B0E49F93DF
:100C5000AA279A158B049C04ED05FE05CF05D00745
:100C6000A10798F4AD2FDC2FCF2FFE2FE92D982C64
:100C7000892E982F872F762F652F542F432F322FB1
:100C80002227B85031F7BF9127C01B2EBF91BB2739
:100C9000220F331F441F551F661F771F881F991F80
:100CA000881C991CEE1FFF1FCC1FDD1FAA1FBB1F36
:100CB0008A149B04EC05FD05CE05DF05A007B107EE
:100CC00048F08A189B08EC09FD09CE09DF09A00B42
:100CD000B10B21601A94E1F62EF49401AF01BE012C
:100CE000CD01000C0895002E083090F0982F872F2A
:100CF000762F652F542F432F322F22270850F4CF01
:100D0000220F331F441F551F661F771F881F991F0F
:0C0D10000A95B2F7002D0895F894FFCF6B
:040D1C0001000000D2
:00000001FF
