:10000000A4C00000D3C00000D1C00000CFC00000D9
:10001000CDC00000CBC00000C9C00000C7C00000B8
:10002000C5C00000C3C00000C1C00000BFC00000C8
:10003000BDC00000BBC000001AC10000B7C0000076
:10004000B5C00000B3C00000B1C00000AFC00000E8
:10005000ADC00000ABC00000A9C00000A7C00000F8
:10006000A5C00000A3C00000A1C000009FC0000008
:100070009DC000009BC0000099C00000DCC00000D3
:1000800095C0000093C0000091C000008FC0000028
:100090008DC000008BC0000089C0000087C0000038
:1000A00085C0000083C0000081C000007FC0000048
:1000B0007DC000007BC0000079C0000077C0000058
:1000C00075C0000073C0000071C000006FC0000068
:1000D0006DC000006BC0000069C0000067C0000078
:1000E00065C0000063C0000061C000005FC0000088
:1000F0005DC00000028988083EABAAAAAABE000023
:1001000000803F07634236B79BD8A71A3968561854
:10011000AEBAAB558C1D3CB7CC5763BD6DEDFD75CC
:100120003EF6177231BF000000803F05A84CCDB2EB
:10013000D44EB93836A9020C50B9918688083CA62D
:10014000AAAA2ABE000000803F0011241FBECFEFE4
:10015000CDBFDFE7DEBF809140008093400081117A
:1001600005C098ED21E094BF209341008CBB80E353
:100170008093011088ED90EB84BF9093011010E400
:10018000A0E0B0E4E8E9F1E100E00BBF02C00790B5
:100190000D92AC30B107D9F726E4ACE0B0E401C071
:1001A0001D92AE31B207E1F77DD1F4C729CF9FB7D9
:1001B000F894E0912A0BF0912B0B8091260B209163
:1001C0001A4630911B4640911C4650911D469FBFD8
:1001D00080FF08C0CF018827892B21F42F5F3F4F74
:1001E0004F4F5F4F0F01169407941694079416947F
:1001F000079416940794F00116940794E00DF11DEE
:1002000016940794102C169401181694010C169449
:1002100001181694010C1694011816941694010CEA
:100220001124E019F109A8EEB3E004D46E0F7F1F8A
:10023000811D911D0895EF93FF93EAE1F6E48F93FA
:100240008FB78F9380818F5F808381818F4F818370
:1002500082818F4F828383818F4F838381E080935C
:10026000260B8F918FBF8F91FF91EF9118951F9261
:100270000F920FB60F9211240BB60F92CF92DF920E
:10028000EF92FF922F933F934F935F936F937F93E0
:100290008F939F93AF93BF93CF93EF93FF9320914F
:1002A00003403091044080910E4490910F44820F9E
:1002B000931F80930E4490930F4420910E443091ED
:1002C0000F4480910540909106402817390740F06F
:1002D000809118469091194680930E4490930F4454
:1002E00080910E4490910F44892F9927A0910E443C
:1002F000B0910F44FC01EE0FFF1FE05FFB4B40810C
:1003000051818F5FE82FF0E0EE0FFF1FE05FFB4BA6
:1003100020813181B0E02417350708F4A5C0241BE3
:10032000350BBAD3672F782F892F9927460F571F80
:1003300080910E4490910F44892F9927A0910540F8
:10034000B09106408830910508F09AC0DC0185E044
:10035000AA0FBB1F8A95E1F79A0150E040E03250A6
:100360004109510967D340910C4450910D442091AB
:100370000040C0910040672F782F892F992787FD73
:100380009A957E5FA4E6B0E0A21BB1099B01FCD662
:100390006B017C01440F551FFA01E45FFF4BA08104
:1003A000B1812C2F30E078D36C0D7D1D8E1D9F1DEB
:1003B00024E630E040E050E04DD3E0910C44F09171
:1003C0000D44EE0FFF1FE45FFF4B208331838091CC
:1003D0000C4490910D44019680930C4490930D44ED
:1003E00060910C4470910D448091014090910240C5
:1003F0006817790738F480910C4490910D44811569
:10040000924020F010920C4410920D44211584E08B
:10041000380710F02FEF33E0822F8295880F880F76
:10042000807C8093A2063695279536952795209354
:10043000A30681E08093060BFF91EF91CF91BF91CE
:10044000AF919F918F917F916F915F914F913F916C
:100450002F91FF90EF90DF90CF900F900BBE0F90F9
:100460000FBE0F901F901895CA01821B930B9C0121
:1004700013D3672F782F892F9927461B570B58CFF7
:10048000AB2FBB27A81BB90BA830B10540F4BA2F7E
:10049000AA27F3E0B695A795FA95E1F75DCFA0E01E
:1004A000B1E05ACFCF93DF93CDB7DEB72697CDBF5C
:1004B000DEBF88ED94E284BF9093680021E0209332
:1004C000030A8EEF8093260A8093270A9BE090937D
:1004D000000A2093430A8093660A8093670A9093E8
:1004E000400A32E03093E6059093E70537E0309319
:1004F000010B80930C0B10920D0B95E09093000B69
:100500003093110B80931C0B10921D0B9093100BCA
:100510003093310B80933C0B10923D0B9093300B3A
:100520004FEF5FE04093AA0B5093AB0B80E88093B2
:10053000820B1092810B4BEF53E04093AE0B509324
:10054000AF0B81E78093800B1092E805E0E0F6E0C6
:1005500092838EE0858380E68383908385E5829510
:100560003091B200387F8770832B8093B2004FEDBB
:100570005EE240932C0B50932D0B2093250B109291
:10058000210B83E08093200B789484E080937004A7
:100590009093B00020930006809302061092080604
:1005A00020930A0680910D0680FFFCCF6091100613
:1005B0007091110690E080E061157105810591054B
:1005C00009F013D220E134E42D833E83F12CE12C99
:1005D00058EE452E53E0552E612C712CBAD169830B
:1005E0007A838B839C83B7010F2C000C880B990BAB
:1005F00062D320E030E040E85BE3EDD39B01AC0147
:100600005BD22BED3FE049E450E4E5D347D44B0106
:100610005C0169817A818B819C81A3019201EED179
:100620004AD320E030E04AEF53E4AAD220E030E0A1
:1006300040E85FE340D22AE939E949E95EE3CBD3F8
:1006400020E030E040E85FE337D2A5019401C3D356
:1006500020E030E040EC50E4BED326D420E030E887
:100660004FEF53E4B8D320E030E040E054E424D22C
:10067000F4D2ED81FE8161937193ED83FE83FFEFF0
:10068000EF1AFF0AE11421E0F20609F0A7CF84E097
:100690008093760490E89093B20091EC9093A0063A
:1006A0008093720481E08093000797E190930207A2
:1006B00095E0909310079FE79093140792E2909330
:1006C00013071092000B1092010B2FE132E02093E0
:1006D0000C0B30930D0B8093050B8093000B40ECBB
:1006E000842E43E0942EA12CB12C00E011E031D1F6
:1006F00028EF30E040E050E081D16B017C0138E030
:10070000C30ED11CE11CF11C24D1A501940176D1AA
:100710009B01AC01205C3F4F4F4F5F4F29833A83D1
:100720004B835C839C2D88278093054090930640E3
:1007300010D198012C193D0950E040E05FD1762F8F
:10074000662760931846709319462DEC3CEC4CE4F8
:100750005DE3609114467091154680911646909124
:100760001746AAD16B017C012BED3FE049EC50E428
:100770002ED318160CF484C0C0921446D09215469D
:10078000E0921646F0921746609114467091154615
:10079000809116469091174681D320E030E040E4E6
:1007A00051E419D32B013C0120E030E040E85EE346
:1007B00060911046709111468091124690911346B7
:1007C0007BD16B017C012BED3FE049EC50E4FFD283
:1007D00018160CF465C0C0921046D0921146E092F3
:1007E0001246F09213466091104670911146809126
:1007F00012469091134652D36B017C0149815A8174
:10080000BA0190E080E055D2A301920155D125D2E2
:1008100086E0660F771F8A95E1F760930340709337
:1008200004402AE939E949E95FE3C701B601D3D2B7
:100830000FD262507E4F6093014070930240B7DC4C
:1008400069837A839DE7C92ED12CE12CF12CAFDC92
:10085000E981FA816E1B7F0B683E7340C0F321E093
:10086000C21AD108E108F10849815A8148515C4F08
:1008700049835A83C114D104E104F10441F737CF0D
:100880002BED3FE049EC50E4C701B60114D1609371
:10089000144670931546809316469093174674CF6E
:1008A0002BED3FE049EC50E4C701B60104D1609361
:1008B000104670931146809312469093134693CF3F
:1008C0008F929F92AF92BF92CF92DF92EF92FF9260
:1008D000CF93DF93EC01688179818A819B816115D7
:1008E00071058105910521F464E279ED8BE597E0CE
:1008F0002DE133EF41E050E081D049015A019B01E5
:10090000AC01A7EAB1E496D06B017C01ACEEB4EF88
:10091000A50194019BD0C60ED71EE81EF91EF7FE56
:1009200006C081E0C81AD108E10880E8F80AC88248
:10093000D982EA82FB82C701B6019F77DF91CF910E
:10094000FF90EF90DF90CF90BF90AF909F908F90EF
:1009500008958F929F92AF92BF92CF92DF92EF92C3
:10096000FF926091074070910840809109409091FA
:100970000A40611571058105910521F464E279ED64
:100980008BE597E02DE133EF41E050E037D04901AE
:100990005A019B01AC01A7EAB1E44CD06B017C0188
:1009A000ACEEB4EFA501940151D0C60ED71EE81EDF
:1009B000F91EF7FE06C081E0C81AD108E10880E8F8
:1009C000F80AC0920740D0920840E0920940F092A5
:1009D0000A40C701B6019F77FF90EF90DF90CF905C
:1009E000BF90AF909F908F90089560930740709351
:1009F00008408093094090930A400895052E97FB84
:100A000016F400940FD057FD05D024D007FC02D077
:100A100046F408C050954095309521953F4F4F4F73
:100A20005F4F089590958095709561957F4F8F4F9A
:100A30009F4F089531D0A59F900DB49F900DA49F16
:100A4000800D911D11240895B7FFF4CFF3DF821BB1
:100A5000930B0895A1E21A2EAA1BBB1BFD010DC02A
:100A6000AA1FBB1FEE1FFF1FA217B307E407F5075E
:100A700020F0A21BB30BE40BF50B661F771F881F3A
:100A8000991F1A9469F760957095809590959B01D0
:100A9000AC01BD01CF010895A29FB001B39FC00179
:100AA000A39F700D811D1124911DB29F700D811D9A
:100AB0001124911D08955058BB27AA270ED04DC16F
:100AC0003ED130F043D120F031F49F3F11F41EF4B9
:100AD00033C10EF4E095E7FB29C1E92F4FD180F334
:100AE000BA17620773078407950718F071F49EF52B
:100AF00067C10EF4E0950B2EBA2FA02D0B01B901A2
:100B000090010C01CA01A0011124FF27591B99F083
:100B1000593F50F4503E68F11A16F040A22F232F8F
:100B2000342F4427585FF3CF469537952795A795DF
:100B3000F0405395C9F77EF41F16BA0B620B730B86
:100B4000840BBAF09150A1F0FF0FBB1F661F771FF7
:100B5000881FC2F70EC0BA0F621F731F841F48F4AC
:100B6000879577956795B795F7959E3F08F0B3CF32
:100B70009395880F08F09927EE0F9795879508951C
:100B80000CD0EBC0E3D040F0DAD030F021F45F3F7E
:100B900019F0CCC0511115C1CFC0F0D098F39923F2
:100BA000C9F35523B1F3951B550BBB27AA27621731
:100BB0007307840738F09F5F5F4F220F331F441F76
:100BC000AA1FA9F333D00E2E3AF0E0E830D09150AE
:100BD0005040E695001CCAF729D0FE2F27D0660F9B
:100BE000771F881FBB1F261737074807AB07B0E8DA
:100BF00009F0BB0B802DBF01FF2793585F4F2AF0F0
:100C00009E3F510568F092C0DCC05F3FECF3983E18
:100C1000DCF3869577956795B795F7959F5FC9F74C
:100C2000880F911D9695879597F90895E1E0660FD5
:100C3000771F881FBB1F621773078407BA0720F04E
:100C4000621B730B840BBA0BEE1F88F7E0950895B7
:100C500004D06894B111B5C0089598D088F09F571A
:100C600090F0B92F9927B751A0F0D1F0660F771FF8
:100C7000881F991F1AF0BA95C9F712C0B13081F0D8
:100C80009FD0B1E008959CC0672F782F8827B85F68
:100C900039F0B93FCCF3869577956795B395D9F739
:100CA0003EF490958095709561957F4F8F4F9F4F43
:100CB0000895E89409C097FB3EF49095809570954F
:100CC00061957F4F8F4F9F4F9923A9F0F92F96E998
:100CD000BB279395F695879577956795B795F1110D
:100CE000F8CFFAF4BB0F11F460FF1BC06F5F7F4FAA
:100CF0008F4F9F4F16C0882311F096E911C07723BC
:100D000021F09EE8872F762F05C0662371F096E8C4
:100D1000862F70E060E02AF09A95660F771F881F93
:100D2000DAF7880F9695879597F9089597F99F6751
:100D300080E870E060E008959FEF80EC0895002463
:100D40000A941616170618060906089500240A9430
:100D500012161306140605060895092E0394000CB6
:100D600011F4882352F0BB0F40F4BF2B11F460FF45
:100D700004C06F5F7F4F8F4F9F4F089557FD90586E
:100D8000440F551F59F05F3F71F04795880F97FB4F
:100D9000991F61F09F3F79F0879508951216130609
:100DA0001406551FF2CF4695F1DF08C01616170638
:100DB0001806991FF1CF869571056105089408956D
:100DC000E894BB2766277727CB0197F90895CBD006
:100DD00008F48FEF08950BD0C0CFB1DF28F0B6DF55
:100DE00018F0952309F0A2CFA7CF1124EACFC6DFD0
:100DF000A0F3959FD1F3950F50E0551F629FF0012E
:100E0000729FBB27F00DB11D639FAA27F00DB11D86
:100E1000AA1F649F6627B00DA11D661F829F22270F
:100E2000B00DA11D621F739FB00DA11D621F839F96
:100E3000A00D611D221F749F3327A00D611D231F6C
:100E4000849F600D211D822F762F6A2F11249F57BA
:100E500050408AF0E1F088234AF0EE0FFF1FBB1FDD
:100E6000661F771F881F91505040A9F79E3F51057C
:100E700070F05CCFA6CF5F3FECF3983EDCF3869535
:100E800077956795B795F795E7959F5FC1F7FE2B27
:100E9000880F911D9695879597F908959F93BED0D9
:100EA0000F9007FCEE5FE1C09F939F77FEE38031D8
:100EB0009F0720F4E4EFF0E09FD020C0906841E06D
:100EC00050E0EDD024D09F938F937F936F9320E0D9
:100ED00030E040E85FE3F0DD2F913F914F915F916B
:100EE0009F938F937F936F9360E070E080E89FE320
:100EF000E2DD2F913F914F915F9142DE0F9007FC11
:100F00009058089519F40EF011CF5ACF15CF3EDF47
:100F1000C8F39638C0F707F80F92E8942BE33AEA43
:100F200048EB5FE766DF0F920F920F924DB75EB707
:100F30000F92E9D0E3E0F1E03AD04F915F91EF9169
:100F4000FF91E595EE1FFF1F49F0FE57E06844272B
:100F5000EE0F441FFA95E1F74195550BA0D00F9085
:100F600007FE94C00895990F0008550FAA0BE0E8FA
:100F7000FEEF16161706E807F907C0F0121613065B
:100F8000E407F50798F0621B730B840B950B39F49B
:100F90000A2661F0232B242B252B21F408950A2601
:100FA00009F4A140A6958FEF811D811D0895DF935F
:100FB000CF931F930F93FF92EF92DF927B018C01EF
:100FC000689405C0DA2EEF0112DFFE01E894A591C6
:100FD0002591359145915591AEF3EF017EDDFE01EE
:100FE0009701A801DA9479F7DF90EF90FF900F91C5
:100FF0001F91CF91DF9108959F938F937F936F936C
:10100000FF93EF939B01AC01E6DEEF91FF91CFDF01
:101010002F913F914F915F91DECE8ECEB7DEE8F3F8
:10102000E894E0E0BB279F57F0F02AED3FE049EC61
:1010300006C0EE0FBB0F661F771F881F28F0B23A5D
:1010400062077307840728F0B25A620B730B840B94
:10105000E3959A9572F7803830F49A95BB0F661F26
:10106000771F881FD2F7904883C0EF93E0FF06C038
:10107000A2EA2AED3FE049EC5FEB2FDD6EDE0F9038
:10108000039401FC9058EBE2F1E0B6CF9B01AC0178
:1010900060E070E080E89FE373CD48CE67C076DE05
:1010A000E8F39923D9F3940F511DBBF391505040AD
:1010B00094F059F0882332F0660F771F881F915003
:1010C0005040C1F79E3F510544F7880F911D9695FA
:1010D000879597F908955F3FACF0983E9CF0BB2749
:1010E000869577956795B79508F4B1609395C1F7A4
:1010F000BB0F58F711F460FFE8CF6F5F7F4F8F4F42
:101100009F4FE3CF5ECEFA01DC01AA0FBB1F9B010C
:10111000AC01BF5728F422273327442750781FC03B
:10112000B75188F4AB2F0024469537952795011CBD
:10113000A395D2F3002069F0220F331F441FB3950B
:10114000DAF30DD0B8CC61307105A0E88A07B94652
:1011500030F49B01AC01662777278827907830967A
:1011600021F0208331834283538308959F3F31F0E0
:10117000915020F4879577956795B795880F911DC5
:101180009695879597F9089587DCB7FF0895821B98
:08119000930B0895F894FFCFC2
:0C1198005F0002000100200100000000C8
:00000001FF
