:10000000A4C00000D3C00000D1C00000CFC00000D9
:10001000CDC00000CBC00000C9C00000C7C00000B8
:10002000C5C00000C3C00000C1C00000BFC00000C8
:10003000BDC00000BBC000001AC10000B7C0000076
:10004000B5C00000B3C00000B1C00000AFC00000E8
:10005000ADC00000ABC00000A9C00000A7C00000F8
:10006000A5C00000A3C00000A1C000009FC0000008
:100070009DC000009BC0000099C00000DCC00000D3
:1000800095C0000093C0000091C000008FC0000028
:100090008DC000008BC0000089C0000087C0000038
:1000A00085C0000083C0000081C000007FC0000048
:1000B0007DC000007BC0000079C0000077C0000058
:1000C00075C0000073C0000071C000006FC0000068
:1000D0006DC000006BC0000069C0000067C0000078
:1000E00065C0000063C0000061C000005FC0000088
:1000F0005DC00000028988083EABAAAAAABE000023
:1001000000803F07634236B79BD8A71A3968561854
:10011000AEBAAB558C1D3CB7CC5763BD6DEDFD75CC
:100120003EF6177231BF000000803F05A84CCDB2EB
:10013000D44EB93836A9020C50B9918688083CA62D
:10014000AAAA2ABE000000803F0011241FBECFEFE4
:10015000CDBFDFE7DEBF809140008093400081117A
:1001600005C098ED21E094BF209341008CBB80E353
:100170008093011088ED90EB84BF9093011010E400
:10018000A0E0B0E4EEE4F1E100E00BBF02C00790B4
:100190000D92AC30B107D9F722E4ACE0B0E401C075
:1001A0001D92AE31B207E1F7FCD0CFC729CF9FB780
:1001B000F894E0912A0BF0912B0B8091260B209163
:1001C0001A4230911B4240911C4250911D429FBFE8
:1001D00080FF08C0CF018827892B21F42F5F3F4F74
:1001E0004F4F5F4F0F01169407941694079416947F
:1001F000079416940794F00116940794E00DF11DEE
:1002000016940794102C169401181694010C169449
:1002100001181694010C1694011816941694010CEA
:100220001124E019F109A8EEB3E024D36E0F7F1F6B
:10023000811D911D0895EF93FF93EAE1F2E48F93FE
:100240008FB78F9380818F5F808381818F4F818370
:1002500082818F4F828383818F4F838381E080935C
:10026000260B8F918FBF8F91FF91EF9118951F9261
:100270000F920FB60F9211240BB60F922F933F934C
:100280004F935F936F937F938F939F93AF93BF939E
:10029000EF93FF934091164250911742609118429C
:1002A000709119428091124290911342A091144290
:1002B000B0911542840F951FA61FB71F809312425D
:1002C00090931342A0931442B0931542809112422E
:1002D00090911342A0911442B09115422091004098
:1002E0008B2F9927AA27BB27880F991F805F9F4BC9
:1002F000FC01808191819250289FD001299FB00DEF
:100300001124A115FEEFBF0714F4A0E0BEEF209169
:10031000104230911142A11582E0B80714F0AFEFFE
:10032000B1E082D62FE095958795779567952A95C8
:10033000D1F77E5F862F8295880F880F807C80930F
:10034000A20676956795769567956093A3062091AA
:10035000104230911142A0910140B0910240BCD2B4
:100360004FE096958795779567954A95D1F7609375
:1003700010427093114281E08093060BFF91EF9140
:10038000BF91AF919F918F917F916F915F914F91AD
:100390003F912F910F900BBE0F900FBE0F901F90AB
:1003A000189588ED94E284BF9093680021E0209333
:1003B000030A8EEF8093260A8093270A9BE090938E
:1003C000000A2093430A8093660A8093670A9093F9
:1003D000400A32E03093E6059093E70537E030932A
:1003E000010B80930C0B10920D0B95E09093000B7A
:1003F0003093110B80931C0B10921D0B9093100BDC
:100400003093310B80933C0B10923D0B9093300B4B
:100410004FEF5FE04093AA0B5093AB0B80E88093C3
:10042000820B1092810B4BEF53E04093AE0B509335
:10043000AF0B81E78093800B1092E805E0E0F6E0D7
:1004400092838EE0858380E68383908385E5829521
:100450009091B200987F8770892B8093B2008FEDC6
:100460009EE280932C0B90932D0B2093250B1092E2
:10047000210B83E08093200B789410920806209340
:100480000A0680910D0680FFFCCF609110067091E6
:100490001106072E000C880B990B6115710581055B
:1004A000910509F0C2D184E08093760481E88093BD
:1004B000B20081EC8093A00600E110E4D0E0C0E03F
:1004C00088EE882E83E0982EA12CB12C62D12B01CE
:1004D0003C01BE010D2E000C880B990B41D320E08E
:1004E00030E040E85BE3D8D39B01AC0105D22BEDB3
:1004F0003FE049E450E4D0D332D46B017C01C30126
:10050000B201A50194019AD12BD320E030E04AEF4B
:1005100053E456D220E030E040E85FE3ECD12AE932
:1005200039E949E95EE3B8D320E030E040E85FE331
:10053000E3D1A7019601B0D320E030E040E450E4DD
:10054000ABD313D420E030E84FEF53E4A5D320E041
:1005500030E040E054E4D0D1D5D2F80161937193FA
:100560008F012196C115F1E0DF0709F0AFCF10929E
:10057000000B1092010B8FE394E080930C0B90938F
:100580000D0B81E08093050B8093000BB2E34B2EA3
:10059000512CCCE1D0E018E0812E912C612C00E8A8
:1005A000702EA0D0B2012DD5BC01990F880B990BEC
:1005B000D7D220E030E040E252E49ED16ED200E299
:1005C00097D5E2E2AE2EF6E5BF2EC12CD12CE12C60
:1005D000F12C00E010E030D5C901DA018093164219
:1005E00090931742A0931842B09319427BD0BE015A
:1005F00008D586529048809301409093024072D073
:10060000B401FFD48F5F8093004010921242109289
:10061000134210921442109215426092104270924E
:100620001142C5DD8B01AAEFCA2ED12CE12CF12C91
:10063000BEDD601B710B683E7340D0F3E1E0CE1A63
:10064000D108E108F10808511C4FC114D104E1049C
:10065000F10471F7A6CF8F929F92AF92BF92CF9283
:10066000DF92EF92FF92CF93DF93EC016881798163
:100670008A819B81611571058105910521F464E2F0
:1006800079ED8BE597E02DE133EF41E050E0D6D0F6
:1006900049015A019B01AC01A7EAB1E4EBD06B011F
:1006A0007C01ACEEB4EFA5019401F0D0DC01CB01EC
:1006B0008C0D9D1DAE1DBF1DB7FF03C00197A10985
:1006C000B04888839983AA83BB839F77DF91CF91BA
:1006D000FF90EF90DF90CF90BF90AF909F908F9062
:1006E0000895B9CF83E090E4B6CFB0E0A0E0809366
:1006F000034090930440A0930540B09306400895B2
:100700008F929F92AF92BF92CF92DF92EF92FF9221
:10071000CF93DF93EC01688179818A819B81611598
:1007200071058105910521F464E279ED8BE597E08F
:100730002DE133EF41E050E081D049015A019B01A6
:10074000AC01A7EAB1E496D06B017C01ACEEB4EF4A
:10075000A50194019BD0C60ED71EE81EF91EF7FE18
:1007600006C081E0C81AD108E10880E8F80AC8820A
:10077000D982EA82FB82C701B6019F77DF91CF91D0
:10078000FF90EF90DF90CF90BF90AF909F908F90B1
:1007900008958F929F92AF92BF92CF92DF92EF9285
:1007A000FF926091074070910840809109409091BC
:1007B0000A40611571058105910521F464E279ED26
:1007C0008BE597E02DE133EF41E050E037D0490170
:1007D0005A019B01AC01A7EAB1E44CD06B017C014A
:1007E000ACEEB4EFA501940151D0C60ED71EE81EA1
:1007F000F91EF7FE06C081E0C81AD108E10880E8BA
:10080000F80AC0920740D0920840E0920940F09266
:100810000A40C701B6019F77FF90EF90DF90CF901D
:10082000BF90AF909F908F90089560930740709312
:1008300008408093094090930A400895052E97FB45
:1008400016F400940FD057FD05D024D007FC02D039
:1008500046F408C050954095309521953F4F4F4F35
:100860005F4F089590958095709561957F4F8F4F5C
:100870009F4F089531D0A59F900DB49F900DA49FD8
:10088000800D911D11240895B7FFF4CFF3DF821B73
:10089000930B0895A1E21A2EAA1BBB1BFD010DC0EC
:1008A000AA1FBB1FEE1FFF1FA217B307E407F50720
:1008B00020F0A21BB30BE40BF50B661F771F881FFC
:1008C000991F1A9469F760957095809590959B0192
:1008D000AC01BD01CF010895A29FB001B39FC0013B
:1008E000A39F700D811D1124911DB29F700D811D5C
:1008F0001124911D08955058BB27AA270ED092C1EC
:1009000083D130F088D120F031F49F3F11F41EF4F0
:1009100068C10EF4E095E7FB5EC1E92F94D180F346
:10092000BA17620773078407950718F071F49EF5EC
:10093000ACC10EF4E0950B2EBA2FA02D0B01B9011E
:1009400090010C01CA01A0011124FF27591B99F045
:10095000593F50F4503E68F11A16F040A22F232F51
:10096000342F4427585FF3CF469537952795A795A1
:10097000F0405395C9F77EF41F16BA0B620B730B48
:10098000840BBAF09150A1F0FF0FBB1F661F771FB9
:10099000881FC2F70EC0BA0F621F731F841F48F46E
:1009A000879577956795B795F7959E3F08F0B3CFF4
:1009B0009395880F08F09927EE0F979587950895DE
:1009C0000CD030C128D140F01FD130F021F45F3F6E
:1009D00019F001C151115AC104C135D198F39923BD
:1009E000C9F35523B1F3951B550BBB27AA276217F3
:1009F0007307840738F09F5F5F4F220F331F441F38
:100A0000AA1FA9F333D00E2E3AF0E0E830D091506F
:100A10005040E695001CCAF729D0FE2F27D0660F5C
:100A2000771F881FBB1F261737074807AB07B0E89B
:100A300009F0BB0B802DBF01FF2793585F4F2AF0B1
:100A40009E3F510568F0C7C021C15F3FECF3983E5F
:100A5000DCF3869577956795B795F7959F5FC9F70E
:100A6000880F911D9695879597F90895E1E0660F97
:100A7000771F881FBB1F621773078407BA0720F010
:100A8000621B730B840BBA0BEE1F88F7E095089579
:100A9000BEE304D008F490E80895BFE3222733278B
:100AA000A901D9D058F19F5740F1B91738F1BFE3E8
:100AB000B91B9927B8503AF4660F771F881F991F02
:100AC000B395D2F316C0B8504AF0232F342F452FD8
:100AD000562F672F782F8827B850BAF7B85F49F09C
:100AE0008695779567955795479537952795BA9544
:100AF000B9F70EF479D088940895889460E070E096
:100B0000CB010895A8D088F09F5790F0B92F99276E
:100B1000B751A0F0D1F0660F771F881F991F1AF008
:100B2000BA95C9F712C0B13081F0AFD0B1E00895E5
:100B3000ACC0672F782F8827B85F39F0B93FCCF366
:100B4000869577956795B395D9F73EF490958095FE
:100B5000709561957F4F8F4F9F4F0895E89409C01E
:100B600097FB3EF490958095709561957F4F8F4FE0
:100B70009F4F9923A9F0F92F96E9BB279395F695F6
:100B8000879577956795B795F111F8CFFAF4BB0F74
:100B900011F460FF1BC06F5F7F4F8F4F9F4F16C0D8
:100BA000882311F096E911C0772321F09EE8872F62
:100BB000762F05C0662371F096E8862F70E060E01E
:100BC0002AF09A95660F771F881FDAF7880F969597
:100BD000879597F9089597F99F6780E870E060E03E
:100BE00008959FEF80EC089590958095709560959D
:100BF00050954095309521953F4F4F4F5F4F6F4F28
:100C00007F4F8F4F9F4F089500240A9416161706A2
:100C100018060906089500240A94121613061406ED
:100C200005060895092E0394000C11F4882352F050
:100C3000BB0F40F4BF2B11F460FF04C06F5F7F4F08
:100C40008F4F9F4F089557FD9058440F551F59F0EF
:100C50005F3F71F04795880F97FB991F61F09F3FA9
:100C600079F087950895121613061406551FF2CFD2
:100C70004695F1DF08C0161617061806991FF1CF22
:100C800086957105610508940895E894BB27662749
:100C90007727CB0197F908950BD0C4CFB5DF28F0A3
:100CA000BADF18F0952309F096CF9BCF1124EECF31
:100CB000CADFA0F3959FD1F3950F50E0551F629FB7
:100CC000F001729FBB27F00DB11D639FAA27F00DA5
:100CD000B11DAA1F649F6627B00DA11D661F829FCC
:100CE0002227B00DA11D621F739FB00DA11D621FB1
:100CF000839FA00D611D221F749F3327A00D611DCE
:100D0000231F849F600D211D822F762F6A2F1124AF
:100D10009F5750408AF0E1F088234AF0EE0FFF1F02
:100D2000BB1F661F771F881F91505040A9F79E3F39
:100D3000510570F050CFAACF5F3FECF3983EDCF343
:100D4000869577956795B795F795E7959F5FC1F776
:100D5000FE2B880F911D9695879597F908959F937F
:100D60009AD00F9007FCEE5FBDC09F939F77FEE384
:100D700080319F0720F4E4EFF0E07BD020C0906842
:100D800041E050E0C9D024D09F938F937F936F931D
:100D900020E030E040E85FE3AFDD2F913F914F91DD
:100DA0005F919F938F937F936F9360E070E080E8F3
:100DB0009FE3A1DD2F913F914F915F9101DE0F9055
:100DC00007FC9058089519F40EF005CF5ECF09CFB7
:100DD00042DFC8F39638C0F707F80F92E8942BE388
:100DE0003AEA48EB5FE766DF0F920F920F924DB73A
:100DF0005EB70F92C5D0E3E0F1E016D04F915F915E
:100E0000EF91FF91E595EE1FFF1F49F0FE57E06857
:100E10004427EE0F441FFA95E1F74195550B7CD01E
:100E20000F9007FE70C00895DF93CF931F930F9329
:100E3000FF92EF92DF927B018C01689405C0DA2E5D
:100E4000EF0136DFFE01E894A5912591359145919A
:100E50005591AEF3EF0161DDFE019701A801DA942F
:100E600079F7DF90EF90FF900F911F91CF91DF9175
:100E700008959F938F937F936F93FF93EF939B01BD
:100E8000AC010ADFEF91FF91CFDF2F913F914F919E
:100E90005F9102CFA6CEDFDEE8F3E894E0E0BB2767
:100EA0009F57F0F02AED3FE049EC06C0EE0FBB0F74
:100EB000661F771F881F28F0B23A620773078407FE
:100EC00028F0B25A620B730B840BE3959A9572F774
:100ED000803830F49A95BB0F661F771F881FD2F7B2
:100EE000904883C0EF93E0FF06C0A2EA2AED3FE0FE
:100EF00049EC5FEB12DD96DE0F90039401FC9058F5
:100F0000EBE2F1E0B6CF9B01AC0160E070E080E87D
:100F10009FE356CD60CE67C09EDEE8F39923D9F3F8
:100F2000940F511DBBF39150504094F059F0882319
:100F300032F0660F771F881F91505040C1F79E3FD7
:100F4000510544F7880F911D9695879597F9089557
:100F50005F3FACF0983E9CF0BB27869577956795F0
:100F6000B79508F4B1609395C1F7BB0F58F711F42A
:100F700060FFE8CF6F5F7F4F8F4F9F4FE3CF86CEED
:100F8000FA01DC01AA0FBB1F9B01AC01BF5728F47B
:100F900022273327442750781FC0B75188F4AB2F3E
:100FA0000024469537952795011CA395D2F3002080
:100FB00069F0220F331F441FB395DAF30DD09BCC99
:100FC00061307105A0E88A07B94630F49B01AC0195
:100FD0006627772788279078309621F02083318301
:100FE0004283538308959F3F31F0915020F48795B9
:100FF00077956795B795880F911D9695879597F981
:10100000089597FB072E16F4009406D077FD08D0BC
:1010100088D007FC05D03EF4909581959F4F0895A8
:10102000709561957F4F089557DCB7FF0895821B37
:10103000930B0895689401C0E8948F929F92CF9388
:10104000DF9305D0DF91CF919F908F9008958824F2
:101050009924F401E401B0E49F93AA279A158B0424
:101060009C04ED05FE05CF05D007A10798F4AD2F30
:10107000DC2FCF2FFE2FE92D982C892E982F872F2C
:10108000762F652F542F432F322F2227B85031F758
:10109000BF9127C01B2EBF91BB27220F331F441FB8
:1010A000551F661F771F881F991F881C991CEE1FEC
:1010B000FF1FCC1FDD1FAA1FBB1F8A149B04EC055A
:1010C000FD05CE05DF05A007B10748F08A189B088B
:1010D000EC09FD09CE09DF09A00BB10B21601A94C0
:1010E000E1F62EF49401AF01BE01CD01000C08958C
:1010F000002E083090F0982F872F762F652F542FD1
:10110000432F322F22270850F4CF220F331F441FC2
:10111000551F661F771F881F991F0A95B2F7002D6C
:101120000895AA1BBB1B51E107C0AA1FBB1FA6172E
:10113000B70710F0A61BB70B881F991F5A95A9F780
:0E11400080959095BC01CD010895F894FFCFE5
:0C114E0001EC7F01000000010000000027
:00000001FF
