:10000000A4C00000D3C00000D1C00000CFC00000D9
:10001000CDC00000CBC00000C9C00000C7C00000B8
:10002000C5C00000C3C00000C1C00000BFC00000C8
:10003000BDC00000BBC000001AC10000B7C0000076
:10004000B5C00000B3C00000B1C00000AFC00000E8
:10005000ADC00000ABC00000A9C00000A7C00000F8
:10006000A5C00000A3C00000A1C000009FC0000008
:100070009DC000009BC0000099C00000DCC00000D3
:1000800095C0000093C0000091C000008FC0000028
:100090008DC000008BC0000089C0000087C0000038
:1000A00085C0000083C0000081C000007FC0000048
:1000B0007DC000007BC0000079C0000077C0000058
:1000C00075C0000073C0000071C000006FC0000068
:1000D0006DC000006BC0000069C0000067C0000078
:1000E00065C0000063C0000061C000005FC0000088
:1000F0005DC00000028988083EABAAAAAABE000023
:1001000000803F07634236B79BD8A71A3968561854
:10011000AEBAAB558C1D3CB7CC5763BD6DEDFD75CC
:100120003EF6177231BF000000803F05A84CCDB2EB
:10013000D44EB93836A9020C50B9918688083CA62D
:10014000AAAA2ABE000000803F0011241FBECFEFE4
:10015000CDBFDFE7DEBF809140008093400081117A
:1001600005C098ED21E094BF209341008CBB80E353
:100170008093011088ED90EB84BF9093011010E400
:10018000A0E0B0E4E2E3F0E100E00BBF02C00790C2
:100190000D92AA36B107D9F728E6AAE6B0E401C065
:1001A0001D92AC37B207E1F765D141C729CF9FB7A0
:1001B000F894E0912A0BF0912B0B8091260B209163
:1001C00078683091796840917A6850917B689FBFD8
:1001D00080FF08C0CF018827892B21F42F5F3F4F74
:1001E0004F4F5F4F0F01169407941694079416947F
:1001F000079416940794F00116940794E00DF11DEE
:1002000016940794102C169401181694010C169449
:1002100001181694010C1694011816941694010CEA
:100220001124E019F109A8EEB3E084D36E0F7F1F0B
:10023000811D911D0895EF93FF93E8E7F8E68F93F2
:100240008FB78F9380818F5F808381818F4F818370
:1002500082818F4F828383818F4F838381E080935C
:10026000260B8F918FBF8F91FF91EF9118951F9261
:100270000F920FB60F9211240BB60F928F929F928E
:10028000AF92BF92CF92DF92EF92FF920F931F93A4
:100290002F933F934F935F936F937F938F939F938E
:1002A000AF93BF93CF93DF93EF93FF932091706849
:1002B000309171688091746890917568A0917668AA
:1002C000B091776840916C4850916D4860916E484C
:1002D00070916F48840F951FA61FB71F820F931F41
:1002E000A11DB11D80936C4890936D48A0936E48FA
:1002F000B0936F4880906C4890906D48A0906E4885
:10030000B0906F48E0916A48F0916B48EE0FFF1F84
:10031000E659FF4BC081D181A09172689E0150E0E7
:1003200040E064E0220F331F441F551F6A95D1F748
:10033000B0E000D3860E971EA81EB91EBB27AB2DBA
:100340009A2D892D9F70FC01EE0FFF1FE059F74B8E
:10035000C080D180F12CE12C009100401091004030
:10036000FC013196FF70EE0FFF1FE059F74B208123
:10037000318150E040E02C193D094E095F09A82D5C
:10038000B0E0D8D2272F382F492F552747FD5A954F
:100390002C0D3D1D4E1D5F1DA4E6B0E0A01BB10954
:1003A000D3D26B017C01212F30E0DE01F5D26C0D40
:1003B0007D1D8E1D9F1D24E630E040E050E0CAD236
:1003C00080917268E0916A48F0916B48EE0FFF1FD0
:1003D000E659FF4B90E09595879582279327808378
:1003E000918380916A4890916B48019680936A4806
:1003F00090936B4880916A4890916B488115944026
:1004000020F010926A4810926B48211584E038075A
:1004100010F02FEF33E0822F8295880F880F807CB9
:100420008093A20636952795369527952093A306A7
:1004300081E08093060BFF91EF91DF91CF91BF9107
:10044000AF919F918F917F916F915F914F913F916C
:100450002F911F910F91FF90EF90DF90CF90BF9061
:10046000AF909F908F900F900BBE0F900FBE0F908C
:100470001F90189588ED94E284BF9093680021E066
:100480002093030A8EEF8093260A8093270A9BE02D
:100490009093000A2093430A8093660A8093670A28
:1004A0009093400A32E03093E6059093E70537E0F9
:1004B0003093010B80930C0B10920D0B95E09093F1
:1004C000000B3093110B80931C0B10921D0B90931B
:1004D000100B3093310B80933C0B10923D0B90939B
:1004E000300B4FEF5FE04093AA0B5093AB0B80E8CB
:1004F0008093820B1092810B4BEF53E04093AE0B35
:100500005093AF0B81E78093800B1092E805E0E0F9
:10051000F6E092838EE0858380E68383908385E591
:1005200082959091B200987F8770892B8093B2005A
:100530008FED9EE280932C0B90932D0B2093250B37
:100540001092210B83E08093200B78941092080680
:1005500020930A0680910D0680FFFCCF6091100663
:1005600070911106072E000C880B990B611571050F
:100570008105910509F0B9D184E08093760481E882
:100580008093B20081EC8093A00600E718E4D0E0ED
:10059000C0E038EE832E33E0932EA12CB12CBE01A7
:1005A0000D2E000C880B990B01D320E030E040E8C1
:1005B00059E388D39B01AC01FFD12BED3FE049E427
:1005C00050E480D36B017C0120E030E040EE50E449
:1005D00079D3DBD32B013C0120E030E040E450E450
:1005E000C701B6016FD36B017C0120E030E040EC25
:1005F0005FE3C301B20166D39B01AC01C701B60141
:10060000DBD1C3D36B017C0124D1A501940176D148
:10061000CDD220E030E04AEF53E432D220E030E0A7
:1006200040E85FE3C8D12DEC3CEC4CE45DE34AD3F9
:10063000A7019601C1D12DEC3CEC4CE45FE342D321
:10064000AAD320E030E84FEF53E43CD320E030E081
:1006500040E054E4B1D17CD2D8016D937D938D01FB
:100660002196C115B0E1DB0709F099CF1092000B7C
:100670001092010B8FE394E080930C0B90930D0B81
:1006800081E08093050B8093000B15E59EE0892E99
:10069000912CA12CB12C24E1422E512C612C712CD7
:1006A000D8D020E130E040E050E028D1675A7F4BBD
:1006B000DB01EC91B4E0EB9FF0011124EB5FFF4B09
:1006C00020E030E040E855E46081718182819381CF
:1006D000F9D220E034E44CEA56E4D2D120E030E014
:1006E00040E853E4EFD234D2609374687093756835
:1006F0008093766890937768809173688370833075
:1007000009F04AC0A6D0A5019401F8D06E5F7F4FD2
:100710008F4F9F4F609372689CD0A3019201EED0DF
:10072000655B7F4F8F4F9F4F6093004092D0C09189
:10073000726820E430E040E050E0E0D04C2F50E020
:10074000469F9001479F300D569F300D11242093F6
:10075000706830937168809173688F5F803168F53D
:100760008093736824DDEB018AEFC82ED12CE12C35
:10077000F12C1DDD6C1B7D0B683E7340D0F3F1E066
:10078000CF1AD108E108F108C851DC4FC114D104D7
:10079000E104F10471F784CF5CD024E630E040E05E
:1007A00050E0ACD06D357105810591050CF0AACFF4
:1007B0001092726810930040B9CF10927368D2CF34
:1007C0008F929F92AF92BF92CF92DF92EF92FF9261
:1007D000CF93DF93EC01688179818A819B816115D8
:1007E00071058105910521F464E279ED8BE597E0CF
:1007F0002DE133EF41E050E081D049015A019B01E6
:10080000AC01A7EAB1E496D06B017C01ACEEB4EF89
:10081000A50194019BD0C60ED71EE81EF91EF7FE57
:1008200006C081E0C81AD108E10880E8F80AC88249
:10083000D982EA82FB82C701B6019F77DF91CF910F
:10084000FF90EF90DF90CF90BF90AF909F908F90F0
:1008500008958F929F92AF92BF92CF92DF92EF92C4
:10086000FF9260910140709102408091034090910D
:100870000440611571058105910521F464E279ED6B
:100880008BE597E02DE133EF41E050E037D04901AF
:100890005A019B01AC01A7EAB1E44CD06B017C0189
:1008A000ACEEB4EFA501940151D0C60ED71EE81EE0
:1008B000F91EF7FE06C081E0C81AD108E10880E8F9
:1008C000F80AC0920140D0920240E0920340F092B8
:1008D0000440C701B6019F77FF90EF90DF90CF9063
:1008E000BF90AF909F908F90089560930140709358
:1008F000024080930340909304400895052E97FB97
:1009000016F400940FD057FD05D024D007FC02D078
:1009100046F408C050954095309521953F4F4F4F74
:100920005F4F089590958095709561957F4F8F4F9B
:100930009F4F089531D0A59F900DB49F900DA49F17
:10094000800D911D11240895B7FFF4CFF3DF821BB2
:10095000930B0895A1E21A2EAA1BBB1BFD010DC02B
:10096000AA1FBB1FEE1FFF1FA217B307E407F5075F
:1009700020F0A21BB30BE40BF50B661F771F881F3B
:10098000991F1A9469F760957095809590959B01D1
:10099000AC01BD01CF010895A29FB001B39FC0017A
:1009A000A39F700D811D1124911DB29F700D811D9B
:1009B0001124911D08955058BB27AA270ED048C175
:1009C00039D130F03ED120F031F49F3F11F41EF4C4
:1009D0002EC10EF4E095E7FB24C1E92F4AD180F344
:1009E000BA17620773078407950718F071F49EF52C
:1009F00062C10EF4E0950B2EBA2FA02D0B01B901A8
:100A000090010C01CA01A0011124FF27591B99F084
:100A1000593F50F4503E68F11A16F040A22F232F90
:100A2000342F4427585FF3CF469537952795A795E0
:100A3000F0405395C9F77EF41F16BA0B620B730B87
:100A4000840BBAF09150A1F0FF0FBB1F661F771FF8
:100A5000881FC2F70EC0BA0F621F731F841F48F4AD
:100A6000879577956795B795F7959E3F08F0B3CF33
:100A70009395880F08F09927EE0F9795879508951D
:100A80000CD0E6C0DED040F0D5D030F021F45F3F8E
:100A900019F0C7C0511110C1CAC0EBD098F3992307
:100AA000C9F35523B1F3951B550BBB27AA27621732
:100AB0007307840738F09F5F5F4F220F331F441F77
:100AC000AA1FA9F333D00E2E3AF0E0E830D09150AF
:100AD0005040E695001CCAF729D0FE2F27D0660F9C
:100AE000771F881FBB1F261737074807AB07B0E8DB
:100AF00009F0BB0B802DBF01FF2793585F4F2AF0F1
:100B00009E3F510568F08DC0D7C05F3FECF3983E23
:100B1000DCF3869577956795B795F7959F5FC9F74D
:100B2000880F911D9695879597F90895E1E0660FD6
:100B3000771F881FBB1F621773078407BA0720F04F
:100B4000621B730B840BBA0BEE1F88F7E0950895B8
:100B500098D088F09F5790F0B92F9927B751A0F0FF
:100B6000D1F0660F771F881F991F1AF0BA95C9F741
:100B700012C0B13081F09FD0B1E008959CC0672FC2
:100B8000782F8827B85F39F0B93FCCF386957795F1
:100B90006795B395D9F73EF49095809570956195DA
:100BA0007F4F8F4F9F4F0895E89409C097FB3EF405
:100BB00090958095709561957F4F8F4F9F4F9923AA
:100BC000A9F0F92F96E9BB279395F6958795779528
:100BD0006795B795F111F8CFFAF4BB0F11F460FFE8
:100BE0001BC06F5F7F4F8F4F9F4F16C0882311F040
:100BF00096E911C0772321F09EE8872F762F05C054
:100C0000662371F096E8862F70E060E02AF09A95EE
:100C1000660F771F881FDAF7880F9695879597F9E3
:100C2000089597F99F6780E870E060E008959FEF6E
:100C300080EC089500240A94161617061806090673
:100C4000089500240A941216130614060506089542
:100C5000092E0394000C11F4882352F0BB0F40F4CA
:100C6000BF2B11F460FF04C06F5F7F4F8F4F9F4F0A
:100C7000089557FD9058440F551F59F05F3F71F08C
:100C80004795880F97FB991F61F09F3F79F08795F3
:100C90000895121613061406551FF2CF4695F1DF7C
:100CA00008C0161617061806991FF1CF869571050C
:100CB000610508940895E894BB2766277727CB0140
:100CC00097F908950BD0C4CFB5DF28F0BADF18F03C
:100CD000952309F0A6CFABCF1124EECFCADFA0F346
:100CE000959FD1F3950F50E0551F629FF001729FC1
:100CF000BB27F00DB11D639FAA27F00DB11DAA1FE0
:100D0000649F6627B00DA11D661F829F2227B00D2C
:100D1000A11D621F739FB00DA11D621F839FA00DB7
:100D2000611D221F749F3327A00D611D231F849F07
:100D3000600D211D822F762F6A2F11249F5750405E
:100D40008AF0E1F088234AF0EE0FFF1FBB1F661FF9
:100D5000771F881F91505040A9F79E3F510570F0B2
:100D600060CFAACF5F3FECF3983EDCF38695779592
:100D70006795B795F795E7959F5FC1F7FE2B880FAD
:100D8000911D9695879597F908959F939AD00F9006
:100D900007FCEE5FBDC09F939F77FEE380319F0706
:100DA00020F4E4EFF0E07BD020C0906841E050E018
:100DB000C9D024D09F938F937F936F9320E030E02E
:100DC00040E85FE3F9DD2F913F914F915F919F9351
:100DD0008F937F936F9360E070E080E89FE3EBDD9B
:100DE0002F913F914F915F914BDE0F9007FC9058F0
:100DF000089519F40EF015CF5ECF19CF42DFC8F376
:100E00009638C0F707F80F92E8942BE33AEA48EBDC
:100E10005FE766DF0F920F920F924DB75EB70F92AA
:100E2000C5D0E3E0F1E016D04F915F91EF91FF91D3
:100E3000E595EE1FFF1F49F0FE57E0684427EE0FCF
:100E4000441FFA95E1F74195550B7CD00F9007FEB2
:100E500070C00895DF93CF931F930F93FF92EF928B
:100E6000DF927B018C01689405C0DA2EEF0136DF3A
:100E7000FE01E894A5912591359145915591AEF3E8
:100E8000EF01ABDDFE019701A801DA9479F7DF905D
:100E9000EF90FF900F911F91CF91DF9108959F9355
:100EA0008F937F936F93FF93EF939B01AC010ADFC6
:100EB000EF91FF91CFDF2F913F914F915F9102CF43
:100EC000B6CEDFDEE8F3E894E0E0BB279F57F0F012
:100ED0002AED3FE049EC06C0EE0FBB0F661F771FFF
:100EE000881F28F0B23A62077307840728F0B25AC5
:100EF000620B730B840BE3959A9572F7803830F48C
:100F00009A95BB0F661F771F881FD2F7904883C042
:100F1000EF93E0FF06C0A2EA2AED3FE049EC5FEB69
:100F20005CDD96DE0F90039401FC9058EBE2F1E05B
:100F3000B6CF9B01AC0160E070E080E89FE3A0CDFC
:100F400070CE67C09EDEE8F39923D9F3940F511D4C
:100F5000BBF39150504094F059F0882332F0660F63
:100F6000771F881F91505040C1F79E3F510544F7AD
:100F7000880F911D9695879597F908955F3FACF07E
:100F8000983E9CF0BB27869577956795B79508F4B2
:100F9000B1609395C1F7BB0F58F711F460FFE8CF2C
:100FA0006F5F7F4F8F4F9F4FE3CF86CEFA01DC01FB
:100FB000AA0FBB1F9B01AC01BF5728F42227332780
:100FC000442750781FC0B75188F4AB2F00244695B2
:100FD00037952795011CA395D2F3002069F0220FC5
:100FE000331F441FB395DAF30DD0E5CC61307105A2
:100FF000A0E88A07B94630F49B01AC016627772741
:1010000088279078309621F0208331834283538360
:1010100008959F3F31F0915020F48795779567951B
:10102000B795880F911D9695879597F90895F8942F
:02103000FFCFF0
:101032005A0100000000005C427B1469429A998ABE
:10104200420AD79242ECD1A442B89EAE420000C4FA
:10105200420000DC427B14E9420A970A437BD41225
:10106200435CCF2443299C2E430000444300005C90
:10107200437B1469430A978A437BD49243A4D0A446
:1010820043719DAE430000C44300070108020703F9
:0A1092000E000702010F080C070012
:00000001FF
