:10000000A4C00000D3C00000D1C00000CFC00000D9
:10001000CDC00000CBC00000C9C00000C7C00000B8
:10002000C5C00000C3C00000C1C00000BFC00000C8
:10003000BDC00000BBC000001AC10000B7C0000076
:10004000B5C00000B3C00000B1C00000AFC00000E8
:10005000ADC00000ABC00000A9C00000A7C00000F8
:10006000A5C00000A3C00000A1C000009FC0000008
:100070009DC000009BC0000099C00000DCC00000D3
:1000800095C0000093C0000091C000008FC0000028
:100090008DC000008BC0000089C0000087C0000038
:1000A00085C0000083C0000081C000007FC0000048
:1000B0007DC000007BC0000079C0000077C0000058
:1000C00075C0000073C0000071C000006FC0000068
:1000D0006DC000006BC0000069C0000067C0000078
:1000E00065C0000063C0000061C000005FC0000088
:1000F0005DC0000005A84CCDB2D44EB93836A90277
:100100000C50B9918688083CA6AAAA2ABE00000015
:10011000803F028988083EABAAAAAABE00000080E0
:100120003F07634236B79BD8A71A39685618AEBA4C
:10013000AB558C1D3CB7CC5763BD6DEDFD753EF6E0
:10014000177231BF000000803F0011241FBECFEFA7
:10015000CDBFDFE7DEBF809140008093400081117A
:1001600005C098ED21E094BF209341008CBB80E353
:100170008093011088ED90EB84BF9093011010E400
:10018000A0E0B0E4E8E8F1E100E00BBF02C00790B6
:100190000D92AC30B107D9F722E6ACE0B0E401C073
:1001A0001D92AE31B207E1F77DD1ECC729CF9FB7E1
:1001B000F894E0912A0BF0912B0B8091260B209163
:1001C0001A6230911B6240911C6250911D629FBF68
:1001D00080FF08C0CF018827892B21F42F5F3F4F74
:1001E0004F4F5F4F0F01169407941694079416947F
:1001F000079416940794F00116940794E00DF11DEE
:1002000016940794102C169401181694010C169449
:1002100001181694010C1694011816941694010CEA
:100220001124E019F109A8EEB3E0F9D36E0F7F1F96
:10023000811D911D0895EF93FF93EAE1F2E68F93FC
:100240008FB78F9380818F5F808381818F4F818370
:1002500082818F4F828383818F4F838381E080935C
:10026000260B8F918FBF8F91FF91EF9118951F9261
:100270000F920FB60F9211240BB60F92CF92DF920E
:10028000EF92FF922F933F934F935F936F937F93E0
:100290008F939F93AF93BF93CF93EF93FF9320914F
:1002A00003403091044080910E6090910F60820F66
:1002B000931F80930E6090930F6020910E60309199
:1002C0000F6080910540909106402817390740F053
:1002D000809118629091196280930E6090930F60E4
:1002E00080910E6090910F60892F9927A0910E60E8
:1002F000B0910F60FC01EE0FFF1FE05FFF494081EE
:1003000051818F5FE82FF0E0EE0FFF1FE05FFF49A4
:1003100020813181B0E02417350708F4A5C0241BE3
:10032000350BAFD3672F782F892F9927460F571F8B
:1003300080910E6090910F60892F9927A0910540C0
:10034000B09106408830910508F09AC0DC0185E044
:10035000AA0FBB1F8A95E1F79A0150E040E03250A6
:10036000410951095CD340910C6050910D6020917E
:100370000040C0910040672F782F892F992787FD73
:100380009A957E5FA4E6B0E0A21BB1099B01F4D66A
:100390006B017C01440F551FFA01E45FFF4BA08104
:1003A000B1812C2F30E06DD36C0D7D1D8E1D9F1DF6
:1003B00024E630E040E050E042D3E0910C60F09160
:1003C0000D60EE0FFF1FE45FFF4B208331838091B0
:1003D0000C6090910D60019680930C6090930D607D
:1003E00060910C6070910D6080910140909102408D
:1003F0006817790738F480910C6090910D60811531
:10040000904120F010920C6010920D60211584E054
:10041000380710F02FEF33E0822F8295880F880F76
:10042000807C8093A2063695279536952795209354
:10043000A30681E08093060BFF91EF91CF91BF91CE
:10044000AF919F918F917F916F915F914F913F916C
:100450002F91FF90EF90DF90CF900F900BBE0F90F9
:100460000FBE0F901F901895CA01821B930B9C0121
:1004700008D3672F782F892F9927461B570B58CF02
:10048000AB2FBB27A81BB90BA830B10540F4BA2F7E
:10049000AA27F3E0B695A795FA95E1F75DCFA0E01E
:1004A000B1E05ACF88ED94E284BF9093680021E0D8
:1004B0002093030A8EEF8093260A8093270A9BE0FD
:1004C0009093000A2093430A8093660A8093670AF8
:1004D0009093400A32E03093E6059093E70537E0C9
:1004E0003093010B80930C0B10920D0B95E09093C1
:1004F000000B3093110B80931C0B10921D0B9093EB
:10050000100B3093310B80933C0B10923D0B90936A
:10051000300B4FEF5FE04093AA0B5093AB0B80E89A
:100520008093820B1092810B4BEF53E04093AE0B04
:100530005093AF0B81E78093800B1092E805E0E0C9
:10054000F6E092838EE0858380E68383908385E561
:1005500082953091B200387F8770832B8093B200F0
:100560004FED5EE240932C0B50932D0B2093250B07
:100570001092210B83E08093200B789484E0809389
:1005800070049093B00020930006809302061092AE
:10059000080620930A0680910D0680FFFCCF60912B
:1005A00010067091110690E080E0611571058105DB
:1005B000910509F00FD2C0E1D0E6F12CE12C48EE14
:1005C000442E43E0542E612C712CB7010F2C000CEB
:1005D000880B990B68D320E030E040E85BE32CD433
:1005E0009B01AC015ED22BED3FE049E450E424D402
:1005F0004B015C0124EA30E74DE250E41DD47FD486
:1006000020E030E040E650E417D4A501940149D23F
:1006100076D44B015C0192D1A3019201E4D143D382
:1006200020E030E04AEF53E4A3D220E030E040E89D
:100630005FE336D22DEC3CEC4CE45EE3FDD320E0EE
:1006400030E040E85FE32DD2A5019401F5D35DD4FD
:1006500020E030E84FEF53E4EFD320E030E040E01B
:1006600054E41FD2F2D2699379932FEFE21AF20A7F
:10067000E11481E0F80609F0A8CF84E080937604C5
:1006800090E89093B20091EC9093A006809372044E
:1006900081E08093000797E19093020795E09093A3
:1006A00010079FE79093140792E29093130710921C
:1006B000000B1092010B2FE132E020930C0B3093D2
:1006C0000D0B8093050B8093000B3CE8832E3AE0E2
:1006D000932EA12CB12C32D120EC30E040E050E040
:1006E00082D1605C7F4F8F4F9F4F762F662760933C
:1006F00005407093064022D120E130E040E050E018
:1007000072D1762F662760931862709319622AE07F
:1007100037ED43E25CE36091146270911562809161
:10072000166290911762BDD16B017C012BED3FE009
:1007300049EC50E47DD318160CF497C0C0921462B3
:10074000D0921562E0921662F09217626091146284
:10075000709115628091166290911762D0D320E05B
:1007600030E044E352E468D32B013C012AE037ED4A
:1007700043EA5DE3609110627091116280911262B0
:10078000909113628ED16B017C012BED3FE049EC1F
:1007900050E44ED318160CF478C0C0921062D09278
:1007A0001162E0921262F092136260911062709195
:1007B00011628091126290911362D7D16B017C011A
:1007C000BDD028E630E040E050E00DD1685E7F4FBC
:1007D0008F4F9F4F90E080E064D2A301920161D1DE
:1007E00034D285E0660F771F8A95E1F76093034066
:1007F0007093044020E030E040E850E4C701B601C7
:100800001BD31ED26451704F60930140709302401D
:1008100095D028E030E040E050E0E5D0665A6093A3
:1008200000408CD0A5019401DED06B017C0120E258
:10083000C20E23E0D21EE11CF11CB9DC3B01C11445
:10084000D104E104F10409F446CFB1DC661977095B
:10085000683E7340A0F321E0C21AD108E108F10814
:1008600088E1681A8CEF780AEACF2BED3FE049EC7B
:1008700050E4C701B60114D16093146270931562FD
:10088000809316629093176261CF2BED3FE049ECA5
:1008900050E4C701B60104D16093106270931162F5
:1008A000809312629093136280CF8F929F92AF9247
:1008B000BF92CF92DF92EF92FF92CF93DF93EC0142
:1008C000688179818A819B81611571058105910516
:1008D00021F464E279ED8BE597E02DE133EF41E01F
:1008E00050E081D049015A019B01AC01A7EAB1E473
:1008F00096D06B017C01ACEEB4EFA50194019BD0C6
:10090000C60ED71EE81EF91EF7FE06C081E0C81A03
:10091000D108E10880E8F80AC882D982EA82FB821D
:10092000C701B6019F77DF91CF91FF90EF90DF90E5
:10093000CF90BF90AF909F908F9008958F929F928D
:10094000AF92BF92CF92DF92EF92FF9260910740F9
:10095000709108408091094090910A40611571059D
:100960008105910521F464E279ED8BE597E02DE1B5
:1009700033EF41E050E037D049015A019B01AC010F
:10098000A7EAB1E44CD06B017C01ACEEB4EFA50159
:10099000940151D0C60ED71EE81EF91EF7FE06C000
:1009A00081E0C81AD108E10880E8F80AC09207403F
:1009B000D0920840E0920940F0920A40C701B60187
:1009C0009F77FF90EF90DF90CF90BF90AF909F9078
:1009D0008F9008956093074070930840809309407A
:1009E00090930A400895052E97FB16F400940FD0BB
:1009F00057FD05D024D007FC02D046F408C050951E
:100A00004095309521953F4F4F4F5F4F08959095FA
:100A10008095709561957F4F8F4F9F4F089531D08E
:100A2000A59F900DB49F900DA49F800D911D112442
:100A30000895B7FFF4CFF3DF821B930B0895A1E273
:100A40001A2EAA1BBB1BFD010DC0AA1FBB1FEE1F48
:100A5000FF1FA217B307E407F50720F0A21BB30B93
:100A6000E40BF50B661F771F881F991F1A9469F70F
:100A700060957095809590959B01AC01BD01CF016B
:100A80000895A29FB001B39FC001A39F700D811D67
:100A90001124911DB29F700D811D1124911D089587
:100AA0005058BB27AA270ED078C141D130F046D18B
:100AB00020F031F49F3F11F41EF436C10EF4E0959E
:100AC000E7FB2CC1E92F8BD180F3BA1762077307BC
:100AD0008407950718F071F49EF5A3C10EF4E09514
:100AE0000B2EBA2FA02D0B01B90190010C01CA01E8
:100AF000A0011124FF27591B99F0593F50F4503E93
:100B000068F11A16F040A22F232F342F4427585F84
:100B1000F3CF469537952795A795F0405395C9F79C
:100B20007EF41F16BA0B620B730B840BBAF0915054
:100B3000A1F0FF0FBB1F661F771F881FC2F70EC0F3
:100B4000BA0F621F731F841F48F4879577956795C6
:100B5000B795F7959E3F08F0B3CF9395880F08F0AF
:100B60009927EE0F979587950895F0D0E39526C1C4
:100B70000CD013C1E3D040F0DAD030F021F45F3F65
:100B800019F0CCC051114EC1CFC029D198F399238F
:100B9000C9F35523B1F3951B550BBB27AA27621741
:100BA0007307840738F09F5F5F4F220F331F441F86
:100BB000AA1FA9F333D00E2E3AF0E0E830D09150BE
:100BC0005040E695001CCAF729D0FE2F27D0660FAB
:100BD000771F881FBB1F261737074807AB07B0E8EA
:100BE00009F0BB0B802DBF01FF2793585F4F2AF000
:100BF0009E3F510568F092C015C15F3FECF3983EEF
:100C0000DCF3869577956795B795F7959F5FC9F75C
:100C1000880F911D9695879597F90895E1E0660FE5
:100C2000771F881FBB1F621773078407BA0720F05E
:100C3000621B730B840BBA0BEE1F88F7E0950895C7
:100C400004D06894B111EEC00895D1D088F09F57B8
:100C500090F0B92F9927B751A0F0D1F0660F771F08
:100C6000881F991F1AF0BA95C9F712C0B13081F0E8
:100C7000D8D0B1E00895D5C0672F782F8827B85F06
:100C800039F0B93FCCF3869577956795B395D9F749
:100C90003EF490958095709561957F4F8F4F9F4F53
:100CA0000895E89409C097FB3EF49095809570955F
:100CB00061957F4F8F4F9F4F9923A9F0F92F96E9A8
:100CC000BB279395F695879577956795B795F1111D
:100CD000F8CFFAF4BB0F11F460FF1BC06F5F7F4FBA
:100CE0008F4F9F4F16C0882311F096E911C07723CC
:100CF00021F09EE8872F762F05C0662371F096E8D5
:100D0000862F70E060E02AF09A95660F771F881FA3
:100D1000DAF7880F9695879597F9089597F99F6761
:100D200080E870E060E008959FEF80EC0895002473
:100D30000A941616170618060906089500240A9440
:100D400012161306140605060895EECF50D0E8F3E8
:100D5000E894E0E0BB279F57F0F02AED3FE049EC34
:100D600006C0EE0FBB0F661F771F881F28F0B23A30
:100D700062077307840728F0B25A620B730B840B67
:100D8000E3959A9572F7803830F49A95BB0F661FF9
:100D9000771F881FD2F790483DC1092E0394000C9D
:100DA00011F4882352F0BB0F40F4BF2B11F460FF05
:100DB00004C06F5F7F4F8F4F9F4F0895EF93E0FF09
:100DC00006C0A2EA2AED3FE049EC5FEB7BDEE5DFFF
:100DD0000F90039401FC9058E4EFF0E04CC157FDF4
:100DE0009058440F551F59F05F3F71F04795880F99
:100DF00097FB991F61F09F3F79F087950895121630
:100E000013061406551FF2CF4695F1DF08C01616DB
:100E100017061806991FF1CF86957105610508948C
:100E20000895E894BB2766277727CB0197F90895A3
:100E3000CBD008F48FEF08950BD0AFCF78DF28F038
:100E40007DDF18F0952309F069CF6ECF1124EACF2A
:100E5000C6DFA0F3959FD1F3950F50E0551F629F19
:100E6000F001729FBB27F00DB11D639FAA27F00D03
:100E7000B11DAA1F649F6627B00DA11D661F829F2A
:100E80002227B00DA11D621F739FB00DA11D621F0F
:100E9000839FA00D611D221F749F3327A00D611D2C
:100EA000231F849F600D211D822F762F6A2F11240E
:100EB0009F5750408AF0E1F088234AF0EE0FFF1F61
:100EC000BB1F661F771F881F91505040A9F79E3F98
:100ED000510570F023CFA6CF5F3FECF3983EDCF3D3
:100EE000869577956795B795F795E7959F5FC1F7D5
:100EF000FE2B880F911D9695879597F908959F93DE
:100F000025DF0F9007FCEE5F59CF9F939F77FEE39D
:100F100080319F0720F4E2E1F1E0ADD020C090687D
:100F200041E050E0C2D024D09F938F937F936F9382
:100F300020E030E040E85FE3B4DD2F913F914F9136
:100F40005F919F938F937F936F9360E070E080E851
:100F50009FE3A6DD2F913F914F915F9109DE0F90A6
:100F600007FC9058089519F40EF0D8CE5ACFDCCE75
:100F70003EDFC8F39638C0F707F80F92E8942BE3EA
:100F80003AEA48EB5FE766DF0F920F920F924DB798
:100F90005EB70F92BED0E1E2F1E048D04F915F9191
:100FA000EF91FF91E595EE1FFF1F49F0FE57E068B6
:100FB0004427EE0F441FFA95E1F74195550B75D084
:100FC0000F9007FE69C00895990F0008550FAA0BEE
:100FD000E0E8FEEF16161706E807F907C0F012164C
:100FE0001306E407F50798F0621B730B840B950B4F
:100FF00039F40A2661F0232B242B252B21F40895A4
:101000000A2609F4A140A6958FEF811D811D089540
:101010009F3F31F0915020F4879577956795B7956C
:10102000880F911D9695879597F90895DF93CF9333
:101030001F930F93FF92EF92DF927B018C016894D4
:1010400005C0DA2EEF0104DFFE01E894A591259199
:10105000359145915591AEF3EF0134DDFE019701D5
:10106000A801DA9479F7DF90EF90FF900F911F912C
:10107000CF91DF9108959F938F937F936F93FF9309
:10108000EF939B01AC01D8DEEF91FF91CFDF2F9161
:101090003F914F915F91D0CE9B01AC0160E070E039
:1010A00080E89FE365CD3ACEB3CFA1DEE8F3992384
:1010B000D9F3940F511DBBF39150504094F059F067
:1010C000882332F0660F771F881F91505040C1F778
:1010D0009E3F510544F7880F911D9695879597F986
:1010E00008955F3FACF0983E9CF0BB2786957795BE
:1010F0006795B79508F4B1609395C1F7BB0F58F7A2
:1011000011F460FFE8CF6F5F7F4F8F4F9F4FE3CFAA
:1011100089CEFA01DC01AA0FBB1F9B01AC01BF57AE
:1011200028F422273327442750781FC0B75188F46A
:10113000AB2F0024469537952795011CA395D2F334
:10114000002069F0220F331F441FB395DAF30DD04E
:10115000A7CC61307105A0E88A07B94630F49B013D
:10116000AC016627772788279078309621F0208376
:10117000318342835383089584DCB7FF0895821B33
:08118000930B0895F894FFCFD2
:0C1188005F0010000100200100000000CA
:00000001FF
