:1000000088C00000B8C00000B6C00000B4C0000046
:10001000B2C00000B0C00000AEC00000ACC0000024
:10002000AAC00000A8C00000A6C00000A4C0000034
:10003000A2C00000A0C00000EEC200009CC00000F2
:100040009AC0000098C0000096C0000094C0000054
:1000500092C0000090C000008EC000008CC0000064
:100060008AC0000088C0000086C0000084C0000074
:1000700082C0000080C000007EC00000B0C200004E
:100080007AC0000078C0000076C0000074C0000094
:1000900072C0000070C000006EC000006CC00000A4
:1000A0006AC0000068C0000066C0000064C00000B4
:1000B00062C0000060C000005EC000005CC00000C4
:1000C0005AC0000058C0000056C0000054C00000D4
:1000D00052C0000050C000004EC000004CC00000E4
:1000E0004AC0000048C0000046C0000044C00000F4
:1000F00042C0000005A84CCDB2D44EB93836A90292
:100100000C50B9918688083CA6AAAA2ABE00000015
:10011000803F11241FBECFEFCDBFDFE7DEBF809150
:10012000400080934000811105C098ED21E094BF0C
:10013000209341008CBB80E38093011088ED90EB0D
:1001400084BF9093011010E4A0E0B0E4EAE9F7E185
:1001500000E00BBF02C007900D92A630B107D9F79F
:1001600026E4A6E0B0E401C01D92A539B207E1F78C
:10017000D9D20C94CB0B44CFE0E0F82FFF0FFF0F48
:100180009F01220F232F221F330B3195C90199277D
:10019000F7FD1DC0880F991FFC01E85FFD4B8081B2
:1001A0009181FA01808391833395C9019927313078
:1001B000A9F4E0E0F1E0E81BF90BEE0FFF1FE85FA8
:1001C000FD4B80819181FB01808391830895E0E064
:1001D000F1E0E81BF90BEE0FFF1FDFCF880F991F2F
:1001E000FC01E85FFD4B808191819195819591099A
:1001F000EACF2F923F924F925F926F927F928F92AF
:100200009F92AF92BF92CF92DF92EF92FF920F93A5
:100210001F93CF93DF93CDB7DEB76A97CDBFDEBF15
:100220001C019395A6E0B1E4F101119211921D9287
:100230001D92E817F907C9F7B6E0CB2EB0E4DB2E24
:1002400006E011E4710180E8482E512C612C712CDC
:10025000AA24A394B12C9501220F331F2D833E8332
:10026000F901E15FF94B8080918036E083169104BB
:100270000CF450C0F60184819581A681B781840D6C
:10028000951DA61DB71D9370AA27BB278483958350
:10029000A683B783AE014F5F5F4FBE016D5F7F4F97
:1002A0006BDFAB81BC8194010E94BF0BEFE09595A1
:1002B000879577956795EA95D1F7D70112966D9353
:1002C0007C931397A981BA810E94BF0BFFE095959B
:1002D000879577956795FA95D1F7F80162837383CF
:1002E000D70112962D913C918D819E81919581959A
:1002F00091099395F101E80FF91F208331838A5FFB
:100300009E4BF80122813381319521953109DC0121
:100310002D933C93BFEFAB1ABB0AE4E0CE0ED11C89
:10032000F0E84F0E511C611C711C22E0E20EF11C22
:100330000E5F1F4F411430E253066104710409F04F
:100340008ACF76E0A72E71E4B72ED10130E020E00D
:1003500041E050E006E010E070E060E090E080E016
:100360007A01062E02C0EE0CFF1C0A94E2F7E2228C
:10037000F322EF2861F07801E61AF70AFA0102C0C9
:10038000EE0FFF1FEA94E2F77F018E2B9F296F5F2C
:100390007F4F6730710521F728173907F4F4ED9086
:1003A000FC901197880F991FB101680F791FFB010D
:1003B000C080D180CD92DC921197E082F182F5016C
:1003C000608171818A5F9E4BFC01E080F180F501C4
:1003D000E082F182FC01608371832F5F3F4F1296B0
:1003E000F2E0AF0EB11C2038310509F0B5CF87E03F
:1003F00090E08D879E8701E010E03801660C771C45
:1004000080E890E0B3010E94AC0B698F7A8F6301A2
:10041000CC0CDD1CCF8AD88E26E031E42F833887C0
:1004200029863A861B861C86512C412CAE014F5FD3
:100430005F4FBE016D5F7F4F8B859C859DDEEB819D
:10044000FC81EF87F88BC980DA80CB8ADC8AEF8168
:10045000F88549855A854D825E826A01C60CD71C93
:10046000D601ED90FC909F01260D371D2D8B3E8B04
:10047000D9010D90BC91A02DA98BBA8B9701AF85A6
:10048000B8890E94BF0B4B015C0129893A89AB896D
:10049000BC890E94BF0B861A970AA80AB90A8FE086
:1004A000B594A794979487948A95D1F7DA018D91A2
:1004B0009C9188199909D6018D939C939701AB89DA
:1004C000BC890E94BF0B6B017C012F853889A989EB
:1004D000BA890E94BF0BC60ED71EE81EF91E9FE008
:1004E000F594E794D794C7949A95D1F78081918138
:1004F0008C199D09AD89BE898D939C93DA018D91EC
:100500009C911197880E991E8D929C9260817181A9
:10051000C60ED71EC082D182CD80DE80C60CD71C0D
:10052000CD82DE82CF88D88C4C0D5D1DEC0DFD1D7B
:100530002D813E81203831050CF48FCF3FEF431AD7
:10054000530ACB84DC84298D3A8DC20ED31ECB8610
:10055000DC8689859A85029689879A87AF81B885D6
:100560001296AF83B8874016510609F05FCF2D85EC
:100570003E85215031092D873E878301232B09F0C9
:100580003CCF6A96CDBFDEBFDF91CF911F910F9117
:10059000FF90EF90DF90CF90BF90AF909F908F90A3
:1005A0007F906F905F904F903F902F900895CF92E3
:1005B000DF92EF92FF926B017C01C114D104E10440
:1005C000F10431F069D5A7019601BBD56B017C011F
:1005D000C701B601FF90EF90DF90CF900895EF93A1
:1005E000FF93E1E9F6E48F938FB78F9380818F5F5C
:1005F000808381818F4F818382818F4F828383812A
:100600008F4F838381E08093260B8F918FBF8F91D3
:10061000FF91EF9118951F920F920FB60F92112430
:100620000BB60F922F934F935F936F937F938F939C
:100630009F93AF93BF93EF93FF9380910A46E0910E
:100640000642F0910742EE0FFF1F811164C0E65F82
:10065000FB4B8081918195958795959587959E5FB8
:1006600097FD5CC0092E000CAA0BBB0B811524E082
:100670009207A105B10524F08FEF93E0A0E0B0E070
:10068000AC01BD0126E0440F551F661F771F2A9558
:10069000D1F74093A20642E0B595A7959795879527
:1006A0004A95D1F78093A306809106429091074224
:1006B0000196809306429093074280910642909162
:1006C00007428038910594F010920642109207423A
:1006D0008091004081110AC090910A4681E09111F9
:1006E00080E080930A4681E08093004081E080931F
:1006F000060BFF91EF91BF91AF919F918F917F91E9
:100700006F915F914F912F910F900BBE0F900FBE85
:100710000F901F901895E65FFA4B9BCF80E090E01A
:10072000DC01AECFCF93DF93CDB7DEB72897CDBF37
:10073000DEBF88ED94E284BF9093680021E02093AF
:10074000030A8EEF8093260A8093270A9BE09093FA
:10075000000A2093430A8093660A8093670A909365
:10076000400A32E03093E6059093E70537E0309396
:10077000010B80930C0B10920D0B95E09093000BE6
:100780003093110B80931C0B10921D0B9093100B48
:100790003093310B80933C0B10923D0B9093300BB8
:1007A0004FEF5FE04093AA0B5093AB0B80E8809330
:1007B000820B1092810B4BEF53E04093AE0B5093A2
:1007C000AF0B81E78093800B1092E805E0E0F6E044
:1007D00092838EE0858380E68383908385E582958E
:1007E0003091B200387F8770832B8093B2004FED39
:1007F0005EE240932C0B50932D0B2093250B10920F
:10080000210B83E08093200B789484E08093700424
:100810009093B00020930006809302061092080681
:1008200020930A0680910D0680FFFCCF6091100690
:100830007091110690E080E06115710581059105C8
:1008400009F076D408E012E419821A8229813A81EB
:10085000B901330F880B990BD1D52BED3FE049EC53
:1008600050E45CD620E030E040E85AE357D6B9D6F1
:1008700020E03EEF4FEF56E451D68DD5F80161935D
:1008800071938F0129813A812F5F3F4F29833A83EA
:1008900021153140D9F68FEF9FE78093084490935C
:1008A000094484E08093760490E89093B20091EC40
:1008B0009093A0068093720481E08093000797E1F3
:1008C0009093020795E0909310079FE79093140789
:1008D00092E2909313071092000B1092010B27EEF7
:1008E00033E020930C0B30930D0B8093050B80931A
:1008F000000B80918F4690919046019680938F4691
:100900009093904668EE73E013D7449780F466E0C6
:1009100070E080E090E04BDE623009F4FBC208F04A
:100920008FC2662309F4B2C2613009F4D1C263E612
:1009300070E080E090E03BDE6F5F7F4F8F4F9F4F16
:1009400024E630E040E050E0FCD3CA01B90156D5BE
:1009500020910B4630910C4640910D4650910E4629
:100960004ED46B017C012BED3FE049EC50E4D2D535
:1009700018160CF435C3C0920B46D0920C46E09288
:100980000D46F0920E4680900B4690900C46A0903B
:100990000D46B0900E46C501B40123D620E030E0EC
:1009A00040E05FE3BBD520E030E040E05FE327D4E8
:1009B00020E030E040EA51E4B1D5EDD46B019B0179
:1009C0002B5F3F4F29833A8323E333E343E35FE322
:1009D000C501B401A3D505D620E030E040E05FE3D7
:1009E0009DD520E030E040E05FE309D420E030E036
:1009F00048E452E493D5CFD49B012C593F4F498111
:100A00005A81440F551F415F594B49835A83FA015C
:100A100080819181820F931F80839183F6013896A4
:100A2000EE0FFF1FE15FF94B4081518149835A83EB
:100A3000C90163E070E090D649815A81640F751F47
:100A4000608371835CE0C50ED11CF601EE0FFF1FC1
:100A5000E15FF94B4081518149835A83C90165E0C7
:100A600070E07AD629813A81620F731F60837183A7
:100A700013D328EE33E040E050E063D363307105D8
:100A8000810591050CF08FC06EE170E080E090E090
:100A90008EDD6B017C013AE0C30ED11CE11CF11C20
:100AA00068E070E080E090E082DD4B015C0142E0B4
:100AB000840E911CA11CB11C2DEFA4012403F00194
:100AC000259FF00D1124EB83FC83C401880F991F2F
:100AD00022273327281B390B29833A831601220C3E
:100AE000331CA1014C0D5D1D4D835E83512C412CA7
:100AF000712C612C10E000E026E930E0F301EC0DF0
:100B0000FD1D1E161F060CF03DC012161306D4F56F
:100B1000EE0FFF1FE15FF94B80819181820F931FE0
:100B200080839183F201E20DF31DE034F10594F42A
:100B3000EE0FFF1FE15FF94B408151814F835887D2
:100B4000C90163E070E008D64F815885640F751FB6
:100B500060837183ED81FE81E00FF11FE038F105C4
:100B60008CF4EE7FE15FF94B408151814F835887D0
:100B7000C90165E070E0F0D54F815885640F751F9D
:100B80006083718328523109EB81FC810E0F1F1F96
:100B90006818790849815A81440E551E263A5FEF3C
:100BA000350709F0ABCF80918F46909190468983AD
:100BB0009A836CED75E0BCD5449708F051C08981EB
:100BC0009A8162E370E0B4D5CB0169E170E0B0D501
:100BD0008C010B5F1F4FE981FA81BF0190E080E03B
:100BE0000BD420E030E048EC52E46DD3FAD420E09E
:100BF00030E048EC52E492D4CED368537F4F4DEFAF
:100C00005FEFFA01E00FF11FEE0FFF1FDF01A15FA1
:100C1000B94B8D919C919A0157FF04C0222733272D
:100C2000241B350BA4E0B0E0A21BB30BA69F9001E0
:100C3000A79F300DB69F300D112437FF02C02D5FE6
:100C40003F4F3595279535952795820F931FE15F87
:100C5000F94B808391834F5F5F4F4430510589F694
:100C600089819A8168EB7BE063D5C29708F056C012
:100C700029813A81B90190E080E0BED320E030E0E4
:100C80004AE754E420D39B01AC01B9D22BED3FE0FD
:100C900049E450E443D44B015C0141E050E0498316
:100CA0005A83E981FA81BF01FF0F880B990BA6D304
:100CB0002AE939E949E95EE331D4A50194019FD2DB
:100CC00090D409811A81000F111F015F194BF8019F
:100CD0002081318112161306BCF4E080F18020E0FF
:100CE00030E040E05FE31AD420E030E040E05FE332
:100CF00086D220E030E048EC51E410D44CD36E0DA5
:100D00007F1DF8016083718329813A812F5F3F4FF6
:100D100029833A832431310509F0C3CFBDD120EDB9
:100D200037E040E050E00DD2623071058105910559
:100D30000CF059C060E270E080E090E038DC6B01BC
:100D40007C0138E0C30ED11CE11CF11CC982DA829F
:100D500066E970E080E090E02ADCF601EE0FFF1F0C
:100D6000E15FF94B20813181AB01BC014E5C5F4FEB
:100D70006F4F7F4F420F531F408351836BE470E0EE
:100D800080E090E014DCF6013296EE0FFF1FE15F89
:100D9000F94B20813181AB01BC01475E5F4F6F4F42
:100DA0007F4F420F531F4083518349815A814B33F8
:100DB0005105CCF46DE270E080E090E0F8DB54E0A7
:100DC000C50ED11CF601EE0FFF1FE15FF94B20812C
:100DD0003181AB01BC01415F5F4F6F4F7F4F420FCD
:100DE000531F4083518330E020E0F901EE0FFF1FD5
:100DF000E15FF94B80819181181619066CF44081EE
:100E0000518163E6649FC001659F900D112464E6E3
:100E100070E0A2D4608371832F5F3F4F203431058F
:100E200021F780910040882309F463CD80910A4620
:100E30008111E6C08AE095E4DCD91092004059CDDA
:100E4000643009F4ABC008F487C082E090E06530FC
:100E500009F06DCDFC01EE0FFF1FE15FF94B208122
:100E60003181121613066CF4DC01AA0FBB1FAD5EB4
:100E7000B94B2D913C9140815181240F351F208326
:100E8000318301968233910529F751CD66E970E0EF
:100E900080E090E08CDB625A7E4F60931346709343
:100EA000144664E670E080E090E081DB66507F4F9E
:100EB000609317467093184662E370E080E090E01C
:100EC00076DB6A567F4F60931B4670931C462FCD8E
:100ED00066E970E080E090E06ADB645D7E4F6093DD
:100EE0001F467093204664E670E080E090E05FDB90
:100EF00066507F4F609327467093284662E370E008
:100F000080E090E054DB6C597F4F60932F467093E4
:100F100030460DCD68E770E080E090E048DB665039
:100F20007F4F609337467093384664E670E080E008
:100F300090E03DDB68537F4F60934146709342469B
:100F40006BE470E080E090E032DB6C597F4F60939F
:100F50004B4670934C46EBCC64E670E080E090E04A
:100F600026DB6A567F4F609355467093564660E580
:100F700070E080E090E01BDB6C597F4F60935F4630
:100F80007093604669E170E080E090E010DB6E5C99
:100F90007F4F6093694670936A46C9CC8AE090E0BF
:100FA00089839A836CE370E080E090E000DBE98164
:100FB000FA81EE0FFF1FE15FF94B20813181DC01E7
:100FC000CB014496A11DB11D820F931F8083918395
:100FD000E981FA813396E983FA837F9719F7A7CCE1
:100FE0002BED3FE049EC50E4C701B60107D1609317
:100FF0000B4670930C4680930D4690930E46C3CCDF
:101000008AE094E419CF8F929F92AF92BF92CF92D1
:10101000DF92EF92FF92CF93DF93EC0168817981A9
:101020008A819B81611571058105910521F464E236
:1010300079ED8BE597E02DE133EF41E050E081D091
:1010400049015A019B01AC01A7EAB1E496D06B01BA
:101050007C01ACEEB4EFA50194019BD0C60ED71E67
:10106000E81EF91EF7FE06C081E0C81AD108E108A3
:1010700080E8F80AC882D982EA82FB82C701B601F9
:101080009F77DF91CF91FF90EF90DF90CF90BF904F
:10109000AF909F908F9008958F929F92AF92BF9242
:1010A000CF92DF92EF92FF926091014070910240E7
:1010B000809103409091044061157105810591056F
:1010C00021F464E279ED8BE597E02DE133EF41E027
:1010D00050E037D049015A019B01AC01A7EAB1E4C5
:1010E0004CD06B017C01ACEEB4EFA501940151D062
:1010F000C60ED71EE81EF91EF7FE06C081E0C81A0C
:10110000D108E10880E8F80AC0920140D09202407C
:10111000E0920340F0920440C701B6019F77FF9030
:10112000EF90DF90CF90BF90AF909F908F900895F9
:101130006093014070930240809303409093044079
:101140000895052E97FB16F400940FD057FD05D097
:1011500024D007FC02D046F408C050954095309545
:1011600021953F4F4F4F5F4F089590958095709513
:1011700061957F4F8F4F9F4F089531D0A59F900D60
:10118000B49F900DA49F800D911D11240895B7FF69
:10119000F4CFF3DF821B930B0895A1E21A2EAA1B52
:1011A000BB1BFD010DC0AA1FBB1FEE1FFF1FA21717
:1011B000B307E407F50720F0A21BB30BE40BF50B14
:1011C000661F771F881F991F1A9469F7609570959D
:1011D000809590959B01AC01BD01CF010895A29F20
:1011E000B001B39FC001A39F700D811D1124911DFB
:1011F000B29F700D811D1124911D08955058BB2779
:10120000AA270ED04DC13ED130F043D120F031F4A9
:101210009F3F11F41EF433C10EF4E095E7FB29C1A2
:10122000E92F4FD180F3BA17620773078407950738
:1012300018F071F49EF567C10EF4E0950B2EBA2FED
:10124000A02D0B01B90190010C01CA01A0011124CC
:10125000FF27591B99F0593F50F4503E68F11A1678
:10126000F040A22F232F342F4427585FF3CF469509
:1012700037952795A795F0405395C9F77EF41F162B
:10128000BA0B620B730B840BBAF09150A1F0FF0FF5
:10129000BB1F661F771F881FC2F70EC0BA0F621FE1
:1012A000731F841F48F4879577956795B795F795D1
:1012B0009E3F08F0B3CF9395880F08F09927EE0F63
:1012C0009795879508950CD0EBC0E3D040F0DAD025
:1012D00030F021F45F3F19F0CCC0511115C1CFC0DF
:1012E000F0D098F39923C9F35523B1F3951B550B0F
:1012F000BB27AA2762177307840738F09F5F5F4FE9
:10130000220F331F441FAA1FA9F333D00E2E3AF029
:10131000E0E830D091505040E695001CCAF729D043
:10132000FE2F27D0660F771F881FBB1F2617370792
:101330004807AB07B0E809F0BB0B802DBF01FF27C2
:1013400093585F4F2AF09E3F510568F092C0DCC071
:101350005F3FECF3983EDCF3869577956795B795FC
:10136000F7959F5FC9F7880F911D9695879597F917
:101370000895E1E0660F771F881FBB1F6217730790
:101380008407BA0720F0621B730B840BBA0BEE1FA5
:1013900088F7E095089504D06894B111B5C0089518
:1013A00098D088F09F5790F0B92F9927B751A0F0A7
:1013B000D1F0660F771F881F991F1AF0BA95C9F7E9
:1013C00012C0B13081F09FD0B1E008959CC0672F6A
:1013D000782F8827B85F39F0B93FCCF38695779599
:1013E0006795B395D9F73EF4909580957095619582
:1013F0007F4F8F4F9F4F0895E89409C097FB3EF4AD
:1014000090958095709561957F4F8F4F9F4F992351
:10141000A9F0F92F96E9BB279395F69587957795CF
:101420006795B795F111F8CFFAF4BB0F11F460FF8F
:101430001BC06F5F7F4F8F4F9F4F16C0882311F0E7
:1014400096E911C0772321F09EE8872F762F05C0FB
:10145000662371F096E8862F70E060E02AF09A9596
:10146000660F771F881FDAF7880F9695879597F98B
:10147000089597F99F6780E870E060E008959FEF16
:1014800080EC089500240A9416161706180609061B
:10149000089500240A9412161306140605060895EA
:1014A000092E0394000C11F4882352F0BB0F40F472
:1014B000BF2B11F460FF04C06F5F7F4F8F4F9F4FB2
:1014C000089557FD9058440F551F59F05F3F71F034
:1014D0004795880F97FB991F61F09F3F79F087959B
:1014E0000895121613061406551FF2CF4695F1DF24
:1014F00008C0161617061806991FF1CF86957105B4
:10150000610508940895E894BB2766277727CB01E7
:1015100097F908956CD008F48FEF08950BD0C0CFE1
:10152000B1DF28F0B6DF18F0952309F0A2CFA7CFDE
:101530001124EACFC6DFA0F3959FD1F3950F50E0B9
:10154000551F629FF001729FBB27F00DB11D639F75
:10155000AA27F00DB11DAA1F649F6627B00DA11D1B
:10156000661F829F2227B00DA11D621F739FB00DC1
:10157000A11D621F839FA00D611D221F749F332731
:10158000A00D611D231F849F600D211D822F762FCA
:101590006A2F11249F5750408AF0E1F088234AF0C7
:1015A000EE0FFF1FBB1F661F771F881F9150504013
:1015B000A9F79E3F510570F05CCFA6CF5F3FECF3DB
:1015C000983EDCF3869577956795B795F795E795FF
:1015D0009F5FC1F7FE2B880F911D9695879597F910
:1015E00008959F9329D00F9007FCEE5F4CC0990F90
:1015F0000008550FAA0BE0E8FEEF16161706E807DD
:10160000F907C0F012161306E407F50798F0621BFD
:10161000730B840B950B39F40A2661F0232B242BD2
:10162000252B21F408950A2609F4A140A6958FEFF1
:10163000811D811D089523CF4CDFE8F3E894E0E09D
:10164000BB279F57F0F02AED3FE049EC06C0EE0FB4
:10165000BB0F661F771F881F28F0B23A6207730717
:10166000840728F0B25A620B730B840BE3959A95AA
:1016700072F7803830F49A95BB0F661F771F881F6A
:10168000D2F7904813C0EF93E0FF06C0A2EA2AED1C
:101690003FE049EC5FEBC4DD03DF0F90039401FCF6
:1016A0009058E4EFF0E00EC09F3F31F0915020F4ED
:1016B000879577956795B795880F911D969587952E
:1016C00097F908959F938F937F936F93FF93EF9371
:1016D0009B01AC0123DFEF91FF9105D02F913F914A
:1016E0004F915F911BCFDF93CF931F930F93FF9287
:1016F000EF92DF927B018C01689405C0DA2EEF0136
:1017000019DFFE01E894A5912591359145915591F8
:10171000AEF3EF0185DDFE019701A801DA9479F7B8
:10172000DF90EF90FF900F911F91CF91DF9108957F
:10173000AA1BBB1B51E107C0AA1FBB1FA617B707F7
:1017400010F0A61BB70B881F991F5A95A9F7809513
:101750009095BC01CD01089597FB072E16F40094D7
:1017600006D077FD08D0E4DF07FC05D03EF4909565
:1017700081959F4F0895709561957F4F08952FDD56
:10178000332312F48A1B9B0B01C029DDB7FF089598
:0A179000821B930B0895F894FFCF1D
:06179A0001010000000047
:00000001FF
