:1000000088C00000B7C00000B5C00000B3C0000049
:10001000B1C00000AFC00000ADC00000ABC0000028
:10002000A9C00000A7C00000A5C00000A3C0000038
:10003000A1C000009FC00000FEC000009BC00000E7
:1000400099C0000097C0000095C0000093C0000058
:1000500091C000008FC000008DC000008BC0000068
:1000600089C0000087C0000085C0000083C0000078
:1000700081C000007FC000007DC00000C0C0000043
:1000800079C0000077C0000075C0000073C0000098
:1000900071C000006FC000006DC000006BC00000A8
:1000A00069C0000067C0000065C0000063C00000B8
:1000B00061C000005FC000005DC000005BC00000C8
:1000C00059C0000057C0000055C0000053C00000D8
:1000D00051C000004FC000004DC000004BC00000E8
:1000E00049C0000047C0000045C0000043C00000F8
:1000F00041C0000005A84CCDB2D44EB93836A90293
:100100000C50B9918688083CA6AAAA2ABE00000015
:10011000803F11241FBECFEFCDBFDFE7DEBF809150
:10012000400080934000811105C098ED21E094BF0C
:10013000209341008CBB80E38093011088ED90EB0D
:1001400084BF9093011010E4A0E0B0E4E8E4FEE086
:1001500000E00BBF02C007900D92A031B107D9F7A4
:1001600022E4A0E1B0E401C01D92A432B207E1F79D
:1001700063D168C645CF9FB7F894E0912A0BF09100
:100180002B0B8091260B20912042309121424091EF
:100190002242509123429FBF80FF08C0CF01882791
:1001A000892B21F42F5F3F4F4F4F5F4F0F01169464
:1001B0000794169407941694079416940794F001E4
:1001C00016940794E00DF11D16940794102C1694C4
:1001D00001181694010C169401181694010C16942B
:1001E000011816941694010C1124E019F109A8EED7
:1001F000B3E065D36E0F7F1F811D911D0895EF93AE
:10020000FF93E0E2F2E48F938FB78F9380818F5F4B
:10021000808381818F4F818382818F4F828383810D
:100220008F4F838381E08093260B8F918FBF8F91B7
:10023000FF91EF9118951F920F920FB60F92112414
:100240000BB60F92CF92DF92EF92FF922F933F93D4
:100250004F935F936F937F938F939F93AF93BF93CE
:10026000CF93DF93EF93FF932091024030910340AF
:1002700080910A4090910B408217930708F0D2C0FA
:1002800020910A4030910B408091024090910340B0
:10029000821B930B80930240909303402091004077
:1002A0003091014080910840909109408217930756
:1002B00008F0BDC020910840309109408091004075
:1002C00090910140821B930B8093004090930140DA
:1002D0008091104290911142A0911242B09113422C
:1002E0002091004030910140EA2FF0E0EE0FFF1F17
:1002F000E05FFF4BA081B181B2509ED52FE0959574
:100300008795779567952A95D1F72091044030918C
:1003100005404091064050910740C0901442D09053
:100320001542E0901642F0901742C0910240D091E1
:10033000034073D5C60ED71EE81EF91EEE2DF0E061
:10034000EE0FFF1FE05FFF4BA081B181B2502D2F58
:1003500030E072D5672F782F892F992787FD9A95DE
:100360007E5F862F8295880F880F807C8093A206FF
:1003700076956795769567956093A30640911C42A4
:1003800050911D4260911E4270911F428091144213
:1003900090911542A0911642B0911742840F951F7B
:1003A000A61FB71F8093144290931542A093164244
:1003B000B0931742409118425091194260911A42ED
:1003C00070911B428091104290911142A091124273
:1003D000B0911342840F951FA61FB71F8093104240
:1003E00090931142A0931242B093134281E0809304
:1003F000060BFF91EF91DF91CF91BF91AF919F914C
:100400008F917F916F915F914F913F912F91FF90CD
:10041000EF90DF90CF900F900BBE0F900FBE0F901C
:100420001F901895109202401092034037CF1092FF
:100430000040109201404CCF88ED94E284BF90932D
:10044000680021E02093030A8EEF8093260A8093B0
:10045000270A9BE09093000A2093430A8093660A40
:100460008093670A9093400A32E03093E6059093B8
:10047000E70537E03093010B80930C0B10920D0BC6
:1004800095E09093000B3093110B80931C0B10920E
:100490001D0B9093100B3093310B80933C0B1092FB
:1004A0003D0B9093300B4FEF5FE04093AA0B5093BE
:1004B000AB0B80E88093820B1092810B4BEF53E0E3
:1004C0004093AE0B5093AF0B81E78093800B10925B
:1004D000E805E0E0F6E092838EE0858380E68383A2
:1004E000908385E582953091B200387F8770832BA9
:1004F0008093B2004FED5EE240932C0B50932D0B96
:100500002093250B1092210B83E08093200B78948D
:1005100084E0809370049093B00020930006809351
:1005200002061092080620930A0680910D0680FFAD
:10053000FCCF609110067091110690E080E061158B
:1005400071058105910509F095D100E110E4D0E035
:10055000C0E0BE010D2E000C880B990BECD220E000
:1005600030E040E85BE373D39B01AC01EAD12BEDB3
:100570003FE049E450E46BD3CDD320E030E84FEFC7
:1005800053E465D320E030E040E054E4DAD1A5D272
:10059000F801619371938F012196C115F1E0DF0796
:1005A000C1F684E08093760490E89093B20091ECD9
:1005B0009093A0068093720481E08093000797E1F6
:1005C0009093020795E0909310079FE7909314078C
:1005D00092E2909313071092000B1092010B2FE3FD
:1005E00034E020930C0B30930D0B8093050B80931C
:1005F000000B25E0322E38E1832E912CA12CB12C5A
:1006000040ED442E44E8542E612C712C0FEF1FEF67
:10061000E5D022E330E040E050E035D16B017C01D1
:1006200028E2C20ED11CE11CF11CB60190E080E072
:1006300080D220E030E040E853E409D320E030E00D
:1006400040E857E404D320E034E44CEA56E4DDD13A
:1006500044D260931C4270931D4280931E4290933B
:100660001F423C9CB0013D9C700D112490E080E045
:1006700060D220E030E040E853E4E9D220E030E00E
:1006800040E857E4E4D220E034E44CEA56E4BDD13B
:1006900024D2609318427093194280931A42909327
:1006A0001B429CD0A5019401EED06C5F7F4F8F4F11
:1006B0009F4F60930A4070930B40660F771F6093C3
:1006C0000840709309408AD0A3019201DCD06851A0
:1006D0007C4F8F4F9F4F60930440709305408093F1
:1006E00006409093074010921442109215421092C7
:1006F000164210921742109210421092114210921C
:100700001242109213420093024010930340009350
:100710000040109301402FDDEB019AEFC92ED12C40
:10072000E12CF12C28DD6C1B7D0B683E7340D0F36F
:10073000E1E0CE1AD108E108F108C851DC4FC1143C
:10074000D104E104F10471F763CF8F929F92AF92CD
:10075000BF92CF92DF92EF92FF92CF93DF93EC01A3
:10076000688179818A819B81611571058105910577
:1007700021F464E279ED8BE597E02DE133EF41E080
:1007800050E081D049015A019B01AC01A7EAB1E4D4
:1007900096D06B017C01ACEEB4EFA50194019BD027
:1007A000C60ED71EE81EF91EF7FE06C081E0C81A65
:1007B000D108E10880E8F80AC882D982EA82FB827F
:1007C000C701B6019F77DF91CF91FF90EF90DF9047
:1007D000CF90BF90AF909F908F9008958F929F92EF
:1007E000AF92BF92CF92DF92EF92FF9260910C4056
:1007F00070910D4080910E4090910F4061157105F0
:100800008105910521F464E279ED8BE597E02DE116
:1008100033EF41E050E037D049015A019B01AC0170
:10082000A7EAB1E44CD06B017C01ACEEB4EFA501BA
:10083000940151D0C60ED71EE81EF91EF7FE06C061
:1008400081E0C81AD108E10880E8F80AC0920C409B
:10085000D0920D40E0920E40F0920F40C701B601D9
:100860009F77FF90EF90DF90CF90BF90AF909F90D9
:100870008F90089560930C4070930D4080930E40CC
:1008800090930F400895052E97FB16F400940FD017
:1008900057FD05D024D007FC02D046F408C050957F
:1008A0004095309521953F4F4F4F5F4F089590955C
:1008B0008095709561957F4F8F4F9F4F089531D0F0
:1008C000A59F900DB49F900DA49F800D911D1124A4
:1008D0000895B7FFF4CFF3DF821B930B0895A1E2D5
:1008E0001A2EAA1BBB1BFD010DC0AA1FBB1FEE1FAA
:1008F000FF1FA217B307E407F50720F0A21BB30BF5
:10090000E40BF50B661F771F881F991F1A9469F770
:1009100060957095809590959B01AC01BD01CF01CC
:100920000895A29FB001B39FC001A39F700D811DC8
:100930001124911DB29F700D811D1124911D0895E8
:100940005058BB27AA270ED048C139D130F03ED12C
:1009500020F031F49F3F11F41EF42EC10EF4E09507
:10096000E7FB24C1E92F4AD180F3BA176207730766
:100970008407950718F071F49EF562C10EF4E095B6
:100980000B2EBA2FA02D0B01B90190010C01CA0149
:10099000A0011124FF27591B99F0593F50F4503EF4
:1009A00068F11A16F040A22F232F342F4427585FE6
:1009B000F3CF469537952795A795F0405395C9F7FE
:1009C0007EF41F16BA0B620B730B840BBAF09150B6
:1009D000A1F0FF0FBB1F661F771F881FC2F70EC055
:1009E000BA0F621F731F841F48F487957795679528
:1009F000B795F7959E3F08F0B3CF9395880F08F011
:100A00009927EE0F9795879508950CD0E6C0DED014
:100A100040F0D5D030F021F45F3F19F0C7C051113C
:100A200010C1CAC0EBD098F39923C9F35523B1F391
:100A3000951B550BBB27AA2762177307840738F04D
:100A40009F5F5F4F220F331F441FAA1FA9F333D0AC
:100A50000E2E3AF0E0E830D091505040E695001C60
:100A6000CAF729D0FE2F27D0660F771F881FBB1F1C
:100A7000261737074807AB07B0E809F0BB0B802DF6
:100A8000BF01FF2793585F4F2AF09E3F510568F042
:100A90008DC0D7C05F3FECF3983EDCF38695779529
:100AA0006795B795F7959F5FC9F7880F911D969544
:100AB000879597F90895E1E0660F771F881FBB1FA0
:100AC000621773078407BA0720F0621B730B840B4D
:100AD000BA0BEE1F88F7E095089598D088F09F57DD
:100AE00090F0B92F9927B751A0F0D1F0660F771F7A
:100AF000881F991F1AF0BA95C9F712C0B13081F05A
:100B00009FD0B1E008959CC0672F782F8827B85FE9
:100B100039F0B93FCCF3869577956795B395D9F7BA
:100B20003EF490958095709561957F4F8F4F9F4FC4
:100B30000895E89409C097FB3EF4909580957095D0
:100B400061957F4F8F4F9F4F9923A9F0F92F96E919
:100B5000BB279395F695879577956795B795F1118E
:100B6000F8CFFAF4BB0F11F460FF1BC06F5F7F4F2B
:100B70008F4F9F4F16C0882311F096E911C077233D
:100B800021F09EE8872F762F05C0662371F096E846
:100B9000862F70E060E02AF09A95660F771F881F15
:100BA000DAF7880F9695879597F9089597F99F67D3
:100BB00080E870E060E008959FEF80EC08950024E5
:100BC0000A941616170618060906089500240A94B2
:100BD00012161306140605060895092E0394000C38
:100BE00011F4882352F0BB0F40F4BF2B11F460FFC7
:100BF00004C06F5F7F4F8F4F9F4F089557FD9058F0
:100C0000440F551F59F05F3F71F04795880F97FBD0
:100C1000991F61F09F3F79F087950895121613068A
:100C20001406551FF2CF4695F1DF08C016161706B9
:100C30001806991FF1CF86957105610508940895EE
:100C4000E894BB2766277727CB0197F908950BD047
:100C5000C4CFB5DF28F0BADF18F0952309F0A6CF8E
:100C6000ABCF1124EECFCADFA0F3959FD1F3950F40
:100C700050E0551F629FF001729FBB27F00DB11D20
:100C8000639FAA27F00DB11DAA1F649F6627B00DB0
:100C9000A11D661F829F2227B00DA11D621F739F99
:100CA000B00DA11D621F839FA00D611D221F749FA7
:100CB0003327A00D611D231F849F600D211D822FEE
:100CC000762F6A2F11249F5750408AF0E1F0882335
:100CD0004AF0EE0FFF1FBB1F661F771F881F915042
:100CE0005040A9F79E3F510570F060CFAACF5F3FFB
:100CF000ECF3983EDCF3869577956795B795F79575
:100D0000E7959F5FC1F7FE2B880F911D96958795FC
:100D100097F908959F9305D00F9007FCEE5F28C0C8
:100D20004BCF74DFE8F3E894E0E0BB279F57F0F087
:100D30002AED3FE049EC06C0EE0FBB0F661F771FA0
:100D4000881F28F0B23A62077307840728F0B25A66
:100D5000620B730B840BE3959A9572F7803830F42D
:100D60009A95BB0F661F771F881FD2F7904813C054
:100D7000EF93E0FF06C0A2EA2AED3FE049EC5FEB0B
:100D8000F1DD2BDF0F90039401FC9058E4EFF0E0CD
:100D90000EC09F3F31F0915020F48795779567956D
:100DA000B795880F911D9695879597F908959F930C
:100DB0008F937F936F93FF93EF939B01AC0147DF7A
:100DC000EF91FF9105D02F913F914F915F913FCFD0
:100DD000DF93CF931F930F93FF92EF92DF927B01EC
:100DE0008C01689405C0DA2EEF013DDFFE01E89426
:100DF000A5912591359145915591AEF3EF01B2DD65
:100E0000FE019701A801DA9479F7DF90EF90FF9047
:100E10000F911F91CF91DF910895DB018F939F93E5
:100E20004EDDBF91AF91A29F800D911DA39F900DAC
:100E3000B29F900D1124089574DDB7FF0895821BB1
:080E4000930B0895F894FFCF15
:100E4800FFFFFFFFD007000028001400010000008A
:00000001FF
