:100000000C94852D0C94B62D0C94B62D0C94B62D15
:100010000C94B62D0C94B62D0C94B62D0C94B62DD4
:100020000C94B62D0C94B62D0C94B62D0C94B62DC4
:100030000C94B62D0C94B62D0C940D2E0C94B62D5C
:100040000C94B62D0C94B62D0C94B62D0C94B62DA4
:100050000C94B62D0C94B62D0C94B62D0C94B62D94
:100060000C94B62D0C94B62D0C94B62D0C94B62D84
:100070000C94B62D0C94B62D0C94B62D0C94F12D39
:100080000C94B62D0C94B62D0C94B62D0C94B62D64
:100090000C94B62D0C94B62D0C94B62D0C94B62D54
:1000A0000C94B62D0C94B62D0C94B62D0C94B62D44
:1000B0000C94B62D0C94B62D0C94B62D0C94B62D34
:1000C0000C94B62D0C94B62D0C94B62D0C94B62D24
:1000D0000C94B62D0C94B62D0C94B62D0C94B62D14
:1000E0000C94B62D0C94B62D0C94B62D0C94B62D04
:1000F0000C94B62D817F817F808081899AB8C0BFA2
:10010000B0BF637AAA241F2D2D2735363F444853AC
:100110005062529C915E6A877D9FB2896EAEF8BB39
:10012000A2C5E7C8D9DBCCC3C7C9BDBDAAB7AAABB6
:100130009D826B318351202C406C303F3F46516E85
:10014000655782B77E76898EA572BAC7898FC6BE7B
:10015000A8B494ACC9B2A6B19B8697A08264515250
:10016000533733252B635A34213738524C51A56FFE
:10017000889379918D999B86A6B4A1A39F9AA77C19
:100180009DAD88815AA49B7A62615A5845356E5854
:10019000274B56373942454A5F65615C939B7B88A4
:1001A0007C82C9AA819BB3889BBEAD8F7EB79EA976
:1001B000908089846A889457665E7A5A5A72475A40
:1001C0006F745E547E666B987F8489848BB1A89926
:1001D00081A4C5959B918EA8A0978E839F947679D4
:1001E0008C6864867A745F656466646765657E643E
:1001F0007B638397846896AB8B8F7ABE8EA5A2951E
:100200008AAF998C9A83A77F886F907D7C7C64727B
:10021000706F636A555A8C6B4583716B5F6A90602F
:100220008E8F7E8A87928F979599989189B99793A7
:100230008A849C879688876487937569628B7F56CA
:10024000777A6B636E7E69756D74817F83778D8538
:1002500076A08A8A968E9292948E9482879A8A7DCC
:100260007C947D7A887B7C6E706E82786875637012
:100270008B7173736D8979848670939683898A8E66
:10028000908F938E958C968182A5977286937E7BB4
:100290006990837279717B66798061807C7E6579F3
:1002A0007F74817D8A7E7C7A9A878788898B908803
:1002B0007D999188938B837A818F7C80737A8A79F8
:1002C000796B7D81667C856A6F887A767B7A807EA1
:1002D00083828585878A7D8D9C82828D8B997E8B9A
:1002E000918184818285777597807676787C766D2A
:1002F0008080717B6B807F718A797E7881887A8E2D
:1003000076948482998387858887878785877B838E
:10031000947E80708585777C757D6D7D7E74807719
:100320007D747D76748B7F7D78857A8B8682898CCF
:100330008982817C96818C867A8194837F7B779079
:100340007C7A76867D76757F7D7783786D818876F9
:100350007D7A817D837E867B7D8D898C7B888C8177
:10036000877B8190828377848D7D7583827B856F87
:100370007E81707F82767B78777C837D7D787690B6
:100380007E78858684837981938183828483838444
:10039000838381827F8081817584827A7D7C7A7972
:1003A000777F8274847F76837E787B88837D817B70
:1003B0008588807B8B878182837F7D8C87817E800F
:1003C0007F807F7F7E7E7E7979837D817F7B7B7A54
:1003D0007D787D86797B8578868485817886877F20
:1003E0008380857F7B8F84818280817F81807B7DFC
:1003F000847E8481797D7580817B7B7E7C80787F23
:10040000867E7D7787857D7D8981808182828381DB
:10041000837F7B8B86817E807F817B7D857E7E82D4
:1004200076827C7F7C7F7C797F7D857A837C8181ED
:100430007D807D7E897D7F88837E7E8484847C86AA
:100440007F84807F7C80807C867D827C7A7E8282B5
:100450007B7B7E7E7E7E7F7D7A8285857D7E8180B0
:10046000818082807F81897E8086837A8185807E7B
:100470007B85817C7C857F7D7E7D7F7C7887817993
:100480007F82807E7A8084807E7B87827F8180826B
:100490007F7B8A857F817F837B82877E7E7D7F864F
:1004A00082787E847B847D7E7A7E807C857F7C7E64
:1004B000827D81857F7F807F7F8086827E847D7F35
:1004C0008480857C81837F807B8284807E7F7E8028
:1004D0007E807982807E837D7E7B8083837C7F812A
:1004E0008080807C848282847E817F818081817E05
:1004F0007D8585807D7B85817E7F7F7F7F7F7F7F00
:100500007F7F7F7F7F807F807F80808080818081F0
:100510007C82867F8480808081807C85867A8184CD
:10052000817C7F837E7F7E807D82807F7D7D8483D2
:100530007F7F7E7E827E81827E81827E81808183BA
:10054000817F817D81857B85827F807F80807F81A7
:100550008080827C81817E7F7E7D808182807E7EA4
:100560007E82827F8080807D83827F817E837E8188
:10057000847F808080847D8182807E7D8181827F76
:100580007F7F817C847E80827F7F7F7F7D8480806F
:100590008080808080817D8085827F808081808155
:1005A0007C8186807F7F807E82807F7F7F8080814C
:1005B00080817E807D81817D82818080808080803D
:1005C000808081808180827E7F857E82817E7E8325
:1005D0008180827D80827C80847D7F83807F7F7F1D
:1005E000807F807F817F7F83817F7E837E83817F09
:1005F00080807F7D83828080827F807F80808080FA
:1006000080807D8381807D7F847C80837F7F7E81ED
:10061000817F807E7F8480807F80808080818081D8
:100620007F7E8480817F81817E7F83817F7F7E81C9
:1006300082807F807F817E817F837F7F82807F7FBA
:100640008380807D82818280807E808280837F80A3
:100650007F808080808080817F7F83807F7F828099
:100660007F817F8081817E7F827E827F8181808287
:100670007E8081807E818080827F7E81827E80827A
:100680007F7F817F80818080827F7E8181807F806B
:100690008080807E818180807E8082808080827F59
:1006A0007F827F817F8081817F80807F827F818147
:1006B0007F7F807F80817F80808080807E8182803C
:1006C000807F808080807F82808180808080808029
:1006D00080808080807F80827E808180817F80801A
:1006E0008080808080807F7E83807E827F7F82800A
:1006F000808080807F808080818181807E80837FF8
:100700007F817F808181807F807F808181808080E8
:100710007F808081807E8181807F7F817F818080DA
:10072000807F827F80807F8081807F8181807F81C8
:100730008180808080807F808180817F80808080B8
:1007400080808081817F80818080808080807F7FA9
:1007500081818080808081807F8081807F80818096
:10076000808080808180807F8081808080807F8089
:100770008080808080808080808080808081808078
:1007800080808080808080807F808080808080806A
:100790008080808080808080808080808080808059
:1007A0008080808080808080808080808080808049
:1007B0008080808080808080808080808080808039
:1007C0008080808080808080808080808080808029
:100AF0007F7E7D7C7A797877777676767576747571
:100B00007574757575747575757575757675767694
:100B100076777777787879797A797A797B7B7A7B47
:100B20007B7D7B7E7B7F7C7F7B817D827D827E83E4
:100B30007F8382828382848188808A7E8E7C917B7F
:100B40009479957A92808C8A7D9E69B159BB5CAD0F
:100B50007B80AD53CB4FAF876BBF59A09F55C86B00
:100B60007CC0549FAC50B19F51BC9655BA9D51B5B5
:100B7000AB51A1C15981D0785DC5AB4F92D37757A6
:100B8000BCBF5870CFBC5F7AD2B76482D1BA6D7ED9
:100B9000CBC07C71BCC893679CCAAF756FB4C19E53
:100BA000657AB7BA936174B0B69362649FB4996B77
:100BB000537EA9A17D545486A193724C4D79968D94
:100BC00072493955828B7C5934345A8182724C2B4C
:100BD0002E557B7E70502C26426C7D76633F262BF3
:100BE0004A6F7B7665442B2B42667B7B715A3C2F88
:100BF00036506F807F78644938394A667E85837BBA
:100C0000664E41414E667E898A877A64524A4C59C3
:100C10006F848F92928978665A5558667A8D979C20
:100C20009D978A7A6C636166758797A1A7A9A69C30
:100C30008E80746D6B717F8F9EA8AFB3B2ACA093A2
:100C4000867C7573778291A0ABB4BABEBCB6AC9FFC
:100C500093887F7A7B808B98A5B0B9BFC3C3BFB69A
:100C6000ACA0948A817C7B7F87939FABB5BEC4C8C0
:100C7000C9C7C1B8ADA1968B837D7A7B8089939FCC
:100C8000A9B3BBC1C6C8C7C3BCB3A89D92887F77B0
:100C900073727479818B96A1ABB4BDC4CAC8C6C344
:100CA000C1BFBDBAB2A69A8F857C75716F6F72771E
:100CB0007D848B92989EA3A5A3A19F9D9B9A978FBD
:100CC00083786C60554B423A34312F3032363C4396
:100CD0004A51585F656B70747778797774706A637E
:100CE0005C534A41382F28211B17141415171B2059
:100CF000272E363E464F575F666C72777B7E7F802D
:100D00007F7D7A75706A645D564F48423C36322F5B
:100D10002D2F313335373A40474F576069727A8308
:100D20008A92999FA4A9ACAFB1B1B1AFADAAA5A168
:100D30009B958F88817B746E68635E5B58555454B5
:100D40005556595C61666C727980878F969DA4AB0D
:100D5000B1B6BCC0C4C8CACCCECECECDCCC9C7C338
:100D6000BFBBB6B1ACA6A19B95908B86817C7875F4
:100D7000726F6D6C6B6B6C6D6F7174777B7F848839
:100D80008D92989DA2A7ACB1B5B9BDC1C4C7C9CB5E
:100D9000CDCECECFCECDCCCBC9C6C3C0BDB9B5B1FB
:100DA000ADA9A5A19C9894918D8A8683817E7C7B38
:100DB00079787776767676767778797A7B7C7D7FA8
:100DC0008081838485868788898A8A8B8B8B8A8AAF
:100DD00089898886858482807E7C797774716F6C3E
:100DE000696663605D5A585552504D4B49474543BB
:100DF00041403F3E3D3D3C3C3C3C3D3D3E3F414211
:100E0000434547494B4D50525457595C5F616466A6
:100E1000696B6E70727476787A7C7E7F818283854E
:100E20008686878888888989898988888887878647
:100E3000858584838281807F7E7E7D7C7B7A7978C4
:100E40007877767675757474747474747474747554
:100E50007576767778797A7B7C7D7E7F80828384D5
:100E60008687888A8B8C8E8F919293949697989987
:100E70009A9B9C9D9D9E9F9FA0A0A1A1A1A1A1A185
:100E8000A1A1A1A1A1A0A09F9F9E9D9D9C9B9A997D
:100E9000999897969594939291908F8E8D8C8B8A3A
:100EA00089888787868584838382818180807F7F0C
:100EB0007E7E7E7D7D7D7D7D7D7D7D7D7D7D7D7D5F
:100EC0007D7D7D7E7E7E7E7F7F7F7F808080808136
:100ED00081818182828282828383838383838383ED
:100EE00083838383838382828282828181818080E3
:100EF000807F7F7E7E7E7D7D7C7C7B7B7A7A79792C
:100F0000787878777776767575757474747373738B
:100F100072727272727171717171717171717171BC
:100F2000717171717172727272737373737474759B
:100F30007575767676777778787879797A7A7A7B34
:100F40007B7C7C7C7D7D7E7E7E7F7F7F80808181BF
:100F5000818182828283838383848484848485855F
:100F60008585858585858686868686868686868627
:100F70008686868686868686868686868686868611
:100F80008686868686868686868686868686868601
:100F900086868686868686868686868686868686F1
:100FA00086868686868686868686868686868686E1
:100FB00086868686868686868686868686868685D2
:100FC00085858585858585858484848484848383DB
:100FD00083838382828282828181818181808080F9
:100FE000807F7F7F7F7E7E7E7E7E7D7D7D7D7D7D21
:100FF0007C7F817F817F817E827E827D85762524B4
:10100000323741403D36373B4C4D6FC7E9F1EFE396
:10101000E0DADBD9D9D7D7D4D2CFCCC9C7C5C3C2C0
:10102000C1C0C0C0B6A7998C7F73675B4F46392C8F
:101030002216151A1E21232527282A2C2E31333556
:1010400038393B3B3C455059626A737C848C929B97
:10105000A3AAB1B6BCC1C5C9CDD0D4D6D4D1CECC4B
:10106000CBC9C7C6C4C0BCB7B3AEA9A39D97908A6D
:10107000837B736C645D58514A453F3B3734312F55
:101080002F323436383A3B3C3E43484D52575D622E
:10109000676D73787E848A8E92999DA2A6AAAEB25D
:1010A000B5B8BABDBEC0C1C1C1C2C1C2BDB6B3B080
:1010B000AEABA8A4A09C97928E89837E78736D684E
:1010C000635F5954504D4A4745434242424243456B
:1010D00047494C4E5255595D61666A6E73787D8101
:1010E000868A8D92979A9EA1A4A7AAACAEB0B2B3FD
:1010F000B4B4B5B4B4B4B3B1B0AEACAAA7A4A19D16
:101100009996918D8984807B77726D6965625D594E
:101110005653514F4E4C4B4B4B4C4D4E50525456D8
:10112000595C5F63666A6D7175797D8084888A8F8A
:101130009295989B9EA0A3A5A6A8AAABACACADAD7A
:10114000ADACABAAA9A8A6A5A3A09E9B9895928E8C
:101150008B8884807C7875716D6A6765605E5C5A87
:101160005856555454545454555657595B5D5F6105
:1011700064676A6D707376797D808386888D8F92BF
:1011800095979A9C9EA0A2A3A4A5A6A7A7A7A7A748
:10119000A6A6A5A4A2A19F9D9B989693908D8A87B1
:1011A00084817D7A7774716E6B696763615F5D5C62
:1011B0005B5A59595959595A5B5C5E5F616365675F
:1011C0006A6C6F7274777A7D808384878B8D90923E
:1011D0009496989A9B9D9E9FA0A1A1A2A2A2A2A133
:1011E000A0A09F9E9C9B99979694918F8D8A8885AD
:1011F00083807D7B787673716F6C6B6966656462E2
:101200006161606060606060616263646567696AB3
:101210006C6E70727476797B7D80828386898A8D0C
:101220008E909293959697999A9A9B9C9C9C9C9C45
:101230009C9B9B9A999897969493918F8D8C8A8872
:101240008684817F7D7B79777573716F6E6D6B6935
:1012500068676766656565656566666768696A6B20
:101260006C6E6F71727476787A7C7D7F81828587EF
:10127000888A8C8D8F909192939495969697979754
:101280009797979796969594939291908F8D8C8B34
:101290008987868482817F7D7C7A78777574727184
:1012A000706F6F6D6C6C6B6B6A6A6A6A6B6B6C6C7F
:1012B0006D6E6F6F717273747577787A7B7D7E7FD8
:1012C0008082848687888A8B8C8D8E8F9091919274
:1012D000929393939393939392929191908F8E8DF7
:1012E0008C8B8A89888786848382807F7D7C7B79CA
:1012F0007877767473727271716F6F6E6E6E6E6ED8
:101300006E6E6F6F70707172727374757677787AB3
:101310007B7C7D7E7F81828485868788898A8B8C91
:101320008D8D8E8E8F8F8F9090909090908F8F8FCD
:101330008E8D8D8C8B8B8A8988878685848382812C
:10134000807E7D7C7B7A7978777776757474737319
:101350007272727171717172727273737474757664
:1013600076777879797A7B7C7D7E7E8081828384B2
:101370008586878788898A8A8B8B8C8C8D8D8D8DCD
:101380008D8D8D8D8D8C8C8C8B8B8A8989888787B0
:10139000868584838281807F7F7E7D7C7B7A7A795B
:1013A00078787777767675757575747474747474E7
:1013B000757575767677777879797A7A7B7C7D7DA5
:1013C0007E7F8081818283848485868787888889DF
:1013D000898A8A8A8A8B8B8B8B8B8B8A8A8A89896A
:1013E00089888887878686858484838282818080B5
:1013F0007F7E7E7D7C7C7B7A7A7979787878777746
:101400007777767777767676777777787878797969
:101410007A7A7B7B7C7C7D7E7E7F808081828283EA
:101420008384858586868687878788888888898952
:101430008989898988888888878787868685858439
:1014400084838382828181807F7F7E7E7D7D7C7CA0
:101450007B7B7A7A7A7979797979787878787878FB
:1014600079797979797A7A7A7A7B7B7C7C7D7D7ED1
:101470007E7E7F7F80808181828283838484848555
:1014800085858686868687878787878787878787F4
:10149000878686868585858484848383828281810C
:1014A0008080807F7F7E7E7E7D7D7C7C7C7B7B7B65
:1014B0007A7A7A7A7A7A7979797A7A7A7A7A7A7A8F
:1014C0007B7B7B7C7C7C7D7D7D7E7E7F7F80808046
:1014D00081818282828383848484848585858586D4
:1014E00086868686868686868685858585858484A5
:1014F000848383838282828181818080807F7F7EDA
:101500007E7E7D7D7D7C7C7C7C7C7B7B7B7B7B7B1A
:101510007B7B7B7B7B7B7B7B7B7B7C7C7C7C7D7D13
:101520007D7E7E7E7F7F7F808080818181828282BE
:10153000838383838384848484848484858585856C
:101540008585848484848484848383838382828263
:1015500082818181818080807F7F7F7F7E7E7E7D92
:101560007D7D7D7C7C7C7C7C7C7C7C7C7C7C7C7CB8
:101570007C7C7C7C7C7D7D7D7D7D7E7E7E7E7F7F98
:101580007F7F808080818181818282828283838348
:10159000838383838484848484848484848484840F
:1015A000838383838383828282828181818180801D
:1015B00080807F7F7F7F7F7E7E7E7E7E7D7D7D7D46
:1015C0007D7D7D7D7C7C7C7C7C7D7D7D7D7D7D7D50
:1015D0007D7D7D7E7E7E7E7E7F7F7F7F8080808022
:1015E00081818181818282828282828283838383DC
:1015F00083838383838383838383838383828282BE
:1016000082828282818181818181808080807F7FCE
:101610007F7F7F7E7E7E7E7E7E7E7E7D7D7D7D7DEC
:101620007D7D7D7D7D7D7D7D7D7D7D7E7E7E7E7EE5
:101630007E7F7F7F7F7F7F808080808081818181AE
:101640008181828282828282828282828283838379
:101650008383838383828282828282828282818167
:10166000818181818080808080807F7F7F7F7F7F7C
:101670007E7E7E7E7E7E7E7E7E7E7E7D7D7D7E7E8D
:101680007E7E7E7E7E7E7E7E7E7F7F7F7F7F7F7F73
:101690008080808080808081818181818181818141
:1016A000828282828282828282828282828282821A
:1016B0008282828282818181818181818180808018
:1016C00080808080807F7F7F7F7F7F7F7F7F7E7E27
:1016D0007E7E7E7E7E7E7E7E7E7E7E7E7E7E7E7E2A
:1016E0007E7F7F7F7F7F7F7F7F7F80808080808005
:1016F00080808080818181818181818181818181DE
:1017000082828282828282828281818181818181C0
:1017100081818181818181818180808080808080C0
:101720008080807F7F7F7F7F7F7F7F7F7F7F7F7FC6
:101730007F7F7F7F7F7F7F7F7F7F7F7F7F7F7F7FB9
:101740007F7F7F7F7F7F808080808080808080809F
:101750008181818181818181818181818181818179
:101760008181818181818181818181818181818169
:10177000818080808080808080808080807F7F7F6B
:101780007F7F7F7F7F7F7F7F7F7F7F7F7F7F7F7F69
:101790007F7F7F7F7F7F7F7F7F7F7F7F7F7F7F7F59
:1017A0008080808080808080808080808181818135
:1017B0008181818181818181818181818181818119
:1017C000818181818181818181818181808080800D
:1017D000808080808080808080807F7F7F7F7F7F0F
:1017E0007F7F7F7F7F7F7F7F7F7F7F7F7F7F7F7F09
:1017F0007F7F7F7F7F7F7F7F7F80808080808080F2
:1018000080808080808080808081818181818181D1
:1018100081818181818181818181818181818181B8
:1018200081818181818180808080808080808080B2
:1018300080808080808080807F7F7F7F7F7F7F7FB0
:101840007F7F7F7F7F7F7F7F7F7F7F7F7F7F7F7FA8
:101850007F7F80808080808080808080808080808A
:101860008080808080808080808181818181818171
:10187000818181818181818181818181818180805A
:101880008080808080808080808080808080808058
:10189000808080808080807F7F7F7F7F7F7F7F7F51
:1018A0007F7F7F7F7F7F7F7F7F7F80808080808042
:1018B0008080808080808080808080808080808028
:1018C000808080808080808181818181818181810F
:1018D00081818181818181818180808080808080FF
:1018E00080808080808080808080808080808080F8
:1018F00080808080808080808080808080808080E8
:1019000080808080808080808080808080808080D7
:1019100080808080808080808080808080808080C7
:1022F00080808080817F817F81887D827D867A81D8
:102300007E8974897F768D7A827F837B857E847ACD
:102310008A768581827D7C89778A79867B837D83B5
:10232000827F798783808187837E907A877F857695
:10233000878077887E788A7A7E8C7C8F7C88758E81
:102340007C75877B7981807585798677817D897BAE
:102350008578837F7688708E7583807A807E7A8791
:10236000777C7B837E758E79847983788780788586
:10237000797F81807E7D857B84807B8478887B8467
:102380008183847D80837D8575858678887B807E4A
:102390007E7E8280847A8D7B867E827D817C808435
:1023A0007888798579837D837787738B7C8C768435
:1023B00081718E7289708D72897D847D837C857E2A
:1023C0007F8775867B8977857A8676887B857E7F11
:1023D000837F817F807D8678867A8479867D8182FD
:1023E000818180827E847E827F7F81827C817E83E8
:1023F0007E807F837E817E8083778A7C7E867C84DC
:102400007F7F807E837C8180807E7F7D867E817DD4
:1024100081837D827D8875877E847E817F81807CBB
:10242000887A847E867B857C847A897F7D89768B99
:1024300076897E7F847E81837D857C858277897C99
:10244000867B857B857F7E847D8480818080817F83
:10245000808478897C827E84817E857C8280827F74
:10246000827D8578877A857F7F817E867C847F8266
:102470007D867A867E7E81857A84827B827F857C5A
:10248000837F7F837F82817B857D847E837E817E47
:1024900083827D847F7F80817F7F818379887B8336
:1024A0007F817F827F827E82817C867A847C837D2D
:1024B000827E827F807D857D807F80807B867C831D
:1024C0007C847D827F827C837E7F827F8080807D12
:1024D000867B847D837F81807F81807F80817E82F7
:1024E0008080808080807E837C81807F80818080EE
:1024F0008080807E837C837E7F827D817F80817CE3
:10250000837E7F817E827E827E81807E817F7F7FCF
:1025100081807C82807E80817E81807C847E817FC0
:1025200080817E817F7F827D80837B847C837E7FB0
:10253000817F817E817F827D827C857D8080817E9E
:10254000827F7C857B837F807E837D8280827D828B
:10255000817E8080807E847B867D81807F807F7F7E
:10256000837D7F81808080817E837E817E827D826B
:1025700080817E827E80827E807F827D837E817E5E
:10258000827E837F808080807F817F8080807F814A
:1025900080807F817E827E837C837F80817F80803C
:1025A000827C837F827E837B857D818080817E8229
:1025B0007F817F827D827D847C847E7F837E817F1C
:1025C000817E817F817F817F8080817F817D847F0B
:1025D0007F827D837E81807F818080807F817E82FB
:1025E0007E80827F817F817F808080807F807F81ED
:1025F000807F81808080808080807F817F7F817EDE
:10260000817F7F817F817F817F80807F8081807FCC
:102610008080817F8080818080817F8180808080B8
:102620008080817F80808081808080808080817FA9
:10263000807F8080808080817F808080808080819A
:102640007F817F817F81807F807F817E827F817F8C
:102650008080817F817F8080808080807E827E817B
:102660007E837E8180807F808080807F817F81806B
:102670008080807F827E827F817F80808080807F5B
:1026800081817F817F8180817F827F817F817F8047
:10269000808080808080817F817E827E80817F803B
:1026A0008180807F827F80817F817F827E817F8128
:1026B000808080817F8180808080817F827E817F19
:1026C000827E818080807F81808080807F827E8109
:1026D0007F817F81808080808080817F81808080F9
:1026E000827F8080808080807F81808080808080E9
:1026F00080808080808080817F80817F817F8081D9
:1027000080808080807F81808080808080817F80C9
:1027100080808080808080808080808080808080B9
:10272000817F8080808080808080808080808080A9
:10273000808080817F808080808080818080808098
:102740008080817F81808180808080808080808087
:1027500080807F817F80807F80817F8080817F807B
:102760008080808080808080817F817F8080808069
:1027700080808180808080807F8080807F81808059
:10278000808080817F817F80808080808080808049
:10279000807F817F807F817F8180808080817F8139
:1027A00080808080808080807F818080817F808029
:1027B0008080817F80808080808080808080808019
:1027C0007F8180808080818080817F808080808008
:1027D000808080808080808080807F8080808080FA
:1027E00080808080808080808080808080808080E9
:1027F00080817F80808080808080808080808080D9
:10280000808080808080808080807F817F808080C9
:1028100080808080808080808080808080808080B8
:1028200080808080808080808080808080807F80A9
:102830008080808080808080808080808080808098
:1028400080808080808080808080808080807F8188
:102850008080808080808080808080808080808078
:102860008080808081808080808080808080808067
:10287000808080807F817F817F8080808080808059
:1028800080808080807F8080808080808080808049
:1028900080808080808080807F817F808080808039
:1028A00080808080808080808080807F817F808029
:1028B00080807F81808080808080808080817F8018
:1028C0008080808080808080808080808080808008
:1028D00080808080808080808080808080808080F8
:1028E00080808080808080808080808080808080E8
:1028F00080808080808080808080808080808080D8
:1029000080808080808080808080808080808080C7
:1029100080808080808080808080808080818080B6
:1029200080808080808080808080808080808080A7
:102930008080808080808080808080808080808097
:102940008080808080808080808080808080808087
:102950008080808080808080808080808080808077
:102ED0007F7D7D7D7A787779787474787D858C9321
:102EE000989D9EA6D7DFBA956E4E34241E1E2231C1
:102EF0004A6787A0B3C2CED2D8E9D7B999785B43E5
:102F0000342B2A2A4D6A7585919FA7AEAEAFBEB409
:102F10009E89745F4C4240454A56677C91A3B1BA82
:102F2000BDBAB3B9BDA5866A524238363B424F613D
:102F300075899BA7AEB2B2AFB2AA9988776A5F597A
:102F400056585A64777F868D929596969497958B6E
:102F500082797169656466696E767F878F969A9BC0
:102F60009A97989A9284776B625D5C5D6167707ADC
:102F7000858F959A9C9D9B9D998F857B726B6765CC
:102F800066676D7A8085898D8F90908E908E88810E
:102F90007B75706D6C6E7074797F858B8F92939258
:102FA0009091928C8379716B6867686A6F757C8386
:102FB0008A8F9193939293918A837C77726F6E6FCD
:102FC0006F747C808386888A8A8A898A8985817DD4
:102FD000797674747576787C7F83878A8C8D8C8BF8
:102FE0008B8C88827B76726F6E6F7174787D82872E
:102FF0008B8D8E8F8E8F8D87827D797573717272B6
:10300000767D8083858788898988898884817D7A8F
:103010007675747576797C8083878A8B8C8C8A8BA5
:103020008C88827B7672706F707174787D82878AEB
:103030008D8E8E8D8E8C87827D797573727273768C
:103040007D8083858788898988898884817D7A774E
:1030500075757577797C808387898B8C8B8A8B8B50
:1030600088817C7673706F707275797D82878A8CA7
:103070008D8E8D8E8C87827D797673727373777D5A
:103080008083858788888887898884817D7A777519
:10309000757677797C808386898B8B8B8A8A8B8700
:1030A000817C77737170717275797D82878A8C8D5E
:1030B0008D8C8D8B87827D797674737374777D8028
:1030C00082858688888887888784817D7A777675E7
:1030D0007677797C808386898A8B8B898A8A8781B7
:1030E0007C77737171717375797E8287898B8D8D11
:1030F0008C8D8B86827D7A7674737474777D8082F2
:10310000848687888887888784807D7A78767677B2
:10311000787A7C808386888A8B8A89898A87817C71
:1031200077747271727376797E8286898B8C8C8CBF
:103130008C8B86827D7A7675747475787D808284B6
:103140008687888787888784807D7B78767677787E
:103150007A7D808386888A8A8A89898A87817C7831
:103160007472727274767A7E8286898B8C8C8B8C68
:103170008A86827D7A7775747575787D808284867B
:1031800087878786888783807D7B78777677787A4C
:103190007D80838688898A8A88898986817C7875FA
:1031A00073727374767A7E8286898A8B8B8B8C8A13
:1031B00086827E7A7775757575787E80828486873B
:1031C000878786878683807D7B78777777787A7D17
:1031D00080838688898A8988898986817C787573C5
:1031E000737375777A7E8286888A8B8B8A8B8986C1
:1031F000827E7A7776757576787E808284858687FA
:103200008786878683807E7B79777778797A7D80D9
:1032100083858789898988888986817C7875737395
:103220007475777A7E8286888A8B8B8A8B89858271
:103230007E7A7876757676797E80828485868786B2
:1032400086878683807E7B79787778797B7D80839B
:10325000858788898987888886817C797674737464
:1032600075777B7E828588898A8A8A8A8985827E2B
:103270007B7876767676797E808284858686868669
:10328000878683807E7B79787878797B7D8083855B
:103290008788898887888885817D79767474757632
:1032A000787B7E828588898A8A898A8985817E7BE6
:1032B0007877767677797E8082848586868685861D
:1032C0008583807E7B79787879797B7D808285871C
:1032D00088888887878885817D7976757475767802
:1032E0007B7E828587898A8A898A8885817E7B78A8
:1032F00077767777797E80828385868686858685D0
:1033000083807E7C797878797A7B7D8082858788D6
:10331000888887878885817D797775757576787BCC
:103320007E82858788898989898885817E7B79776E
:103330007777777A7E808283858586868586858382
:10334000807E7C7A7978797A7B7D80828586878891
:103350008787878785817D797775757677797B7E95
:1033600082858788898988898884817E7B79787736
:1033700077787A7E8082838485868585868583803A
:103380007E7C7A7979797A7C7E8082848687888748
:1033900086878785817D7A7776757677797B7F8258
:1033A000858788898988898784817E7B7978777801
:1033B000787A7E8082838485858585868582807EF5
:1033C0007C7A79797A7A7C7E808284868787878600
:1033D000878784817D7A7876767677797C7F828517
:1033E0008688888888898784817E7C7978787878CF
:1033F0007A7E8082838485858585858582807E7CB2
:103400007A79797A7A7C7E808284868787878686B5
:103410008784817D7A7876767778797C7F828486D6
:1034200087888888888784817E7C7A787878787B9A
:103430007E8082838485858584858482807E7C7A73
:103440007A797A7B7C7E8082848686878686868669
:1034500084817D7A78777677787A7C7F8284868794
:10346000888887888784817E7C7A797878797B7E62
:103470008082838485858584858482807E7C7B7A36
:103480007A7A7B7C7E80828485868786868686841F
:10349000817D7A78777777787A7C7F82848687884F
:1034A0008887888684817E7C7A797879797B7E802A
:1034B00082838484858584858482807E7D7B7A7AFC
:1034C0007A7B7C7E808284858686868586868481DA
:1034D0007D7B79777778787A7C7F82848687878707
:1034E00087878684817E7C7A797979797B7F8081F0
:1034F000838484858484858482807E7D7B7A7A7BC4
:103500007B7C7E8082848586868685858684807D98
:103510007B79787778797A7C7F81848586878787BD
:10352000878683817E7C7A797979797B7F808183B4
:103530008484848484858482807E7D7B7A7A7B7B8C
:103540007D7E8082848586868685858684807D7B57
:1035500079787878797A7D7F818485868787868770
:103560008683817E7C7B7A79797A7B7F8081838375
:1035700084848484848482807E7D7B7B7A7B7C7D52
:103580007E8082838585868585858583807E7B791F
:10359000787878797B7D7F81848586878786878622
:1035A00083817E7C7B7A797A7A7C7F808182838436
:1035B000848484848482807E7D7B7B7B7B7C7D7E17
:1035C0008082838485868585858583807E7B7A78E5
:1035D0007879797B7D7F81838586868686868583DB
:1035E000817E7D7B7A7A7A7A7C7F808182838484F3
:1035F0008483848382807E7D7C7B7B7B7C7D7E80DC
:1036000082838485858584858583807E7B7A7979AC
:10361000797A7B7D7F818385868686868685838190
:103620007F7D7B7A7A7A7A7C7F80818283848484AE
:1036300083848382807F7D7C7B7B7B7C7D7E80829C
:10364000838485858584858583807E7C7A79797974
:103650007A7B7D7F81838585868686868583817F4B
:103660007D7B7A7A7A7A7C7F80818283838484836B
:10367000848382807F7D7C7B7B7C7C7D7E8082835B
:103680008485858584848583807E7C7A7979797A3E
:103690007B7D7F81838485868685868583817F7D0A
:1036A0007B7B7A7A7B7C7F80818283838483838423
:1036B0008382807F7D7C7B7B7C7C7D7F808283841A
:1036C00085858584848583807E7C7A79797A7A7B06
:1036D0007D7F81838485868685868583817F7D7CC9
:1036E0007B7A7B7B7C7F80818283838383838483DB
:1036F00081807F7D7C7C7C7C7C7D7F8081838484D9
:10370000858484848483807E7C7B7A7A7A7B7C7DCA
:103710007F81838485858585858483817F7D7C7B8E
:103720007B7B7B7D7F808182838383838383838193
:10373000807F7D7C7C7C7C7D7D7F80818384848593
:103740008484848483807E7C7B7A7A7A7B7C7D7F90
:1037500081838485858585858482817F7D7C7B7B53
:103760007B7B7D7F8081828383838383838381804E
:103770007F7E7C7C7C7C7D7D7F808183848484844F
:1037800084848483807E7C7B7A7A7A7B7C7E7F8152
:10379000838485858585858482817F7D7C7B7B7B19
:1037A0007B7D7F8081828383838383838381807F0A
:1037B0007E7D7C7C7C7D7E7F80818383848484830A
:1037C000848482807E7C7B7A7A7A7B7C7E7F818314
:1037D0008484858585858482817F7D7C7B7B7B7CE1
:1037E0007D7F8081828283838383838381807F7EC8
:1037F0007D7C7C7C7D7E7F808182838484848384C5
:103800008482807E7C7B7A7A7B7B7C7E7F818384D2
:1038100084858584858482817F7D7C7C7B7C7C7DA6
:103820007F8081828283838383838281807F7E7D88
:103830007C7C7D7D7E7F808182838484848384847C
:1038400082807E7D7B7B7B7B7B7C7E7F818384848F
:10385000858484858482807F7E7C7C7B7C7C7D7F6C
:103860008081828283838382838281807F7E7D7C4C
:103870007C7D7D7E7F808182838484848383848237
:10388000807E7D7C7B7B7B7C7C7E7F81828384844D
:103890008484848482807F7E7C7C7C7C7C7D7F8031
:1038A00081828283838382838281807F7E7D7D7C0F
:1038B0007D7D7E7F808182838384838383838280F6
:1038C0007E7D7C7B7B7B7C7D7E7F81828384848408
:1038D00084848382807F7E7D7C7C7C7C7D7F8081F4
:1038E000828282838382838281807F7E7D7D7D7DD3
:1038F0007D7E7F8081828383848383838382807EB5
:103900007D7C7B7B7B7C7D7E7F81828384848484C1
:10391000848382807F7E7D7C7C7C7C7D7F808182B5
:103920008282838282838281807F7E7D7D7D7D7D98
:103930007E7F8081828383838383838382807E7D75
:103940007C7B7B7C7C7D7E7F818283848484848479
:103950008382807F7E7D7C7C7C7C7E7F8081818277
:1039600082828282838281807F7E7D7D7D7D7D7E5D
:103970007F8081828383838383838382807F7D7C36
:103980007C7B7C7C7D7E8081828383848484848331
:1039900082807F7E7D7C7C7C7D7E7F808181828237
:1039A000828282828281807F7E7D7D7D7D7E7E7F20
:1039B0008081828383838383838382807F7D7C7CF9
:1039C0007C7C7C7D7E8081828383848483848382EB
:1039D000807F7E7D7D7C7D7D7E7F808181828282F5
:1039E0008282828281807F7E7D7D7D7D7E7E7F80E2
:1039F00081828383838383838382807F7D7C7C7CBD
:103A00007C7C7D7E808182838383838384838280A8
:103A10007F7E7D7D7C7D7D7E7F80818182828282B2
:103A200082828281807F7E7E7D7D7D7E7E7F8081A1
:103A3000828283838382838382807F7D7C7C7C7C83
:103A40007D7D7E8081828383838383838382807F65
:103A50007E7D7D7D7D7D7E7F80818182828282826E
:103A6000828281807F7E7E7D7D7E7E7E7F80818260
:103A70008283838382838382807F7D7D7C7C7C7D47
:103A80007D7E8081828383838383838381807F7E25
:103A90007D7D7D7D7D7E7F8081818282828282822A
:103AA0008281807F7E7E7D7D7E7E7E7F8081828220
:103AB00083838382828382807F7E7D7C7C7C7D7D0C
:103AC0007E8081828283838383838381807F7E7DE6
:103AD0007D7D7D7D7E7F80818182828282828282E5
:103AE00081807F7E7E7D7D7E7E7E7F8081828283DF
:103AF000838282828281807F7E7D7C7C7D7D7E7FD1
:103B00008081828283838383838281807F7E7E7DA6
:103B10007D7D7D7E7F8081818282828282828281A0
:103B2000807F7F7E7E7E7E7E7F7F80818282828399
:103B30008282828281807F7E7D7D7C7D7D7E7F8092
:103B400081828283838383838281807F7E7E7D7D69
:103B50007D7D7E808081818182828282828281805D
:103B60007F7F7E7E7E7E7E7F7F8081828282828258
:103B700082828281807F7E7D7D7D7D7D7E7F808152
:103B8000828283838383838281807F7E7E7D7D7D2D
:103B90007D7E808081818182828282828181807F1C
:103BA0007F7E7E7E7E7E7F7F808181828282828216
:103BB000828281807F7E7D7D7D7D7D7E7F80818212
:103BC0008283838383838281807F7E7E7D7D7D7DF2
:103BD0007E808081818182828281828181807F7FDB
:103BE0007E7E7E7E7E7F7F808181828282828282D3
:103BF0008281807F7E7D7D7D7D7D7E7F80818282D2
:103C000082838382838281807F7F7E7E7D7D7E7EB4
:103C1000808081818182828281828181807F7F7E9A
:103C20007E7E7E7E7F7F808181828282828282828E
:103C300081807F7E7D7D7D7D7D7E7F808181828292
:103C4000838382838281807F7F7E7E7D7E7E7E8075
:103C50008081818182828281828181807F7F7E7E5C
:103C60007E7E7E7F7F80818182828282828282814B
:103C7000807F7E7D7D7D7D7E7E7F80818182828250
:103C80008282828281807F7F7E7E7E7E7E7F808038
:103C900081818181828181828181807F7F7E7E7E20
:103CA0007E7E7F7F80818182828282828282818009
:103CB0007F7E7E7D7D7D7E7E7F808181828282820D
:103CC00082828281807F7F7E7E7E7E7E7F808081F9
:103CD000818181818181828181807F7F7E7E7E7EE4
:103CE0007E7F7F8081818282828282828281807FC8
:103CF0007E7E7D7D7D7E7E7F8081818282828282CA
:103D0000828281807F7F7E7E7E7E7E7F80808181B9
:103D10008181818181818181807F7F7E7E7E7E7FA6
:103D20007F7F8081818282828282828281807F7E87
:103D30007E7D7D7D7E7E7F80818182828282828285
:103D40008281807F7F7E7E7E7E7E7F80808181817A
:103D500081818181818181807F7F7E7E7E7E7F7F68
:103D60007F8081818282828282828281807F7E7E48
:103D70007D7D7E7E7E7F8081818282828282828240
:103D800081807F7F7E7E7E7E7E7F8080808181813C
:103D9000818181818181807F7F7F7E7E7E7F7F7F29
:103DA0008081818182828281828281807F7E7E7E0B
:103DB0007E7E7E7E7F8081818282828282828281FB
:103DC000807F7F7E7E7E7E7E7F80808081818181FC
:103DD0008181818180807F7F7F7E7E7F7F7F8080E9
:103DE00081818182828281828281807F7E7E7E7ECD
:103DF0007E7E7E7F808181828282828282828180B9
:103E00007F7F7E7E7E7E7E7F8080808181818181BA
:103E100081818180807F7F7F7E7E7F7F7F808081A8
:103E2000818182828281818281807F7F7E7E7E7E8F
:103E30007E7F7F8081818282828282828281807F76
:103E40007F7E7E7E7E7E7F80808081818181818178
:103E5000818180807F7F7F7E7E7F7F7F8080818168
:103E60008182828181818181807F7F7E7E7E7E7E54
:103E70007F7F8080818182828282828181807F7F38
:103E80007E7E7E7E7E7F8080808181818181818136
:103E9000818080807F7F7F7F7F7F7F808081818125
:103EA00081828181818181807F7F7E7E7E7E7E7F17
:103EB0007F8080818182828282828181807F7F7FF8
:103EC0007E7E7E7E7F8080808181818181818181F3
:103ED0008080807F7F7F7F7F7F7F808081818181E5
:103EE000818181818181807F7F7E7E7E7E7E7F7FDA
:103EF000808081818282828282818180807F7F7EB8
:103F00007E7E7E7F808080818181818181818180B0
:103F100080807F7F7F7F7F7F7F80808081818181A4
:103F20008181818181807F7F7E7E7E7E7E7F7F809A
:103F30008081818282828282818180807F7F7E7E79
:103F40007E7E7F808080818181818181818180806E
:103F5000807F7F7F7F7F7F7F808080818181818163
:103F600081818181807F7F7E7E7E7E7E7F7F80805B
:103F700081818182828182818180807F7F7F7E7F3B
:103F80007F7F80808081818181818181818080802B
:103F90007F7F7F7F7F7F7F80808081818181818122
:103FA000818181807F7F7E7E7E7E7E7F7F8080811B
:103FB000818182828182818180807F7F7F7E7F7FFD
:103FC0007F80808081818181818181818080807FEB
:103FD0007F7F7F7F7F7F80808081818181818181E0
:103FE0008181807F7F7E7E7E7E7F7F7F80808181DA
:103FF0008181818181818180807F7F7F7F7F7F7FC1
:1040000080808081818181818181818080807F7FAA
:104010007F7F7F7F7F80808081818181818181819D
:1040200081807F7F7F7E7E7E7F7F7F808081818198
:1040300081818181818180807F7F7F7F7F7F7F8081
:10404000808081818181818181818080807F7F7F6B
:104050007F7F7F7F8080808181818181818181815B
:10406000807F7F7F7E7E7E7F7F7F80808181818158
:10407000818181818180807F7F7F7F7F7F7F808042
:104080008081818181818181818080807F7F7F7F2C
:104090007F7F7F808080818181818181818181801A
:1040A0007F7F7F7E7E7F7F7F7F8080818181818116
:1040B0008181818180807F7F7F7F7F7F7F80808003
:1040C00080818181818181818080807F7F7F7F7FEE
:1040D0007F7F808080818181818181818181807FDA
:1040E0007F7F7F7F7F7F7F7F8080818181818181D2
:1040F00081818180807F7F7F7F7F7F7F80808080C4
:10410000818181818181818080807F7F7F7F7F7FAE
:104110007F808080818181818181818181807F7F99
:104120007F7F7F7F7F7F7F8080818181818181818F
:10413000818080807F7F7F7F7F7F7F808080808184
:104140008181818181818080807F7F7F7F7F7F7F70
:10415000808080818181818181818181807F7F7F59
:104160007F7F7F7F7F7F808081818181818181814D
:104170008080807F7F7F7F7F7F7F80808080818144
:1041800081818181818080807F7F7F7F7F7F7F8031
:10419000808081818181818181818080807F7F7F1A
:1041A0007F7F7F7F8080808181818181818181800B
:1041B00080807F7F7F7F7F7F7F8080808081818103
:1041C000818181818080807F7F7F7F7F7F7F8080F2
:1041D0008081818181818181818080807F7F7F7FDB
:1041E0007F7F7F80808081818181818181818080CA
:1041F000807F7F7F7F7F7F7F8080808081818181C2
:104200008181818080807F7F7F7F7F7F80808080B1
:1042100081818181818181818080807F7F7F7F7F9B
:104220007F7F808080818181818181818180808088
:104230007F7F7F7F7F7F7F80808080818181818180
:1042400081818080807F7F7F7F7F7F808080808171
:10425000818181818181818080807F7F7F7F7F7F5D
:104260007F80808081818181818181818080807F48
:104270007F7F7F7F7F7F808080808181818181813E
:1042800080808080807F7F7F7F7F80808080818131
:104290008181818181818080807F7F7F7F7F7F7F1F
:1042A00080808081818181818181818080807F7F08
:1042B0007F7F7F7F7F8080808080818181818180FE
:1042C000808080807F7F7F7F7F80808080808181F1
:1042D00081818181818080807F7F7F7F7F7F7F80E0
:1042E000808081818181818181818080807F7F7FC9
:1042F0007F7F7F7F808080808081818180818080BE
:104300008080807F7F7F7F7F8080808080818181AF
:10431000818181818080807F7F7F7F7F7F7F8080A0
:104320008081818181818181818080807F7F7F7F89
:104330007F7F80808080808081818180818080807B
:1043400080807F7F7F7F7F8080808080818181816E
:104350008181818080807F7F7F7F7F7F7F80808061
:104360008181818181818181808080807F7F7F7F49
:104370007F8080808080808081808081808080803C
:10438000807F7F7F7F7F808080808081818181812D
:1043900081818080807F7F7F7F7F7F7F8080808022
:1043A00081818181818181808080807F7F7F7F7F0B
:1043B00080808080808080808080818080808080FC
:1043C0007F7F7F7F808080808080818181818181EB
:1043D000818080807F7F7F7F7F7F7F8080808081E2
:1043E000818181818181808080807F7F7F7F7F80CC
:1043F0008080808080808080808080808080807FBE
:104400007F7F7F80808080808081818181818181A8
:104410008080807F7F7F7F7F7F7F808080808181A1
:104420008181818181808080807F7F7F7F7F80808C
:1044300080808080808080808080808080807F7F7E
:104440007F7F808080808080818181818081818068
:1044500080807F7F7F7F7F7F7F8080808081818160
:1044600081818181808080807F7F7F7F7F8080804D
:1044700080808080808080808080808080807F7F3E
:104480007F80808080808080818181808181808028
:10449000807F7F7F7F7F7F7F80808080818181811F
:1044A000818181808080807F7F7F7F7F808080800E
:1044B000808080808080808080808080807F7F80FE
:1044C00080808080808080818181808180808080E8
:1044D0007F7F7F7F7F7F80808080808181818181DD
:1044E0008180808080807F7F7F7F7F8080808080D0
:1044F0008080808080808080808080807F7F8080BE
:1045000080808080808081818080808080808080A9
:104510007F7F7F7F7F80808080808081818181819B
:1045200080808080807F7F7F7F7F80808080808090
:10453000808080808080808080808080808080807B
:104540008080808080808080808080808080807F6C
:104550007F7F7F7F8080808080808181818181805A
:1045600080808080807F7F7F7F808080808080804F
:10457000808080808080808080808080808080803B
:1045800080808080808080808080808080807F7F2D
:104590007F7F7F8080808080808181818181808019
:1045A000808080807F7F7F7F80808080808080800F
:1045B00080808080808080808080808080808080FB
:1045C000808080808080808080808080807F7F7FEE
:1045D0007F7F8080808080808081818081808080DA
:1045E000808080807F8080808080808080808080CC
:1045F00080808080808080808080808080808080BB
:104600008080808080808080808080807F7F7F7FAE
:104610007F8080808080808081808080808080809A
:104620008080807F8080808080808080808080808B
:10463000808080808080808080808080808080807A
:1046400080808080808080808080807F7F7F7F806E
:10465000808080808080808080808080808080805A
:10466000808080808080808080808080808080804A
:10467000808080808080808080808080808080803A
:1046800080808080808080808080807F7F7F80802D
:10469000808080808080808080808080808080801A
:1046A000808080808080808080808080808080800A
:1046B00080808080808080808080808080808080FA
:1046C000808080808080808080807F7F80808080EC
:1046D00080808080808080808080808080808080DA
:1046E00080808080808080808080808080808080CA
:1046F00080808080808080808080808080808080BA
:104700008080808080808080807F7F8080808080AB
:104710008080808080808080808080808080808099
:104720008080808080808080808080808080808089
:104730008080808080808080808080808080808079
:104740008080808080808080808080808080808069
:104AC0008080807F817F817EBCB491671930436094
:104AD00090AE8BBBBEAB9C6041436848A5AFA7AC12
:104AE0009D905A4B447781B7AD958F6F6C778E74DC
:104AF0006C848F8797716D7E73798E988F857879A6
:104B000076777B857D7E8696847E747C857D817BB1
:104B1000867E777C827E8082878686837D7C7C7B96
:104B200080807E7D81828581847D7C797D80828686
:104B300081837F8577857191446EBD729BBD7C5367
:104B4000798384668C89755D767F8DB2AB685B51A5
:104B500058A893C9B7814E5561567D9490909A821A
:104B6000856E718D8D8B817D867A5C728993916E55
:104B7000728D86737B8E8376918774767C7C907C35
:104B80006A7E757B8D997D808B82746F7484847A44
:104B90008384847B87837F7B797A7A82828785820C
:104BA0007E797C797D7E83808082807B817F7F811E
:104BB0007D8381878180797D7B897C842F73803799
:104BC000C0EAD46D8148335B84B89A8B71A29D8B07
:104BD0009040466970C0B1A58B6767526E6869A541
:104BE000BCBC966351777D7D8A708178887E89B35D
:104BF00087866F6F7968828790888C7776867E88C3
:104C0000908575756B838E8E85977C63494B769600
:104C1000E6ADAFAC3B26699884A2B694783D6C8330
:104C20007EBA91676B888F5C9274559580A6B1C3EC
:104C30007F462E118BC1C2D994706A5E597CA09DAB
:104C4000967B5746607CB5A58DB5684D977DAE6D5A
:104C50007B8441635DA3A374ABBD416F7F6F617DB6
:104C6000B599919CBB6C6D3B324856D4D394A17CD2
:104C7000758E4777984F86AE9AA4583D52778FBF6E
:104C8000C24E837BAAA85B58146A9994838BC4BBD9
:104C9000B684367C7C616B667F827C837F7C8B5B99
:104CA0006D8A7E9D95798E8280817996A0817782AA
:104CB0007B817785727E798D6761B08D7A7A86780F
:104CC000836A8C8779A49077817A78827984787DD9
:104CD0007C876EA193789AA1A0797B777D7F807A7B
:104CE0007A7D797C7E797B7C7E76827A7A7C7E7B0B
:104CF0007B84777F7C7C7D7C7A7D7D8374867C80E1
:104D0000817A807A8577827C7F7B817C82807F80BC
:104D10007D8380817C837E847B7F7E7F7B807D7DA5
:104D2000837C7E7E7F7D807E7F7D817B7E82817F96
:104D3000807B847A827E7E847A837C817E817F8080
:104D40007E817D837D807F817F7E837C837D837E6A
:104D5000827E8080817F7F837D81817F81817F8151
:104D600080817F81808080817E837F818080817F40
:104D7000827F8080827E827F817F817F828180812D
:104D800080817F837E827F827F80827F817F837F1D
:104D900082827D83817D8480818081818081808009
:104DA00081817F837F81817F8181817E81818081FB
:104DB00081808180818082808181808180818080EA
:104DC00081808181808180818081818080808080DC
:104DD000817F8180808180818080818081808180CD
:104DE00081808180808180818081808180817F81BC
:104DF00080808080808081808080817F827F8180B0
:104E000081817F8180818080803A3A525455483E2A
:104E1000322A2A3D3838373C444F5A66727E8B9688
:104E2000A2ACB7C0C9D1DAE1E9EEF4F7FAFCFDFDB6
:104E3000FCFBF8F5F2EEE8E3DCD4CBC2B8ADA29609
:104E40008B8279726B655F5A55514D4945423F3CA3
:104E50003A3836343231302F2E2D2D2D2C2C2C2C4F
:104E60002C2D2D2E2F303132333536383A3B3D4004
:104E7000424446494C4E5154575A5E6165696D71C2
:104E800075797E82878B90959A9EA3A8ADB2B6BBAA
:104E9000BFC4C8CCD0D4D8DCDFE2E5E8EAECEEF061
:104EA000F1F3F3F4F4F4F3F3F2F1EFEDECEAE7E508
:104EB000E2DFDCD9D6D3CFCCC8C4C1BDB9B5B1AD62
:104EC000A9A5A09C9894908C88837F7B77736F6C46
:104ED0006864605D5956524F4C494643403D3A38EC
:104EE0003533302E2C2A2826252322201F1E1D1C58
:104EF0001C1B1B1A1A1A1A1A1A1B1B1C1D1D1E20FA
:104F00002122242527282A2C2E303335373A3C3FBE
:104F10004144474A4D505356595C6063676A6E710D
:104F200075797D81868A8E93979BA0A4A9ADB2B630
:104F3000BABFC3C7CBCFD2D6DADDE0E3E6E9EBED0B
:104F4000EFF1F2F3F4F5F5F5F5F4F4F3F1F0EEEC3E
:104F5000EAE7E5E2DFDCD9D6D3CFCCC8C5C1BEBA1B
:104F6000B6B2AFABA7A3A09C9894908D8985817EA3
:104F70007A7773706C6966625F5C595654514E4C17
:104F800049474442403E3C3A383735343231302F7D
:104F90002E2D2D2C2B2B2B2B2B2B2B2B2B2C2C2D55
:104FA0002E2F30313233343637393A3C3E4042448A
:104FB00046484A4C4E50525557595C5E616366698B
:104FC0006B6E717376797B7E818486898C8F9295E6
:104FD000989B9DA0A3A6A9ACAEB1B4B6B9BBBEC008
:104FE000C2C4C6C8CACBCDCECFD0D1D2D2D3D3D3F0
:104FF000D3D2D2D1D0CFCECDCCCAC9C7C5C4C2C0FE
:10500000BEBCBAB8B5B3B1AFACAAA8A5A3A19E9CCB
:1050100099979592908D8B888684817F7D7A78761A
:1050200074726F6D6B6968666462605F5D5B5A582D
:10503000575554535251504F4E4D4C4B4B4A4A4981
:105040004948484848484848484849494A4A4B4BD3
:105050004C4D4E4F4F50515354555657595A5B5D16
:105060005E606163646668696B6D6E70727475779B
:10507000797B7C7E8082848587898B8C8E909293CD
:105080009597999A9C9E9FA1A2A4A5A7A8AAABAC0C
:10509000ADAEB0B0B1B2B3B4B4B5B5B5B5B6B6B6E1
:1050A000B5B5B5B4B4B3B2B2B1B0AFAEADACAAA9F8
:1050B000A8A7A6A4A3A2A09F9D9C9A999796949313
:1050C00091908E8C8B898886848381807E7D7B7A8B
:1050D000787775747371706F6D6C6B6A69676665EC
:1050E0006463636261605F5F5E5D5D5C5C5B5B5BD4
:1050F0005A5A5A5A5A59595A5A5A5A5A5A5A5B5B10
:105100005B5C5C5D5D5E5F5F6061616263646566A0
:105110006768696A6B6C6D6E6F70717274757677A3
:10512000787A7B7C7D7E8081828384868788898A69
:105130008B8C8E8F90919293949596979899999A3B
:105140009B9C9D9D9E9F9FA0A0A1A1A2A2A2A2A266
:10515000A2A2A2A2A2A2A2A1A1A1A0A09F9F9E9D45
:105160009D9C9B9B9A9998979696959493929190D3
:105170008F8E8D8C8B8A89888786858483828180B7
:105180007F7E7D7C7B7A797877777675747372729F
:1051900071706F6F6E6D6D6C6B6B6A6A696969684F
:1051A0006867676767666666666666666666666699
:1051B0006666676767676868686969696A6A6B6B6A
:1051C0006C6C6D6E6E6F6F707171727374747576D6
:1051D000777778797A7A7B7C7D7E7E7F8081818209
:1051E0008384848586878788898A8A8B8C8C8D8D39
:1051F0008E8F8F9090919192929393939494949593
:105200009595959696969696969696969695959544
:1052100095959494949393939292919190908F8F6B
:105220008E8E8D8D8C8B8B8A8A89888887868685E1
:1052300084848382828180807F7F7E7D7D7C7B7B76
:105240007A7A7978787777767675757474747373FB
:1052500072727271717170707070706F6F6F6F6F4A
:105260006F6F6F6F6F6F6F6F6F6F6F6F6F7070704B
:105270007070717171727272737373747474757506
:1052800076767777787879797A7A7B7B7C7C7D7D86
:105290007E7E7F7F808081818282838384848585F6
:1052A000868687878788888989898A8A8A8B8B8B73
:1052B0008C8C8C8C8D8D8D8D8D8E8E8E8E8E8E8E1B
:1052C0008E8E8E8E8E8E8E8E8E8D8D8D8D8D8D8C06
:1052D0008C8C8C8B8B8B8A8A8A8A89898888888730
:1052E000878786868585858484838382828281817F
:1052F00080807F7F7F7E7E7D7D7D7C7C7B7B7B7ADB
:105300007A7A797979787878787777777776767620
:10531000767676757575757575757575757575753A
:105320007575757575757575757676767676767725
:1053300077777777787878787979797A7A7A7B7BE2
:105340007B7B7C7C7C7D7D7D7E7E7E7F7F7F808085
:105350008081818182828283838384848485858520
:1053600085868686868687878787878888888888CF
:1053700088888889898989898989898989898989A0
:10538000898989888888888888888888878787879E
:1053900087878686868686858585858484848483BA
:1053A00083838382828282818181808080807F7FEB
:1053B0007F7F7E7E7E7E7D7D7D7D7C7C7C7C7C7B1C
:1053C0007B7B7B7B7B7A7A7A7A7A7A7A7A7979793B
:1053D000797979797979797979797979797979793D
:1053E00079797979797A7A7A7A7A7A7A7A7B7B7B1F
:1053F0007B7B7B7C7C7C7C7C7C7D7D7D7D7D7E7EE7
:105400007E7E7E7F7F7F7F7F8080808081818181A3
:105410008182828282828283838383838384848461
:105420008484848485858585858585858585858530
:105430008585858586868686858585858585858518
:105440008585858585858585848484848484848414
:105450008483838383838383828282828282818125
:10546000818181818080808080807F7F7F7F7F7F3E
:105470007F7E7E7E7E7E7E7E7D7D7D7D7D7D7D7D53
:105480007D7C7C7C7C7C7C7C7C7C7C7C7C7C7C7C5B
:105490007C7C7C7C7C7C7C7C7C7C7C7C7C7C7C7C4C
:1054A0007C7C7C7C7C7C7D7D7D7D7D7D7D7D7D7D32
:1054B0007D7E7E7E7E7E7E7E7E7F7F7F7F7F7F7F06
:1054C0007F808080808080808081818181818181D6
:1054D00081828282828282828282828283838383A9
:1054E000838383838383838383838383838383838C
:1054F000838383838383838383838383838383837C
:105500008383838383838282828282828282828275
:10551000828281818181818181818181818080807C
:10552000808080808080807F7F7F7F7F7F7F7F7F84
:105530007F7F7F7E7E7E7E7E7E7E7E7E7E7E7E7E88
:105540007E7E7E7E7E7E7E7E7D7D7D7D7D7D7D7D83
:105550007D7D7D7D7D7D7E7E7E7E7E7E7E7E7E7E71
:105560007E7E7E7E7E7E7E7E7E7E7E7F7F7F7F7F56
:105570007F7F7F7F7F7F7F7F7F8080808080808034
:105580008080808080808181818181818181818111
:1055900081818181818181828282828282828282F2
:1055A00082828282828282828282828282828282DB
:1055B00082828282828282828282828282828282CB
:1055C00082818181818181818181818181818181CA
:1055D00081818181808080808080808080808080C7
:1055E00080808080807F7F7F7F7F7F7F7F7F7F7FC6
:1055F0007F7F7F7F7F7F7F7F7F7F7F7F7F7F7F7EBC
:105600007E7E7E7E7E7E7E7E7E7E7E7E7E7E7E7EBA
:105610007E7E7F7F7F7F7F7F7F7F7F7F7F7F7F7F9C
:105620007F7F7F7F7F7F7F7F7F7F7F7F7F7F7F8089
:10563000808080808080808080808080808080806A
:10564000808080808081818181818181818181814F
:10565000818181818181818181818181818181813A
:10566000818181818181818181818181818181812A
:10567000818181818181818181818181818181811A
:105680008181818181818181808080808080808012
:10569000808080808080808080808080808080800A
:1056A00080808080807F7F7F7F7F7F7F7F7F7F7F05
:1056B0007F7F7F7F7F7F7F7F7F7F7F7F7F7F7F7FFA
:1056C0007F7F7F7F7F7F7F7F7F7F7F7F7F7F7F7FEA
:1056D0007F7F7F7F7F7F7F7F7F7F7F7F7F7F7F7FDA
:1056E00080808080808080808080808080808080BA
:1056F00080808080808080808080808080808080AA
:105700008080808080808080808181818181818192
:105710008181818181818181818181818181818179
:105720008181818181818181818181818181818169
:105730008181818181818180808080808080808062
:105740008080808080808080808080808080808059
:105750008080808080808080808080808080808049
:105760008080808080808080808080808080808039
:1057700080807F7F7F7F7F7F7F7F7F7F7F7F7F7F37
:105780007F7F7F7F7F7F808080808080808080801F
:105790008080808080808080808080808080808009
:1057A00080808080808080808080808080808080F9
:1057B00080808080808080808080808080808080E9
:1057C00080808080808080808080808080808080D9
:105B00008080808080808080808011241FBECFEFC5
:105B1000CDBFDFE7DEBF8091400080934000811160
:105B200005C098ED21E094BF209341008CBB80E339
:105B30008093011088ED90EB84BF9093011010E4E6
:105B4000A0E0B0E4EEE8F1E600E00BBF02C0079091
:105B50000D92A433B107D9F720E4A4E3B0E401C067
:105B60001D92AA36B207E1F7F2D00FC30C940000E1
:105B7000CF93DF9330E020E04BE0429FF001439F62
:105B8000F00D1124EC5CFF4BEF012A965285511168
:105B900022C0DC01AA0FBB1FAC5DBF4B2D913C9115
:105BA00020833183880F991F880F991FDC01AC5F18
:105BB000BF4B8D919D910D90BC91A02D82839383BD
:105BC000A483B583168217821086118681E08883AC
:105BD000DF91CF9108952F5F3F4F2430310569F653
:105BE000F7CFEF93FF93E6E6F0E48F938FB78F93B1
:105BF00080818F5F808381818F4F818382818F4FEE
:105C0000828383818F4F838381E08093260B8F91E2
:105C10008FBF8F91FF91EF9118951F920F920FB642
:105C20000F9211240BB60F92CF92DF92EF92FF9258
:105C30002F933F934F935F936F937F938F939F9394
:105C4000AF93BF93CF93EF93FF9330E020E090E0CA
:105C500080E0CBE0C29FD001C39FB00D1124AC5CAB
:105C6000BF4B1A964C911A97442399F1ED91FC91F0
:105C7000119716964D915D916D917C911997E40F56
:105C8000F51FE491E058FF0B8E0F9F1F16964D9164
:105C90005D916D917C9119974F5F5F4F6F4F7F4F73
:105CA00016964D935D936D937C9319971696CD90B0
:105CB000DD90ED90FC90199712964D915D916D914C
:105CC0007C911597C416D506E606F70610F01A96CD
:105CD0001C922F5F3F4F2430310509F0BBCF880F56
:105CE000991F880F991F9E5F97FF02C090E080E088
:105CF000811524E0920714F08FEF93E09C0146E0B9
:105D0000220F331F4A95E1F72093A20695958795B8
:105D1000959587958093A30681E08093060BFF916C
:105D2000EF91CF91BF91AF919F918F917F916F91A3
:105D30005F914F913F912F91FF90EF90DF90CF9027
:105D40000F900BBE0F900FBE0F901F90189588ED0F
:105D500094E284BF9093680021E02093030A8EEFC1
:105D60008093260A8093270A9BE09093000A209351
:105D7000430A8093660A8093670A9093400A32E050
:105D80003093E6059093E70537E03093010B80935D
:105D90000C0B10920D0B95E09093000B3093110BB0
:105DA00080931C0B10921D0B9093100B3093310BB2
:105DB00080933C0B10923D0B9093300B4FEF5FE0C4
:105DC0004093AA0B5093AB0B80E88093820B109208
:105DD000810B4BEF53E04093AE0B5093AF0B81E739
:105DE0008093800B1092E805E0E0F6E092838EE06D
:105DF000858380E68383908385E582953091B20028
:105E0000387F8770832B8093B2004FED5EE2409322
:105E10002C0B50932D0B2093250B1092210B83E01C
:105E20008093200B789484E0809370049093B0006A
:105E300020930006809302061092080620930A061B
:105E400080910D0680FFFCCF6091100670911106C5
:105E500090E080E0611571058105910509F02FD171
:105E600084E08093760490E89093B20091EC909354
:105E7000A0068093720481E08093000797E19093DD
:105E8000020795E0909310079FE79093140792E222
:105E9000909313071092000B1092010B2BED35E03D
:105EA00020930C0B30930D0B8093050B8093000B0C
:105EB00084E6C82ED12CE12CF12C97E0892E912C70
:105EC000A12CB12C2FB7F894809166409091674037
:105ED000A0916840B09169402FBF409162405091BD
:105EE000634060916440709165408C019D01041B8A
:105EF000150B260B370BB901A8014D37510561056C
:105F0000710500F38093624090936340A0936440D6
:105F1000B09365408091604090916140892B19F465
:105F200090E080E025DE7FD0A7019601D1D06C33D0
:105F300071058105910554F476D0A5019401C8D06E
:105F4000DC01CB010196A11DB11D12DE6CD0A701B1
:105F50009601BED06E3171058105910554F463D070
:105F6000A5019401B5D0DC01CB010196A11DB11DA5
:105F7000FFDD809160409091614001968093604088
:105F80009093614004970CF49DCF10926040109262
:105F9000614098CF8F929F92AF92BF92CF92DF9243
:105FA000EF92FF92CF93DF93EC01688179818A8130
:105FB0009B81611571058105910521F464E279EDFC
:105FC0008BE597E02DE133EF41E050E081D04901CE
:105FD0005A019B01AC01A7EAB1E496D06B017C01A8
:105FE000ACEEB4EFA50194019BD0C60ED71EE81EFF
:105FF000F91EF7FE06C081E0C81AD108E10880E862
:10600000F80AC882D982EA82FB82C701B6019F776B
:10601000DF91CF91FF90EF90DF90CF90BF90AF9046
:106020009F908F9008958F929F92AF92BF92CF9240
:10603000DF92EF92FF926091004070910140809159
:10604000024090910340611571058105910521F48D
:1060500064E279ED8BE597E02DE133EF41E050E02C
:1060600037D049015A019B01AC01A7EAB1E44CD0F9
:106070006B017C01ACEEB4EFA501940151D0C60ECA
:10608000D71EE81EF91EF7FE06C081E0C81AD10827
:10609000E10880E8F80AC0920040D0920140E09206
:1060A0000240F0920340C701B6019F77FF90EF9046
:1060B000DF90CF90BF90AF909F908F9008956093A6
:1060C00000407093014080930240909303400895F4
:1060D000052E97FB16F400940FD057FD05D024D061
:1060E00007FC02D046F408C05095409530952195A4
:1060F0003F4F4F4F5F4F08959095809570956195F4
:106100007F4F8F4F9F4F089531D0A59F900DB49F23
:10611000900DA49F800D911D11240895B7FFF4CF19
:10612000F3DF821B930B0895A1E21A2EAA1BBB1B5F
:10613000FD010DC0AA1FBB1FEE1FFF1FA217B30753
:10614000E407F50720F0A21BB30BE40BF50B661F69
:10615000771F881F991F1A9469F76095709580952D
:1061600090959B01AC01BD01CF010895A29FB001A4
:10617000B39FC001A39F700D811D1124911DB29F7B
:0E618000700D811D1124911D0895F894FFCF1C
:10618E0001000000040D00006E010000D5010000AA
:10619E00F41B0000DB0B00000313000005050000DC
:1061AE00F8090000064E984CC34ACF2EF422F10F88
:0461BE00EC0AF400F3
:00000001FF
