:1000000079C00000A8C00000A6C00000A4C0000085
:10001000A2C00000A0C000009EC000009CC0000064
:100020009AC0000098C0000096C0000094C0000074
:1000300092C0000090C00000EFC000008CC0000023
:100040008AC0000088C0000086C0000084C0000094
:1000500082C0000080C000007EC000007CC00000A4
:100060007AC0000078C0000076C0000074C00000B4
:1000700072C0000070C000006EC00000B1C000007F
:100080006AC0000068C0000066C0000064C00000D4
:1000900062C0000060C000005EC000005CC00000E4
:1000A0005AC0000058C0000056C0000054C00000F4
:1000B00052C0000050C000004EC000004CC0000004
:1000C0004AC0000048C0000046C0000044C0000014
:1000D00042C0000040C000003EC000003CC0000024
:1000E0003AC0000038C0000036C0000034C0000034
:1000F00032C0000011241FBECFEFCDBFDFE7DEBF4F
:100100008091400080934000811105C098ED21E06E
:1001100094BF209341008CBB80E38093011088ED55
:1001200090EB84BF9093011010E4A0E0B0E4ECE801
:10013000FAE000E00BBF02C007900D92A430B107B7
:10014000D9F724E4A4E0B0E401C01D92A13CB207B9
:10015000E1F7FFD099C454CF9FB7F894E0912A0BF0
:10016000F0912B0B8091260B2091BD443091BE4421
:100170004091BF445091C0449FBF80FF08C0CF0151
:100180008827892B21F42F5F3F4F4F4F5F4F0F017F
:10019000169407941694079416940794169407944B
:1001A000F00116940794E00DF11D16940794102C9D
:1001B000169401181694010C169401181694010C4B
:1001C0001694011816941694010C1124E019F109E3
:1001D000A8EEB3E0CAD26E0F7F1F811D911D089556
:1001E000EF93FF93EDEBF4E48F938FB78F938081C0
:1001F0008F5F808381818F4F818382818F4F828344
:1002000083818F4F838381E08093260B8F918FBFF3
:100210008F91FF91EF9118951F920F920FB60F9249
:1002200011240BB60F92EF92FF920F931F932F930F
:100230003F934F935F936F937F938F939F93AF936E
:10024000BF93CF93DF93EF93FF93E091B644F09188
:10025000B744EE0FFF1FEA5FFF4B20813181809191
:10026000044090910540820F931FFC01F595E7959E
:100270002093044030930540A091BB44B091BC440E
:10028000C091B644D091B744CC0FDD1FCA5FDF4B9D
:10029000AF010F2E000C660B770B7A018B01222722
:1002A0003327A9012E193F09400B510B5ED2AFE055
:1002B0009595879577956795AA95D1F76883798302
:1002C000CF019E5F811504E0900710F08FEF93E05F
:1002D000282F2295220F220F207C2093A20696958C
:1002E0008795969587958093A3068091B6449091C3
:1002F000B74401968093B6449093B7442091B64496
:100300003091B7448091B8449091B9442817390787
:1003100024F01092B6441092B74481E08093060B0B
:10032000FF91EF91DF91CF91BF91AF919F918F910D
:100330007F916F915F914F913F912F911F910F91FD
:10034000FF90EF900F900BBE0F900FBE0F901F907D
:10035000189588ED94E284BF9093680021E0209383
:10036000030A8EEF8093260A8093270A9BE09093DE
:10037000000A2093430A8093660A8093670A909349
:10038000400A32E03093E6059093E70537E030937A
:10039000010B80930C0B10920D0B95E09093000BCA
:1003A0003093110B80931C0B10921D0B9093100B2C
:1003B0003093310B80933C0B10923D0B9093300B9C
:1003C0004FEF5FE04093AA0B5093AB0B80E8809314
:1003D000820B1092810B4BEF53E04093AE0B509386
:1003E000AF0B81E78093800B1092E805E0E0F6E028
:1003F00092838EE0858380E68383908385E5829572
:100400003091B200387F8770832B8093B2004FED1C
:100410005EE240932C0B50932D0B2093250B1092F2
:10042000210B83E08093200B789484E08093700408
:100430009093B00020930006809302061092080665
:1004400020930A0680910D0680FFFCCF6091100674
:100450007091110690E080E06115710581059105AC
:1004600009F05ED184E08093760490E89093B20026
:1004700091EC9093A0068093720481E08093000732
:1004800097E19093020795E0909310079FE7909370
:10049000140792E2909313071092000B1092010B35
:1004A0002FE334E020930C0B30930D0B8093050B5E
:1004B0008093000B2DE0822E912CA12CB12C32E3E5
:1004C000C32ED12CE12CF12C22242A9433243394F2
:1004D000DBD02B013C01D8D024E331E240E050E0F6
:1004E00028D16C5E7F4A6093BB447093BC44CCD0EF
:1004F000A50194011ED16F5F7F4F8F4F9F4F609377
:10050000BA44C301B201A701960113D1685D7F4FC0
:100510008F4F9F4F06D29B01AC0160E074E48CEAE0
:1005200096E464D1CBD16A30710514F46AE070E0CE
:100530009B016935724014F028E532E02093B844FD
:100540003093B9441092B6441092B7446091BA44C3
:10055000062E000C770BC90170D28B016430710537
:1005600014F404E010E0C6E0D0E4F0E0E0E0E017CE
:10057000F10704F5C101B80160D26E9FC0016F9F01
:10058000900D7E9F900D1124A101481B590B4883AB
:10059000598331962296E217F3074CF3220F331F4B
:1005A000F901EA5FFF4B54E4E63BF50731F01192A5
:1005B0001192F9CF18821982ECCF10920440109258
:1005C0000540CADDEB018AEF482E512C612C712CBD
:1005D000C3DD6C1B7D0B683E7340D0F341E0441AD1
:1005E000510861087108C851DC4F4114510461047D
:1005F000710471F76DCF8F929F92AF92BF92CF929D
:10060000DF92EF92FF92CF93DF93EC0168817981C3
:100610008A819B81611571058105910521F464E250
:1006200079ED8BE597E02DE133EF41E050E081D0AB
:1006300049015A019B01AC01A7EAB1E496D06B01D4
:100640007C01ACEEB4EFA50194019BD0C60ED71E81
:10065000E81EF91EF7FE06C081E0C81AD108E108BD
:1006600080E8F80AC882D982EA82FB82C701B60113
:100670009F77DF91CF91FF90EF90DF90CF90BF9069
:10068000AF909F908F9008958F929F92AF92BF925C
:10069000CF92DF92EF92FF92609100407091014003
:1006A000809102409091034061157105810591058B
:1006B00021F464E279ED8BE597E02DE133EF41E041
:1006C00050E037D049015A019B01AC01A7EAB1E4DF
:1006D0004CD06B017C01ACEEB4EFA501940151D07C
:1006E000C60ED71EE81EF91EF7FE06C081E0C81A26
:1006F000D108E10880E8F80AC0920040D092014099
:10070000E0920240F0920340C701B6019F77FF904C
:10071000EF90DF90CF90BF90AF909F908F90089513
:100720006093004070930140809302409093034097
:100730000895052E97FB16F400940FD057FD05D0B1
:1007400024D007FC02D046F408C05095409530955F
:1007500021953F4F4F4F5F4F08959095809570952D
:1007600061957F4F8F4F9F4F089531D0A59F900D7A
:10077000B49F900DA49F800D911D11240895B7FF83
:10078000F4CFF3DF821B930B0895A1E21A2EAA1B6C
:10079000BB1BFD010DC0AA1FBB1FEE1FFF1FA21731
:1007A000B307E407F50720F0A21BB30BE40BF50B2E
:1007B000661F771F881F991F1A9469F760957095B7
:1007C000809590959B01AC01BD01CF010895A29F3A
:1007D000B001B39FC001A39F700D811D1124911D15
:1007E000B29F700D811D1124911D08950CD0EBC096
:1007F000E3D040F0DAD030F021F45F3F19F0CCC004
:10080000511115C1CFC0F0D098F39923C9F35523E6
:10081000B1F3951B550BBB27AA27621773078407F3
:1008200038F09F5F5F4F220F331F441FAA1FA9F3A9
:1008300033D00E2E3AF0E0E830D091505040E6959B
:10084000001CCAF729D0FE2F27D0660F771F881FFC
:10085000BB1F261737074807AB07B0E809F0BB0BEB
:10086000802DBF01FF2793585F4F2AF09E3F51050F
:1008700068F092C0DCC05F3FECF3983EDCF38695F5
:1008800077956795B795F7959F5FC9F7880F911D85
:100890009695879597F90895E1E0660F771F881F71
:1008A000BB1F621773078407BA0720F0621B730B24
:1008B000840BBA0BEE1F88F7E095089504D0689476
:1008C000B111B5C0089598D088F09F5790F0B92F16
:1008D0009927B751A0F0D1F0660F771F881F991F95
:1008E0001AF0BA95C9F712C0B13081F09FD0B1E0CB
:1008F00008959CC0672F782F8827B85F39F0B93FDB
:10090000CCF3869577956795B395D9F73EF4909596
:100910008095709561957F4F8F4F9F4F0895E89414
:1009200009C097FB3EF490958095709561957F4F37
:100930008F4F9F4F9923A9F0F92F96E9BB279395E5
:10094000F695879577956795B795F111F8CFFAF4F5
:10095000BB0F11F460FF1BC06F5F7F4F8F4F9F4F26
:1009600016C0882311F096E911C0772321F09EE884
:10097000872F762F05C0662371F096E8862F70E0EA
:1009800060E02AF09A95660F771F881FDAF7880FC4
:100990009695879597F9089597F99F6780E870E095
:1009A00060E008959FEF80EC089500240A941616E5
:1009B000170618060906089500240A94121613064D
:1009C000140605060895092E0394000C11F48823DB
:1009D00052F0BB0F40F4BF2B11F460FF04C06F5FF7
:1009E0007F4F8F4F9F4F089557FD9058440F551FCD
:1009F00059F05F3F71F04795880F97FB991F61F0A1
:100A00009F3F79F087950895121613061406551F17
:100A1000F2CF4695F1DF08C0161617061806991F83
:100A2000F1CF86957105610508940895E894BB2778
:100A300066277727CB0197F9089597FB072E16F4C1
:100A4000009406D077FD08D00BD007FC05D03EF40B
:100A5000909581959F4F0895709561957F4F08956A
:100A6000AA1BBB1B51E107C0AA1FBB1FA617B707D4
:100A700010F0A61BB70B881F991F5A95A9F78095F0
:0C0A80009095BC01CD010895F894FFCFC3
:040A8C000100000065
:00000001FF
