:1000000088C00000B8C00000B6C00000B4C0000046
:10001000B2C00000B0C00000AEC00000ACC0000024
:10002000AAC00000A8C00000A6C00000A4C0000034
:10003000A2C00000A0C00000D0C200009CC0000010
:100040009AC0000098C0000096C0000094C0000054
:1000500092C0000090C000008EC000008CC0000064
:100060008AC0000088C0000086C0000084C0000074
:1000700082C0000080C000007EC0000092C200006C
:100080007AC0000078C0000076C0000074C0000094
:1000900072C0000070C000006EC000006CC00000A4
:1000A0006AC0000068C0000066C0000064C00000B4
:1000B00062C0000060C000005EC000005CC00000C4
:1000C0005AC0000058C0000056C0000054C00000D4
:1000D00052C0000050C000004EC000004CC00000E4
:1000E0004AC0000048C0000046C0000044C00000F4
:1000F00042C0000005A84CCDB2D44EB93836A90292
:100100000C50B9918688083CA6AAAA2ABE00000015
:10011000803F11241FBECFEFCDBFDFE7DEBF809150
:10012000400080934000811105C098ED21E094BF0C
:10013000209341008CBB80E38093011088ED90EB0D
:1001400084BF9093011010E4A0E0B0E4E0EFF2E18E
:1001500000E00BBF02C007900D92A630B107D9F79F
:1001600026E4A6E0B0E401C01D92AF38B207E1F783
:10017000BBD20C94760944CFE0E0F82FFF0FFF0FBD
:100180009F01220F232F221F330B3195C90199277D
:10019000F7FD1DC0880F991FFC01E85FFD4B8081B2
:1001A0009181FA01808391833395C9019927313078
:1001B000A9F4E0E0F1E0E81BF90BEE0FFF1FE85FA8
:1001C000FD4B80819181FB01808391830895E0E064
:1001D000F1E0E81BF90BEE0FFF1FDFCF880F991F2F
:1001E000FC01E85FFD4B808191819195819591099A
:1001F000EACF2F923F924F925F926F927F928F92AF
:100200009F92AF92BF92CF92DF92EF92FF920F93A5
:100210001F93CF93DF93CDB7DEB76A97CDBFDEBF15
:100220001C019395A6E0B1E4F101119211921D9287
:100230001D92E817F907C9F7B6E0CB2EB0E4DB2E24
:1002400006E011E4710180E8482E512C612C712CDC
:10025000AA24A394B12C9501220F331F2D833E8332
:10026000F901E55FF94B8080918036E083169104B7
:100270000CF44FC0F60184819581A681B781840D6D
:10028000951DA61DB71D9370AA27BB278483958350
:10029000A683B783AE014F5F5F4FBE016D5F7F4F97
:1002A0006BDFAB81BC8194010E945609EFE095950C
:1002B000879577956795EA95D1F7D70112966D9353
:1002C0007C931397A981BA81F1D7FFE09595879523
:1002D00077956795FA95D1F7F80162837383D70113
:1002E00012962D913C918D819E81919581959109D8
:1002F0009395F101E80FF91F208331838A5F9E4BAC
:10030000F80122813381319521953109DC012D934A
:100310003C93BFEFAB1ABB0AE4E0CE0ED11CF0E871
:100320004F0E511C611C711C22E0E20EF11C0E5F8D
:100330001F4F411430E253066104710409F08BCF62
:1003400076E0A72E71E4B72ED10130E020E041E045
:1003500050E006E010E070E060E090E080E07A01BC
:10036000062E02C0EE0CFF1C0A94E2F7E222F322F2
:10037000EF2861F07801E61AF70AFA0102C0EE0FE1
:10038000FF1FEA94E2F77F018E2B9F296F5F7F4F5B
:100390006730710521F728173907F4F4ED90FC90C8
:1003A0001197880F991FB101680F791FFB01C08059
:1003B000D180CD92DC921197E082F182F5016081CB
:1003C00071818A5F9E4BFC01E080F180F501E08243
:1003D000F182FC01608371832F5F3F4F1296F2E040
:1003E000AF0EB11C2038310509F0B5CF87E090E0A1
:1003F0008D879E8701E010E03801660C771C80E84D
:1004000090E0B30137D7698F7A8F6301CC0CDD1C84
:10041000CF8AD88E26E031E42F83388729863A8622
:100420001B861C86512C412CAE014F5F5F4FBE01D5
:100430006D5F7F4F8B859C859FDEEB81FC81EF8715
:10044000F88BC980DA80CB8ADC8AEF81F885498510
:100450005A854D825E826A01C60CD71CD601ED908A
:10046000FC909F01260D371D2D8B3E8BD9010D90E1
:10047000BC91A02DA98BBA8B9701AF85B88916D7EF
:100480004B015C0129893A89AB89BC890FD7861A4F
:10049000970AA80AB90A8FE0B594A794979487940D
:1004A0008A95D1F7DA018D919C9188199909D60125
:1004B0008D939C939701AB89BC89F8D66B017C0125
:1004C0002F853889A989BA89F1D6C60ED71EE81EAC
:1004D000F91E9FE0F594E794D794C7949A95D1F7C5
:1004E000808191818C199D09AD89BE898D939C93E2
:1004F000DA018D919C911197880E991E8D929C9294
:1005000060817181C60ED71EC082D182CD80DE800F
:10051000C60CD71CCD82DE82CF88D88C4C0D5D1DD9
:10052000EC0DFD1D2D813E81203831050CF493CF5B
:100530003FEF431A530ACB84DC84298D3A8DC20ED7
:10054000D31ECB86DC8689859A85029689879A8711
:10055000AF81B8851296AF83B8874016510609F06F
:1005600063CF2D853E85215031092D873E8783013C
:10057000232B09F041CF6A96CDBFDEBFDF91CF912B
:100580001F910F91FF90EF90DF90CF90BF90AF90B1
:100590009F908F907F906F905F904F903F902F90A3
:1005A0000895EF93FF93EBE8F6E48F938FB78F9363
:1005B00080818F5F808381818F4F818382818F4F84
:1005C000828383818F4F838381E08093260B8F9179
:1005D0008FBF8F91FF91EF9118951F920F920FB6D9
:1005E0000F9211240BB60F922F934F935F936F933B
:1005F0007F938F939F93AF93BF93EF93FF938091DC
:100600000A46E0910642F0910742EE0FFF1F81116A
:1006100064C0E65FFB4B80819181959587959595A8
:1006200087959E5F97FD5CC0092E000CAA0BBB0B43
:10063000811524E09207A105B10524F08FEF93E026
:10064000A0E0B0E0AC01BD0126E0440F551F661FDD
:10065000771F2A95D1F74093A20642E0B595A7955A
:10066000979587954A95D1F78093A3068091064286
:1006700090910742019680930642909307428091A1
:100680000642909107428038910594F010920642FC
:10069000109207428091004081110AC090910A4651
:1006A00081E0911180E080930A4681E080930040D0
:1006B00081E08093060BFF91EF91BF91AF919F91E5
:1006C0008F917F916F915F914F912F910F900BBE02
:1006D0000F900FBE0F901F901895E65FFA4B9BCFBF
:1006E00080E090E0DC01AECF88ED94E284BF90938F
:1006F000680021E02093030A8EEF8093260A8093FE
:10070000270A9BE09093000A2093430A8093660A8D
:100710008093670A9093400A32E03093E605909305
:10072000E70537E03093010B80930C0B10920D0B13
:1007300095E09093000B3093110B80931C0B10925B
:100740001D0B9093100B3093310B80933C0B109248
:100750003D0B9093300B4FEF5FE04093AA0B50930B
:10076000AB0B80E88093820B1092810B4BEF53E030
:100770004093AE0B5093AF0B81E78093800B1092A8
:10078000E805E0E0F6E092838EE0858380E68383EF
:10079000908385E582953091B200387F8770832BF6
:1007A0008093B2004FED5EE240932C0B50932D0BE3
:1007B0002093250B1092210B83E08093200B7894DB
:1007C00084E0809370049093B0002093000680939F
:1007D00002061092080620930A0680910D0680FFFB
:1007E000FCCF609110067091110690E080E06115D9
:1007F00071058105910509F0D2D208E012E4D0E03C
:10080000C0E0BE010D2E000C880B990B61D32BEDBF
:100810003FE049EC50E4C0D320E030E040E85AE348
:10082000BBD31DD420E03EEF4FEF56E4B5D31DD32C
:10083000F801619371938F012196C115F1E0DF07F3
:1008400001F78FEF9FE7809308449093094484E079
:100850008093760490E89093B20091EC9093A00678
:100860008093720481E08093000797E190930207E0
:1008700095E0909310079FE79093140792E290936E
:1008800013071092000B1092010B27EE33E0209318
:100890000C0B30930D0B8093050B8093000B0FE135
:1008A000802E912CA12CB12C84E6682E712C9DE712
:1008B000292E312C412C512C26D224E630E040E068
:1008C00050E076D260317105810591050CF068C069
:1008D0001AD2A50194016CD26B017C012FEFC21AD0
:1008E000D20AE20AF20AE6010ED228E030E040E045
:1008F00050E05ED26830710581059105F0F4FB018E
:10090000ED57FB4FCAC48B0485059705A705BD05A8
:10091000DC05F5051106F7D1CC0FDD1FC55FD94BFE
:1009200008811981A201910143D2675E7F4F8F4FE9
:100930009F4F600F711F6883798330E020E0F901D9
:10094000EE0FFF1FDF01A55FB94B8D919C9118162B
:1009500019060CF540E650E02C3031053CF048E536
:1009600050E02233310514F44CE550E0E55FF94BDB
:1009700060817181649FC001659F900D749F900D8F
:100980001124B30177D460837183808191810597AD
:1009900014F4108211822F5F3F4F2034310579F615
:1009A000B2D12CE231E040E050E002D26230710579
:1009B000810591050CF052C0A6D1A5019401F8D192
:1009C0006B017C01F4E0CF0ED11CE11CF11C9BD12A
:1009D00028E730E040E050E0EBD18B019C01025E63
:1009E0001F4F2F4F3F4F8CEF9FEFE6012197A5E060
:1009F000B0E0AC014C0D5D1D9E01280F391F2F3357
:100A0000310540F5440F551FFA01E55FF94B608150
:100A100071819C0197FF04C022273327281B390BC3
:100A2000FD01E21BF30BE09F9001E19F300DF09F71
:100A3000300D112437FF02C0295F3F4FE3E03595A9
:100A40002795EA95E1F7260F371F455F594BFA01C5
:100A50002083318301968530910559F654D120E9E0
:100A600031E040E050E0A4D164307105810591058A
:100A70000CF03CC048D123E230E040E050E098D197
:100A80006B017C01FFE0CF0ED11CE11CF11C3BD1BE
:100A9000E601CC0FDD1F8E01055F194BF801E080E8
:100AA000F1802CE330E040E050E082D16C5E7F4F7B
:100AB0008F4F9F4F6E0D7F1DF80160837183C0348F
:100AC000D105A4F420D1CC0FDD1FC55FD94B08811F
:100AD000198126E430E040E050E06AD1625E7F4F49
:100AE0008F4F9F4F600F711F688379838091004003
:100AF000882309F4E1CE80910A468111B8C08AE0CA
:100B000095E477DB10920040D7CEF601EE0FFF1F81
:100B1000E55FF94B208131814CE5429FC001439F45
:100B2000900D1124B301A6D36083718306CFEBD05F
:100B30002CED30E040E050E03BD1625E7F4F8F4FC4
:100B40009F4FF601EE0FFF1FE55FF94BEDCFF6016A
:100B5000EE0FFF1FDF01A55FB94B8D919C91EE0F4A
:100B6000FF1FE55FF94B2081318163E070E082D3A4
:100B7000260F371F20833183E0CE23970CF4DDCE80
:100B8000C60181709927892B09F0D7CEF601EE0FA7
:100B9000FF1FE55FF94B80819181F601F595E7959F
:100BA000EE0FFF1FE55FF94B2081318167E070E0B8
:100BB00061D3620F731FB8CF30E020E0CAE5F901BE
:100BC000EE0FFF1FE55FF94B40815181C49FC001CB
:100BD000C59F900D1124B3014DD3608371832F5FA6
:100BE0003F4F2032310559F7A8CEF601EE0FFF1F17
:100BF000E55FF94B8081918145E04C9DF0014D9D71
:100C0000F00D1124F7FD3396F595E795F595E795E9
:100C1000EE0FFF1FE55FF94B2081318169E070E045
:100C2000A6CF71D0A5019401C3D06B017C01EFEF79
:100C3000CE1ADE0AEE0AFE0A30E020E0C2E6F90132
:100C4000EC0DFD1DEE0FFF1FE55FF94B408151815B
:100C5000C49FC001C59F900D1124B3010BD36083C5
:100C600071832F5F3F4F2530310549F766CE8AE00B
:100C700094E447CF8F929F92AF92BF92CF92DF9230
:100C8000EF92FF92CF93DF93EC01688179818A81A3
:100C90009B81611571058105910521F464E279ED6F
:100CA0008BE597E02DE133EF41E050E081D0490141
:100CB0005A019B01AC01A7EAB1E496D06B017C011B
:100CC000ACEEB4EFA50194019BD0C60ED71EE81E72
:100CD000F91EF7FE06C081E0C81AD108E10880E8D5
:100CE000F80AC882D982EA82FB82C701B6019F77DF
:100CF000DF91CF91FF90EF90DF90CF90BF90AF90BA
:100D00009F908F9008958F929F92AF92BF92CF92B3
:100D1000DF92EF92FF9260910140709102408091CA
:100D2000034090910440611571058105910521F4FE
:100D300064E279ED8BE597E02DE133EF41E050E09F
:100D400037D049015A019B01AC01A7EAB1E44CD06C
:100D50006B017C01ACEEB4EFA501940151D0C60E3D
:100D6000D71EE81EF91EF7FE06C081E0C81AD1089A
:100D7000E10880E8F80AC0920140D0920240E09277
:100D80000340F0920440C701B6019F77FF90EF90B7
:100D9000DF90CF90BF90AF909F908F900895609319
:100DA0000140709302408093034090930440089563
:100DB000052E97FB16F400940FD057FD05D024D0D4
:100DC00007FC02D046F408C0509540953095219517
:100DD0003F4F4F4F5F4F0895909580957095619567
:100DE0007F4F8F4F9F4F089531D0A59F900DB49F97
:100DF000900DA49F800D911D11240895B7FFF4CF8D
:100E0000F3DF821B930B0895A1E21A2EAA1BBB1BD2
:100E1000FD010DC0AA1FBB1FEE1FFF1FA217B307C6
:100E2000E407F50720F0A21BB30BE40BF50B661FDC
:100E3000771F881F991F1A9469F7609570958095A0
:100E400090959B01AC01BD01CF010895A29FB00117
:100E5000B39FC001A39F700D811D1124911DB29FEE
:100E6000700D811D1124911D089504D06894B11155
:100E70008DC0089570D088F09F5790F0B92F9927B2
:100E8000B751A0F0D1F0660F771F881F991F1AF095
:100E9000BA95C9F712C0B13081F077D0B1E00895AA
:100EA00074C0672F782F8827B85F39F0B93FCCF32B
:100EB000869577956795B395D9F73EF4909580958B
:100EC000709561957F4F8F4F9F4F0895E89409C0AB
:100ED00097FB3EF490958095709561957F4F8F4F6D
:100EE0009F4F9923A9F0F92F96E9BB279395F69583
:100EF000879577956795B795F111F8CFFAF4BB0F01
:100F000011F460FF1BC06F5F7F4F8F4F9F4F16C064
:100F1000882311F096E911C0772321F09EE8872FEE
:100F2000762F05C0662371F096E8862F70E060E0AA
:100F30002AF09A95660F771F881FDAF7880F969523
:100F4000879597F9089557FD9058440F551F59F00C
:100F50005F3F71F04795880F97FB991F61F09F3FA6
:100F600079F087950895121613061406551FF2CFCF
:100F70004695F1DF08C0161617061806991FF1CF1F
:100F800086957105610508940895E894BB27662746
:100F90007727CB0197F908950BD0A6C06FD028F022
:100FA00074D018F0952309F060C065C01124EECF0D
:100FB000CADFA0F3959FD1F3950F50E0551F629FB4
:100FC000F001729FBB27F00DB11D639FAA27F00DA2
:100FD000B11DAA1F649F6627B00DA11D661F829FC9
:100FE0002227B00DA11D621F739FB00DA11D621FAE
:100FF000839FA00D611D221F749F3327A00D611DCB
:10100000231F849F600D211D822F762F6A2F1124AC
:101010009F5750408AF0E1F088234AF0EE0FFF1FFF
:10102000BB1F661F771F881F91505040A9F79E3F36
:10103000510570F01AC0AACF5F3FECF3983EDCF385
:10104000869577956795B795F795E7959F5FC1F773
:10105000FE2B880F911D9695879597F908959F937C
:101060001CD00F9007FCEE5F50C097F99F6780E897
:1010700070E060E008959FEF80EC089500240A94EA
:101080001616170618060906089500240A94121663
:101090001306140605060895EECF5DDFE8F3E89425
:1010A000E0E0BB279F57F0F02AED3FE049EC06C097
:1010B000EE0FBB0F661F771F881F28F0B23A62073A
:1010C0007307840728F0B25A620B730B840BE39505
:1010D0009A9572F7803830F49A95BB0F661F771F88
:1010E000881FD2F7904884C0092E0394000C11F495
:1010F000882352F0BB0F40F4BF2B11F460FF04C0F3
:101100006F5F7F4F8F4F9F4F0895EF93E0FF06C0B3
:10111000A2EA2AED3FE049EC5FEB15D0E5DF0F9046
:10112000039401FC9058E4EFF0E06EC0A7DF30F0CC
:10113000ACDF20F031F49F3F11F41EF49CCF0EF48D
:10114000E095E7FB92CFE92FFEDE80F3BA17620746
:1011500073078407950718F071F49EF516CF0EF407
:10116000E0950B2EBA2FA02D0B01B90190010C01B7
:10117000CA01A0011124FF27591B99F0593F50F4CF
:10118000503E68F11A16F040A22F232F342F442727
:10119000585FF3CF469537952795A795F04053951F
:1011A000C9F77EF41F16BA0B620B730B840BBAF0EF
:1011B0009150A1F0FF0FBB1F661F771F881FC2F75A
:1011C0000EC0BA0F621F731F841F48F4879577956E
:1011D0006795B795F7959E3F08F0B3CF9395880F25
:1011E00008F09927EE0F9795879508959F3F31F066
:1011F000915020F4879577956795B795880F911D45
:101200009695879597F908959F938F937F936F9302
:10121000FF93EF939B01AC01BFDEEF91FF9105D0EF
:101220002F913F914F915F91B7CEDF93CF931F9353
:101230000F93FF92EF92DF927B018C01689405C0BF
:10124000DA2EEF01B5DEFE01E894A59125913591E6
:1012500045915591AEF3EF0176DFFE019701A801AC
:10126000DA9479F7DF90EF90FF900F911F91CF9173
:10127000DF91089597FB072E16F4009406D077FDB2
:1012800008D020D007FC05D03EF4909581959F4F63
:101290000895709561957F4F0895EE0FFF1F00240C
:1012A000001C0BBE0790F691E02D0994CFDD33238F
:1012B00012F48A1B9B0B01C0C9DDB7FF0895821B86
:1012C000930B0895AA1BBB1B51E107C0AA1FBB1FAC
:1012D000A617B70710F0A61BB70B881F991F5A95C2
:1012E000A9F780959095BC01CD010895F894FFCFA2
:0612F000010100000000F6
:00000001FF
