:1000000088C00000B7C00000B5C00000B3C0000049
:10001000B1C00000AFC00000ADC00000ABC0000028
:10002000A9C00000A7C00000A5C00000A3C0000038
:10003000A1C000009FC0000028C300009BC00000BA
:1000400099C0000097C0000095C0000093C0000058
:1000500091C000008FC000008DC000008BC0000068
:1000600089C0000087C0000085C0000083C0000078
:1000700081C000007FC000007DC00000EAC2000017
:1000800079C0000077C0000075C0000073C0000098
:1000900071C000006FC000006DC000006BC00000A8
:1000A00069C0000067C0000065C0000063C00000B8
:1000B00061C000005FC000005DC000005BC00000C8
:1000C00059C0000057C0000055C0000053C00000D8
:1000D00051C000004FC000004DC000004BC00000E8
:1000E00049C0000047C0000045C0000043C00000F8
:1000F00041C0000005A84CCDB2D44EB93836A90293
:100100000C50B9918688083CA6AAAA2ABE00000015
:10011000803F11241FBECFEFCDBFDFE7DEBF809150
:10012000400080934000811105C098ED21E094BF0C
:10013000209341008CBB80E38093011088ED90EB0D
:1001400084BF9093011010E4A0E0B0E4ECEFF0E184
:1001500000E00BBF02C007900D92A630B107D9F79F
:1001600024E4A6E0B0E401C01D92A731B207E1F794
:100170000ED3C2C745CFCF93DF93DB01EA0120E066
:10018000382F330F330FC901F6E096958795FA950E
:10019000E1F724E0329F212D33271124422F9C01C7
:1001A000332741111BC0220F331FF901E853FF4BC6
:1001B00020813181288339839395292F23709927B2
:1001C000211129C0880F991FFC01E853FF4B808142
:1001D00091818D939C93DF91CF910895413039F4B3
:1001E000E0E0F1E0E21BF30BEE0FFF1FDFCF423048
:1001F00059F4220F331FF901E853FF4B208131815D
:10020000319521953109D6CFE0E0F1E0E21BF30B07
:10021000EE0FFF1FF1CF213039F4E0E0F1E0E81BF1
:10022000F90BEE0FFF1FD1CF223059F4880F991F21
:10023000FC01E853FF4B8081918191958195910953
:10024000C8CFE0E0F1E0E81BF90BEE0FFF1FF1CFA4
:100250002F923F924F925F926F927F928F929F92D6
:10026000AF92BF92CF92DF92EF92FF920F931F93C4
:10027000CF93DF93CDB7DEB7A097CDBFDEBF2C0104
:1002800080589F4FA6E4B0E4F201119211921D92A2
:100290001D92E817F907C9F706E010E486E4682E16
:1002A00080E4782E52019EE7C92ED12CEE24E394EF
:1002B000F12CF701EE0FFF1FE153FC4B8080918082
:1002C0002BE0821691040CF449C0D80112968D914E
:1002D0009C9113978E0D9F1D8034910508F0B3C13A
:1002E00012968D939C931397AE014F5F5F4FBE01A3
:1002F0006D5F7F4FD80112968D919C913CDFAB8151
:10030000BC819401D9D6EFE095958795779567954F
:10031000EA95D1F7F50162837383A981BA81CCD6BE
:10032000AFE09595879577956795AA95D1F7D30115
:1003300012966D937C93139782819381F201EC0D59
:10034000FD1D80839183F601EA5BFF4B12968D9130
:100350009C9191958195910980839183BFEFEB1AD0
:10036000FB0A0E5F1F4FE2E0AE0EB11CF2E06F0E13
:10037000711C22E0C21AD10830E2E316F10409F040
:1003800098CF76E4A72E70E4B72ED20130E020E0BB
:1003900041E050E005E010E070E060E090E080E0D7
:1003A0007A01062E02C0EE0CFF1C0A94E2F7E2224C
:1003B000F322EF2861F07801E61AF70AFA0102C089
:1003C000EE0FFF1FEA94E2F77F018E2B9F296F5FEC
:1003D0007F4F6630710521F728173907F4F4ED9047
:1003E000FC901197880F991FB201680F791FFB01CC
:1003F000C080D180CD92DC921197E082F182F5012C
:10040000608171818A5B9F4BFC01E080F180F50186
:10041000E082F182FC01608371832F5F3F4F12966F
:10042000F2E0AF0EB11C2034310509F0B5CF86E003
:1004300090E08D879E87A1E0B0E0AD83BE830D8103
:100440001E81000F111F80E490E0B80122D66B8F4F
:100450007C8F6801CC0CDD1CC98EDA8E26E430E47A
:100460002F83388732011B861C86312C212CAE014C
:100470004F5F5F4FBE016D5F7F4F8B859C857BDE3D
:10048000EB81FC81EF87F88BC980DA80CB8ADC8A2C
:10049000EF81F885A30129863A866A01C00ED11E34
:1004A000CF8AD88ED601CD90DC909F01200F311FCE
:1004B0002D8B3E8BD9010D90BC91A02DA98BBA8BB1
:1004C0009601AF85B889F8D54B015C0129893A8935
:1004D000AB89BC89F1D5861A970AA80AB90A8FE0B8
:1004E000B594A794979487948A95D1F79601E4D50B
:1004F0006B017C012F853889A989BA89DDD5C60EA3
:10050000D71EE81EF91E9FE0F594E794D794C79490
:100510009A95D1F7DA012D913C91C901330FAA0BBD
:10052000BB0B88199909AA09BB09B595A795979599
:100530008795AF89B88D8D939C9320813181C901B6
:10054000330FAA0BBB0B8C199D09AE09BF09B595DA
:10055000A795979587958D8F9E8FAF8FB8A3AD89FF
:10056000BE898D939C93DA018D919C91092E000C8C
:10057000AA0BBB0B880D991DAA1DBB1D4C015D016B
:10058000B594A79497948794DA018D929C92608198
:100590007181072E000C880B990B6C0D7D1D8E1D33
:1005A0009F1D959587957795679560837183C9841D
:1005B000DA84C00ED11EC986DA86C98CDA8C4C0D5D
:1005C0005D1DEC0DFD1D29853A85203431050CF4A7
:1005D00064CF3FEF231A330ACB84DC842B8D3C8D10
:1005E000C20ED31ECB86DC8632E0630E711C8F8177
:1005F000988502968F839887CD80DE802C143D04E9
:1006000009F035CF2D853E85215031092D873E8754
:100610000D831E83232B09F012CFA096CDBFDEBF22
:10062000DF91CF911F910F91FF90EF90DF90CF90CE
:10063000BF90AF909F908F907F906F905F904F9002
:100640003F902F90089580549109F80182839383FD
:100650004BCEEF93FF93E3E1F4E48F938FB78F9347
:1006600080818F5F808381818F4F818382818F4FD3
:10067000828383818F4F838381E08093260B8F91C8
:100680008FBF8F91FF91EF9118951F920F920FB628
:100690000F9211240BB60F922F934F935F936F938A
:1006A0007F938F939F93AF93BF93EF93FF9380912B
:1006B000CA43E091C640F091C740EE0FFF1F811181
:1006C00063C0E653FD4B808191819E5F092E000C33
:1006D000AA0BBB0B811524E09207A105B10524F0FC
:1006E0008FEF93E0A0E0B0E0B7FF03C080E090E0C0
:1006F000DC01AC01BD0126E0440F551F661F771FCA
:100700002A95D1F74093A20642E0B595A795979513
:1007100087954A95D1F78093A3068091C640909122
:10072000C74001968093C6409093C7408091C640D1
:100730009091C7408034910594F01092C640109279
:10074000C7408091004081110AC09091CA4381E066
:10075000911180E08093CA4381E08093004081E062
:100760008093060BFF91EF91BF91AF919F918F9175
:100770007F916F915F914F912F910F900BBE0F90D2
:100780000FBE0F901F901895E65BFC4B9CCF88ED39
:1007900094E284BF9093680021E02093030A8EEFD7
:1007A0008093260A8093270A9BE09093000A209367
:1007B000430A8093660A8093670A9093400A32E066
:1007C0003093E6059093E70537E03093010B809373
:1007D0000C0B10920D0B95E09093000B3093110BC6
:1007E00080931C0B10921D0B9093100B3093310BC8
:1007F00080933C0B10923D0B9093300B4FEF5FE0DA
:100800004093AA0B5093AB0B80E88093820B10921D
:10081000810B4BEF53E04093AE0B5093AF0B81E74E
:100820008093800B1092E805E0E0F6E092838EE082
:10083000858380E68383908385E582959091B200DD
:10084000987F8770892B8093B2008FED9EE2809312
:100850002C0B90932D0B2093250B1092210B83E0F2
:100860008093200B78948EE68093080620930A06E6
:1008700080910D0680FFFCCF6091100670911106EB
:10088000072E000C880B990B6115710581059105E8
:1008900009F094D1C8ECD0E4F12CE12CB7010F2C75
:1008A000000C880B990B23D22BED3FE049EC50E470
:1008B00082D220E030E040E85AE37DD2DFD220E06F
:1008C0003EEF4FEF56E477D2DFD1699379932FEF64
:1008D000E21AF20AE11431E0F30601F78FEF9FE725
:1008E0008093C8429093C94284E08093760481E863
:1008F0008093B20081EC8093A0061092000B1092BE
:10090000010B8FE192E080930C0B90930D0B81E033
:100910008093050B8093000B8FB7F894809013445D
:1009200090901444A0901544B09016448FBF8091CD
:100930000F4490911044A0911144B0911244A5012C
:100940009401281B390B4A0B5B0BDA01C9018A3F62
:100950009105A105B10508F443C080920F4490921F
:100960001044A0921144B0921244DCD02CE330E049
:1009700040E050E02CD12B013C0134E1430E511CEE
:10098000611C711CC12CD12C7601C394CBD024E600
:1009900030E040E050E01BD16415750586059705F1
:1009A000A4F4C0D020EA3FE040E050E010D160590C
:1009B000784E8F4F9F4FA701960109D1F601EE0F98
:1009C000FF1FE153FC4B208331834FEFC41AD40A3D
:1009D000E40AF40A50E2C516D104E104F104B1F6C8
:1009E0008091CB439091CC43A091CD43B091CE4325
:1009F000A5019401281B390B4A0B5B0BDA01C901D5
:100A00000A97A105B10598F18092CB439092CC430F
:100A1000A092CD43B092CE4350E040E0FA01EE0FF9
:100A2000FF1FDF01A153BC4B0D90BC91A02D1A16E6
:100A30001B06C4F42EE937E045D3DC01CB012BE0E3
:100A4000B595A795979587952A95D1F78A30910501
:100A5000A105B1051CF480E090E0DC01E153FC4B02
:100A6000808391834F5F5F4F40325105B9F680918B
:100A70000040882309F450CF8091CA43811106C0F9
:100A80008AE493E4E5DB1092004046CF8AEC92E4DE
:100A9000F9CF8F929F92AF92BF92CF92DF92EF9257
:100AA000FF92CF93DF93EC01688179818A819B81EA
:100AB000611571058105910521F464E279ED8BE5FD
:100AC00097E02DE133EF41E050E081D049015A0138
:100AD0009B01AC01A7EAB1E496D06B017C01ACEEBE
:100AE000B4EFA50194019BD0C60ED71EE81EF91ED7
:100AF000F7FE06C081E0C81AD108E10880E8F80ACC
:100B0000C882D982EA82FB82C701B6019F77DF9152
:100B1000CF91FF90EF90DF90CF90BF90AF909F90DC
:100B20008F9008958F929F92AF92BF92CF92DF9253
:100B3000EF92FF92609101407091024080910340DA
:100B400090910440611571058105910521F464E2DD
:100B500079ED8BE597E02DE133EF41E050E037D0C0
:100B600049015A019B01AC01A7EAB1E44CD06B01E9
:100B70007C01ACEEB4EFA501940151D0C60ED71E96
:100B8000E81EF91EF7FE06C081E0C81AD108E10888
:100B900080E8F80AC0920140D0920240E0920340FF
:100BA000F0920440C701B6019F77FF90EF90DF906D
:100BB000CF90BF90AF909F908F9008956093014029
:100BC0007093024080930340909304400895052E53
:100BD00097FB16F400940FD057FD05D024D007FCE6
:100BE00002D046F408C050954095309521953F4F6E
:100BF0004F4F5F4F089590958095709561957F4F09
:100C00008F4F9F4F089531D0A59F900DB49F900DA9
:100C1000A49F800D911D11240895B7FFF4CFF3DF39
:100C2000821B930B0895A1E21A2EAA1BBB1BFD0188
:100C30000DC0AA1FBB1FEE1FFF1FA217B307E407BB
:100C4000F50720F0A21BB30BE40BF50B661F771F13
:100C5000881F991F1A9469F76095709580959095F3
:100C60009B01AC01BD01CF010895A29FB001B39FCC
:100C7000C001A39F700D811D1124911DB29F700DA5
:100C8000811D1124911D089504D06894B1118DC067
:100C9000089570D088F09F5790F0B92F9927B751D9
:100CA000A0F0D1F0660F771F881F991F1AF0BA9530
:100CB000C9F712C0B13081F077D0B1E0089574C0A7
:100CC000672F782F8827B85F39F0B93FCCF3869526
:100CD00077956795B395D9F73EF490958095709583
:100CE00061957F4F8F4F9F4F0895E89409C097FB00
:100CF0003EF490958095709561957F4F8F4F9F4FF3
:100D00009923A9F0F92F96E9BB279395F695879536
:100D100077956795B795F111F8CFFAF4BB0F11F4F9
:100D200060FF1BC06F5F7F4F8F4F9F4F16C08823A0
:100D300011F096E911C0772321F09EE8872F762FD6
:100D400005C0662371F096E8862F70E060E02AF017
:100D50009A95660F771F881FDAF7880F9695879503
:100D600097F9089557FD9058440F551F59F05F3F6C
:100D700071F04795880F97FB991F61F09F3F79F0BD
:100D800087950895121613061406551FF2CF46953F
:100D9000F1DF08C0161617061806991FF1CF8695C1
:100DA0007105610508940895E894BB2766277727A5
:100DB000CB0197F908950BD0A6C06FD028F074D05E
:100DC00018F0952309F060C065C01124EECFCADF8A
:100DD000A0F3959FD1F3950F50E0551F629FF0014E
:100DE000729FBB27F00DB11D639FAA27F00DB11DA7
:100DF000AA1F649F6627B00DA11D661F829F222730
:100E0000B00DA11D621F739FB00DA11D621F839FB6
:100E1000A00D611D221F749F3327A00D611D231F8C
:100E2000849F600D211D822F762F6A2F11249F57DA
:100E300050408AF0E1F088234AF0EE0FFF1FBB1FFD
:100E4000661F771F881F91505040A9F79E3F51059C
:100E500070F01AC0AACF5F3FECF3983EDCF38695A2
:100E600077956795B795F795E7959F5FC1F7FE2B47
:100E7000880F911D9695879597F908959F931CD09B
:100E80000F9007FCEE5F50C097F99F6780E870E015
:100E900060E008959FEF80EC089500240A941616F0
:100EA000170618060906089500240A941216130658
:100EB000140605060895EECF5DDFE8F3E894E0E060
:100EC000BB279F57F0F02AED3FE049EC06C0EE0F3C
:100ED000BB0F661F771F881F28F0B23A620773079F
:100EE000840728F0B25A620B730B840BE3959A9532
:100EF00072F7803830F49A95BB0F661F771F881FF2
:100F0000D2F7904884C0092E0394000C11F4882372
:100F100052F0BB0F40F4BF2B11F460FF04C06F5FB1
:100F20007F4F8F4F9F4F0895EF93E0FF06C0A2EAD7
:100F30002AED3FE049EC5FEB15D0E5DF0F9003941D
:100F400001FC9058E4EFF0E06EC0A7DF30F0ACDFBA
:100F500020F031F49F3F11F41EF49CCF0EF4E09585
:100F6000E7FB92CFE92FFEDE80F3BA176207730723
:100F70008407950718F071F49EF516CF0EF4E095EE
:100F80000B2EBA2FA02D0B01B90190010C01CA0143
:100F9000A0011124FF27591B99F0593F50F4503EEE
:100FA00068F11A16F040A22F232F342F4427585FE0
:100FB000F3CF469537952795A795F0405395C9F7F8
:100FC0007EF41F16BA0B620B730B840BBAF09150B0
:100FD000A1F0FF0FBB1F661F771F881FC2F70EC04F
:100FE000BA0F621F731F841F48F487957795679522
:100FF000B795F7959E3F08F0B3CF9395880F08F00B
:101000009927EE0F9795879508959F3F31F091505E
:1010100020F4879577956795B795880F911D9695DC
:10102000879597F908959F938F937F936F93FF937D
:10103000EF939B01AC01BFDEEF91FF9105D02F91A3
:101040003F914F915F91B7CEDF93CF931F930F9353
:10105000FF92EF92DF927B018C01689405C0DA2E3B
:10106000EF01B5DEFE01E894A591259135914591FA
:101070005591AEF3EF0176DFFE019701A801DA94F6
:1010800079F7DF90EF90FF900F911F91CF91DF9153
:10109000089597FB072E16F4009406D077FD08D02C
:1010A00017D007FC05D03EF4909581959F4F089589
:1010B000709561957F4F0895D8DD332312F48A1B14
:1010C0009B0B01C0D2DDB7FF0895821B930B0895DF
:1010D000AA1BBB1B51E107C0AA1FBB1FA617B7075E
:1010E00010F0A61BB70B881F991F5A95A9F780957A
:0C10F0009095BC01CD010895F894FFCF4D
:0610FC00010100000000EC
:00000001FF
