:1000000088C00000B7C00000B5C00000B3C0000049
:10001000B1C00000AFC00000ADC00000ABC0000028
:10002000A9C00000A7C00000A5C00000A3C0000038
:10003000A1C000009FC00000F8C200009BC00000EB
:1000400099C0000097C0000095C0000093C0000058
:1000500091C000008FC000008DC000008BC0000068
:1000600089C0000087C0000085C0000083C0000078
:1000700081C000007FC000007DC00000BAC2000047
:1000800079C0000077C0000075C0000073C0000098
:1000900071C000006FC000006DC000006BC00000A8
:1000A00069C0000067C0000065C0000063C00000B8
:1000B00061C000005FC000005DC000005BC00000C8
:1000C00059C0000057C0000055C0000053C00000D8
:1000D00051C000004FC000004DC000004BC00000E8
:1000E00049C0000047C0000045C0000043C00000F8
:1000F00041C0000005A84CCDB2D44EB93836A90293
:100100000C50B9918688083CA6AAAA2ABE00000015
:10011000803F11241FBECFEFCDBFDFE7DEBF809150
:10012000400080934000811105C098ED21E094BF0C
:10013000209341008CBB80E38093011088ED90EB0D
:1001400084BF9093011010E4A0E0B0E4E8E8F0E18F
:1001500000E00BBF02C007900D92A630B107D9F79F
:1001600024E4A6E0B0E401C01D92A331B207E1F798
:10017000E3D288C745CFCF93DF93DB01EA0120E0CC
:10018000382F330F330FC901F6E096958795FA950E
:10019000E1F724E0329F212D33271124422F9C01C7
:1001A000332741111BC0220F331FF901E853FF4BC6
:1001B00020813181288339839395292F23709927B2
:1001C000211129C0880F991FFC01E853FF4B808142
:1001D00091818D939C93DF91CF910895413039F4B3
:1001E000E0E0F1E0E21BF30BEE0FFF1FDFCF423048
:1001F00059F4220F331FF901E853FF4B208131815D
:10020000319521953109D6CFE0E0F1E0E21BF30B07
:10021000EE0FFF1FF1CF213039F4E0E0F1E0E81BF1
:10022000F90BEE0FFF1FD1CF223059F4880F991F21
:10023000FC01E853FF4B8081918191958195910953
:10024000C8CFE0E0F1E0E81BF90BEE0FFF1FF1CFA4
:100250002F923F924F925F926F927F928F929F92D6
:10026000AF92BF92CF92DF92EF92FF920F931F93C4
:10027000CF93DF93CDB7DEB76A97CDBFDEBF2C013A
:1002800080589F4FA6E4B0E4F201119211921D92A2
:100290001D92E817F907C9F706E010E486E4682E16
:1002A00080E4782E52019EE7C92ED12CEE24E394EF
:1002B000F12CF701EE0FFF1FE153FC4B8080918082
:1002C00026E0821691040CF449C0D80112968D9153
:1002D0009C9113978E0D9F1D8034910508F083C16A
:1002E00012968D939C931397AE014F5F5F4FBE01A3
:1002F0006D5F7F4FD80112968D919C913CDFAB8151
:10030000BC8194019FD6EFE0959587957795679589
:10031000EA95D1F7F50162837383A981BA8192D6F8
:10032000AFE09595879577956795AA95D1F7D30115
:1003300012966D937C93139782819381F201EC0D59
:10034000FD1D80839183F601EA5BFF4B12968D9130
:100350009C9191958195910980839183BFEFEB1AD0
:10036000FB0A0E5F1F4FE2E0AE0EB11CF2E06F0E13
:10037000711C22E0C21AD10830E2E316F10409F040
:1003800098CF76E4A72E70E4B72ED20130E020E0BB
:1003900041E050E005E010E070E060E090E080E0D7
:1003A0007A01062E02C0EE0CFF1C0A94E2F7E2224C
:1003B000F322EF2861F07801E61AF70AFA0102C089
:1003C000EE0FFF1FEA94E2F77F018E2B9F296F5FEC
:1003D0007F4F6630710521F728173907F4F4ED9047
:1003E000FC901197880F991FB201680F791FFB01CC
:1003F000C080D180CD92DC921197E082F182F5012C
:10040000608171818A5B9F4BFC01E080F180F50186
:10041000E082F182FC01608371832F5F3F4F12966F
:10042000F2E0AF0EB11C2034310509F0B5CF06E083
:1004300010E021E030E02D833E836D807E80660CED
:10044000771C80E490E0B301EAD5698F7A8F63016D
:10045000CC0CDD1CCF8AD88E26E430E429873A877D
:100460004B865C861D861E86312C212CAE014F5F8B
:100470005F4FBE016D5F7F4F8D859E857CDEEB817A
:10048000FC81EF87F88BC980DA80CB8ADC8AE9852A
:10049000FA854B855C852F8238866A01C60CD71C8D
:1004A000D601ED90FC909F01260D371D2D8B3E8BC4
:1004B000D9010D90BC91A02DA98BBA8B9701AF8566
:1004C000B889C0D54B015C0129893A89AB89BC89BF
:1004D000B9D5861A970AA80AB90A8FE0B594A794E5
:1004E000979487948A95D1F7DA018D919C91881918
:1004F0009909D6018D939C939701AB89BC89A2D5AC
:100500006B017C012F853889A989BA899BD5C60ED4
:10051000D71EE81EF91E9FE0F594E794D794C79480
:100520009A95D1F7808191818C199D09AD89BE89F9
:100530008D939C93DA018D919C911197880E991E51
:100540008D929C9260817181C60ED71EC082D1822D
:10055000CF80D884C60CD71CCF82D886CF88D88CC1
:100560004C0D5D1DEC0DFD1D2F81388520343105AE
:100570000CF493CF3FEF231A330ACD84DE84298D08
:100580003A8DC20ED31ECD86DE868B859C85029663
:100590008B879C87A985BA851296A987BA87CD8053
:1005A000DE802C143D0409F061CF015011096D82E9
:1005B0007E820115110509F040CF6A96CDBFDEBFDE
:1005C000DF91CF911F910F91FF90EF90DF90CF902F
:1005D000BF90AF909F908F907F906F905F904F9063
:1005E0003F902F90089580549109F801828393835E
:1005F0007BCEEF93FF93EFE0F4E48F938FB78F936D
:1006000080818F5F808381818F4F818382818F4F33
:10061000828383818F4F838381E08093260B8F9128
:100620008FBF8F91FF91EF9118951F920F920FB688
:100630000F9211240BB60F922F934F935F936F93EA
:100640007F938F939F93AF93BF93EF93FF9380918B
:10065000CA43E091C640F091C740EE0FFF1F8111E1
:1006600064C0E653FD4B8081918195958795959562
:1006700087959E5F97FD5CC0092E000CAA0BBB0BF3
:10068000811524E09207A105B10524F08FEF93E0D6
:10069000A0E0B0E0AC01BD0126E0440F551F661F8D
:1006A000771F2A95D1F74093A20642E0B595A7950A
:1006B000979587954A95D1F78093A3068091C64078
:1006C0009091C74001968093C6409093C740809117
:1006D000C6409091C7408034910594F01092C64076
:1006E0001092C7408091004081110AC09091CA4386
:1006F00081E0911180E08093CA4381E080930040C3
:1007000081E08093060BFF91EF91BF91AF919F9194
:100710008F917F916F915F914F912F910F900BBEB1
:100720000F900FBE0F901F901895E65BFC4B9BCF70
:1007300080E090E0DC01AECF88ED94E284BF90933E
:10074000680021E02093030A8EEF8093260A8093AD
:10075000270A9BE09093000A2093430A8093660A3D
:100760008093670A9093400A32E03093E6059093B5
:10077000E70537E03093010B80930C0B10920D0BC3
:1007800095E09093000B3093110B80931C0B10920B
:100790001D0B9093100B3093310B80933C0B1092F8
:1007A0003D0B9093300B4FEF5FE04093AA0B5093BB
:1007B000AB0B80E88093820B1092810B4BEF53E0E0
:1007C0004093AE0B5093AF0B81E78093800B109258
:1007D000E805E0E0F6E092838EE0858380E683839F
:1007E000908385E582959091B200987F8770892BE0
:1007F0008093B2008FED9EE280932C0B90932D0B93
:100800002093250B1092210B83E08093200B78948A
:100810008EE68093080620930A0680910D0680FFDD
:10082000FCCF6091100670911106072E000C880B0A
:10083000990B611571058105910509F085D1C8EC09
:10084000D0E410E000E0B801012E000C880B990BF9
:1008500014D22BED3FE049EC50E473D220E030E0BD
:1008600040E85AE36ED2D0D220E03EEF4FEF56E49C
:1008700068D2D0D1699379930F5F1F4F011521E0A2
:10088000120709F78FEF9FE78093C8429093C94200
:1008900084E08093760481E88093B20081EC8093B9
:1008A000A0061092000B1092010B87EE93E080934C
:1008B0000C0B90930D0B81E08093050B8093000B44
:1008C00038EF432E512C612C712CC3E604E610E066
:1008D000EFD028EE33E040E050E03FD11616170687
:1008E000180619060CF439C0E3D02CE330E040E0E0
:1008F00050E033D14B015C0124E1820E911CA11C1C
:10090000B11CC12CD12C7601C394D2D024E630E0A6
:1009100040E050E022D1681579058A059B0594F4E2
:10092000C7D0A301920119D1685F7F4F8F4F9F4FAE
:10093000A701960112D1F601EE0FFF1FE153FC4B08
:10094000208331838FEFC81AD80AE80AF80A20E218
:10095000C216D104E104F104C1F62FB7F8948091D6
:100960000F4490911044A0911144B09112442FBFB4
:100970004091CB435091CC436091CD437091CE4395
:10098000841B950BA60BB70B0A97A105B105A8F11F
:100990002FB7F89480910F4490911044A091114486
:1009A000B09112442FBF8093CB439093CC43A0933C
:1009B000CD43B093CE4330E020E0F901EE0FFF1FAE
:1009C000E153FC4B80819181181619068CF440810B
:1009D0005181C49FC001C59F900D1124B8011FD340
:1009E0006083718380819181059714F41082118254
:1009F0002F5F3F4F2032310501F78091004088235F
:100A000009F466CF8091CA43811106C08AE493E459
:100A10001FDC109200405CCF8AEC92E4F9CF8F92F9
:100A20009F92AF92BF92CF92DF92EF92FF92CF93BD
:100A3000DF93EC01688179818A819B816115710561
:100A40008105910521F464E279ED8BE597E02DE1D4
:100A500033EF41E050E081D049015A019B01AC01E4
:100A6000A7EAB1E496D06B017C01ACEEB4EFA5012E
:100A700094019BD0C60ED71EE81EF91EF7FE06C0D5
:100A800081E0C81AD108E10880E8F80AC882D98252
:100A9000EA82FB82C701B6019F77DF91CF91FF9079
:100AA000EF90DF90CF90BF90AF909F908F90089580
:100AB0008F929F92AF92BF92CF92DF92EF92FF926E
:100AC00060910140709102408091034090910440F8
:100AD000611571058105910521F464E279ED8BE5DD
:100AE00097E02DE133EF41E050E037D049015A0162
:100AF0009B01AC01A7EAB1E44CD06B017C01ACEEE8
:100B0000B4EFA501940151D0C60ED71EE81EF91E00
:100B1000F7FE06C081E0C81AD108E10880E8F80AAB
:100B2000C0920140D0920240E0920340F092044013
:100B3000C701B6019F77FF90EF90DF90CF90BF90F5
:100B4000AF909F908F900895609301407093024002
:100B500080930340909304400895052E97FB16F46C
:100B600000940FD057FD05D024D007FC02D046F4E6
:100B700008C050954095309521953F4F4F4F5F4F9E
:100B8000089590958095709561957F4F8F4F9F4FF9
:100B9000089531D0A59F900DB49F900DA49F800D16
:100BA000911D11240895B7FFF4CFF3DF821B930B3F
:100BB0000895A1E21A2EAA1BBB1BFD010DC0AA1F9E
:100BC000BB1FEE1FFF1FA217B307E407F50720F0B6
:100BD000A21BB30BE40BF50B661F771F881F991F31
:100BE0001A9469F760957095809590959B01AC017A
:100BF000BD01CF010895A29FB001B39FC001A39F83
:100C0000700D811D1124911DB29F700D811D112445
:100C1000911D089504D06894B1118DC0089570D0CD
:100C200088F09F5790F0B92F9927B751A0F0D1F0D5
:100C3000660F771F881F991F1AF0BA95C9F712C05F
:100C4000B13081F077D0B1E0089574C0672F782F6C
:100C50008827B85F39F0B93FCCF3869577956795CB
:100C6000B395D9F73EF490958095709561957F4F37
:100C70008F4F9F4F0895E89409C097FB3EF49095DD
:100C80008095709561957F4F8F4F9F4F9923A9F065
:100C9000F92F96E9BB279395F695879577956795F4
:100CA000B795F111F8CFFAF4BB0F11F460FF1BC038
:100CB0006F5F7F4F8F4F9F4F16C0882311F096E9CB
:100CC00011C0772321F09EE8872F762F05C0662379
:100CD00071F096E8862F70E060E02AF09A95660F32
:100CE000771F881FDAF7880F9695879597F90895EB
:100CF00057FD9058440F551F59F05F3F71F04795CD
:100D0000880F97FB991F61F09F3F79F087950895B1
:100D1000121613061406551FF2CF4695F1DF08C0D0
:100D2000161617061806991FF1CF869571056105ED
:100D300008940895E894BB2766277727CB0197F995
:100D400008950BD0A6C06FD028F074D018F095236A
:100D500009F060C065C01124EECFCADFA0F3959FF3
:100D6000D1F3950F50E0551F629FF001729FBB2792
:100D7000F00DB11D639FAA27F00DB11DAA1F649F3E
:100D80006627B00DA11D661F829F2227B00DA11DF1
:100D9000621F739FB00DA11D621F839FA00D611D77
:100DA000221F749F3327A00D611D231F849F600D98
:100DB000211D822F762F6A2F11249F5750408AF0D1
:100DC000E1F088234AF0EE0FFF1FBB1F661F771F5D
:100DD000881F91505040A9F79E3F510570F01AC0EE
:100DE000AACF5F3FECF3983EDCF386957795679545
:100DF000B795F795E7959F5FC1F7FE2B880F911D7B
:100E00009695879597F908959F931CD00F9007FCAE
:100E1000EE5F50C097F99F6780E870E060E008954A
:100E20009FEF80EC089500240A9416161706180602
:100E30000906089500240A941216130614060506DE
:100E40000895EECF5DDFE8F3E894E0E0BB279F571D
:100E5000F0F02AED3FE049EC06C0EE0FBB0F661F35
:100E6000771F881F28F0B23A62077307840728F0BB
:100E7000B25A620B730B840BE3959A9572F7803824
:100E800030F49A95BB0F661F771F881FD2F79048E2
:100E900084C0092E0394000C11F4882352F0BB0F78
:100EA00040F4BF2B11F460FF04C06F5F7F4F8F4F82
:100EB0009F4F0895EF93E0FF06C0A2EA2AED3FE0BE
:100EC00049EC5FEB15D0E5DF0F90039401FC9058DF
:100ED000E4EFF0E06EC0A7DF30F0ACDF20F031F4DB
:100EE0009F3F11F41EF49CCF0EF4E095E7FB92CFE8
:100EF000E92FFEDE80F3BA176207730784079507B0
:100F000018F071F49EF516CF0EF4E0950B2EBA2F63
:100F1000A02D0B01B90190010C01CA01A0011124FF
:100F2000FF27591B99F0593F50F4503E68F11A16AB
:100F3000F040A22F232F342F4427585FF3CF46953C
:100F400037952795A795F0405395C9F77EF41F165E
:100F5000BA0B620B730B840BBAF09150A1F0FF0F28
:100F6000BB1F661F771F881FC2F70EC0BA0F621F14
:100F7000731F841F48F4879577956795B795F79504
:100F80009E3F08F0B3CF9395880F08F09927EE0F96
:100F90009795879508959F3F31F0915020F487955C
:100FA00077956795B795880F911D9695879597F9D1
:100FB00008959F938F937F936F93FF93EF939B017C
:100FC000AC01BFDEEF91FF9105D02F913F914F9182
:100FD0005F91B7CEDF93CF931F930F93FF92EF9262
:100FE000DF927B018C01689405C0DA2EEF01B5DE3B
:100FF000FE01E894A5912591359145915591AEF367
:10100000EF0176DFFE019701A801DA9479F7DF900E
:10101000EF90FF900F911F91CF91DF91089597FB73
:10102000072E16F4009406D077FD08D017D007FCE1
:1010300005D03EF4909581959F4F089570956195E8
:101040007F4F0895D8DD332312F48A1B9B0B01C018
:10105000D2DDB7FF0895821B930B0895AA1BBB1B1B
:1010600051E107C0AA1FBB1FA617B70710F0A61BA8
:10107000B70B881F991F5A95A9F780959095BC01C9
:08108000CD010895F894FFCFA3
:0610880001010000000060
:00000001FF
