:100000000C94E0280C9412290C9412290C941229B7
:100010000C9412290C9412290C9412290C94122974
:100020000C9412290C9412290C9412290C94122964
:100030000C9412290C9412290C94D02D0C94122992
:100040000C9412290C9412290C9412290C94122944
:100050000C9412290C9412290C9412290C94122934
:100060000C9412290C9412290C9412290C94122924
:100070000C9412290C9412290C9412290C94B42D6E
:100080000C9412290C9412290C9412290C94122904
:100090000C9412290C9412290C9412290C941229F4
:1000A0000C9412290C9412290C9412290C941229E4
:1000B0000C9412290C9412290C9412290C941229D4
:1000C0000C9412290C9412290C9412290C941229C4
:1000D0000C9412290C9412290C9412290C941229B4
:1000E0000C9412290C9412290C9412290C941229A4
:1000F0000C941229666C74207175616B65332063F2
:100100007261636B74726F00205B6A4F756C655D22
:100110005B696E646570656E64656E745D00001188
:1001200000400004000D000000000000000000007E
:10013000000000000000000000000000001200406D
:100140000005000D0000000000000000000000009D
:100150000000000000000000000000130040000646
:10016000000D000000000000000000000000000082
:100170000000000000000000001400400007000D17
:10018000000000000000000000000000000000006F
:10019000000000000000001500400008000D0000F5
:1001A000000000000000000000000000000000004F
:1001B00000000000001600400009000D2E2E7265A0
:1001C000666C6563747320746865206665656C2E63
:1001D0002E0000490040001500342E2E6920676F64
:1001E00074207768656E206120766572792E2E0006
:1001F00002ED0040000000012E2E696D706F7274D8
:10020000616E742070617274206F662E2E00001172
:1002100000400004000D2E2E6D652062726F6B652C
:100220002C20746865204E45532E2E00001100408E
:100230000004000D000000000000000000000000AD
:1002400000000000000000000000007B0240004CA5
:10025000002F00000000000000000000000000006F
:10026000000000000000000000000000000000018D
:10027000000000000000000000000000000000007E
:10028000000000000000000000000000000100006D
:10029000000000000000000000000000000000005E
:1002A000000000000000000000000001000000004D
:1002B000000000000000000000000000000000003E
:1002C000000000000000000000010000000000002D
:1002D000000000000000000000000000000000001E
:1002E000000000000000000100000000000000000D
:1002F00000000000000000000000000000000000FE
:1003000000000000000100000000000000000000EC
:1003100000000000000000000000000000000000DD
:1003200000000001000000000000000000000000CC
:1003300000000000000000000000000000000000BD
:1003400000010000000000000000000000000000AC
:10035000000000000000000000000000000000019C
:10036000000000000000000000000000000000008D
:10037000000000000000000000000000000100007C
:10038000000000000000000000000000000000006D
:10039000000000000000000000000001000000005C
:1003A000000000000000000000000000000000004D
:1003B000000000000000000000010000000000003C
:1003C000000000000000000000000000000000002D
:1003D000000000000000000100000000000000001C
:1003E000000000000000000000000000000000000D
:1003F000000000000001524950504544204259205D
:10040000494A460000000000000000000000000013
:1004100000000001206A6F75656C40667265656E4C
:1004200065742E6875742E66690000000000000077
:10043000000120636F6E74616374206D6520666FC8
:100440007220617363696900000000000000000110
:1004500020616E642063686970636F6D706F73698B
:100460006E672E2E2E00000000000000000100002C
:10047000000000000000000000000000000000007C
:100480000000000000000000000000012020B72D47
:10049000282074696E7920206172747320292DB729
:1004A0000000000000000000000115050B0003041F
:1004B000050607060C040809090A0E0D0D0F0F0D9D
:1004C000100000000000000000000000000000001C
:1004D000000000000000000000000000000000001C
:1004E000000000000000000000000000000000000C
:1004F00000000000000000000000000000000000FC
:1005000000000000000000000000000000000000EB
:1005100000000000000000000000000000000000DB
:100520000000000000000000000000004D2E4B2ED7
:10053000017D9F8801534F0402A6700000E2200055
:1005400000000000000000000000000000E22C108D
:10055000012E9A0F017D40000153700001532000CD
:1005600000000C00000000000000000000E22C1061
:1005700001539F0401534000012E8000011D200003
:1005800000000000000000000000000001532C10DB
:100590000153503C01C54A0602A67A0F01532000C0
:1005A0000000003C0000000000000C00011D2C10A9
:1005B0000153900001534C1002A6700000E220008D
:1005C00000000000000000000000000001532C109B
:1005D00001C59000015340000153700001532000F9
:1005E00000000000000000000000000000E22C10ED
:1005F00001539C10011D4000012E8000011D2000B0
:1006000000000000000000000000000001532C105A
:100610000153900000FE400003287A0F0153200090
:10062000000000000000000000000C00011D2C1064
:10063000011D900001534C1002A6700000E2200042
:1006400000000000000000000000000001532C101A
:10065000015360C7011D4000015370000153200089
:10066000000000C7000000000000000000E22C10A5
:1006700001539C1000FE4C10012E8000011D200033
:1006800000000000000000000000000001532C10DA
:10069000011D9000012E400002A67A0F0153200098
:1006A000000000000000000000000C00011D2C10E4
:1006B0000153603C011D4C1002A6700000E22000B6
:1006C0000000003C000000000000000001532C105E
:1006D000012E900001C5400001537000015320001D
:1006E00000000000000000000000000000E22C10EC
:1006F000011D9C1001AC4A0F012E8000011D20003D
:100700000000000001C54C0A0000000001532C103D
:1007100001C59000017D4A0F03287A0F0153200084
:100720000000000000000C0000000C00011D2C1057
:1007300001AC9A0F015340000358700000D620000E
:1007400001C51C0A000000000000000001532C102D
:10075000017D9A0F017D4C1001AC70000153200007
:1007600000000C00000000000000000000D62C106B
:100770000153900001AC4000012E8000011D2000BB
:1007800000000000000000000000000001532C10D9
:10079000017D9C100153400003587A0F0153200043
:1007A000000000000000000000000C00011D2C10E3
:1007B00001AC504701AC4C100358700000D620002B
:1007C00000000047000000000000000001532C1052
:1007D000015390000153400001AC70000153200010
:1007E00000000000000000000000000000D62C10F7
:1007F00001AC9C10012E4000012E8000011D200044
:1008000000000000000000000000000001532C1058
:1008100001539000011D400003587A0F015320003E
:10082000000000000000000000000C00011D2C1062
:10083000012E900001534C1002FA700000FE2000BF
:1008400000000000000000000000000001532C1018
:10085000017D30C700FE4000017D7000017D200059
:10086000000000C7000000000000000000FE2C1087
:1008700001539C10011D4000012E8000012E20001C
:10088000000000000000000000000000017D2C10AE
:1008900000FE900000FE4C1002FA7A0F017D20004D
:1008A000000000000000000000000C00012E2C10D1
:1008B000017D604C012E400002FA700000FE200015
:1008C0000000004C0000000000000000017D2C1022
:1008D00000FE9C1001C54000017D7000017D2000DC
:1008E00000000000000000000000000000FE2C10CE
:1008F000012E9000017D4000012E8000012E20007D
:10090000000000000000000000000000017D2C102D
:1009100001C59000012E4A0F017D7A0F017D200054
:100920000000000000000C0000000C00012E2C1044
:100930000000000001941000021A7000010D200058
:10094000000000000000000000000000010D2C105D
:100950000000000001401000010D70000194200013
:10096000000000000000000000000000010D2C103D
:1009700000000000010D1000011D8000014020005A
:1009800000000000000000000000000001942C1096
:100990000000000001941000021A7A0F0194200058
:1009A000000000000000000000000C0001402C10BE
:1009B0000000000001401C10021A7000010D200010
:1009C00000000000000000000000000001942C1056
:1009D0000000000001941000010D7000019420003F
:1009E000000000000000000000000000010D2C10BD
:1009F0000000000001401000011D800001402000A7
:100A000000000000000000000000000001942C1015
:100A100000000000010D1000021A7A0F019420005E
:100A2000000000000000000000000C0001402C103D
:100A30000000000000D6100001E0700000F020006F
:100A400000000000000000000000000001942C10D5
:100A50000000000001401C1000F070000168200040
:100A600000000000000000000000000000F02C105A
:100A70000000000000F01000011D8000011D20009A
:100A800000000000000000000000000001682C10C1
:100A900000000000010D100001E07A0F0168200045
:100AA000000000000000000000000C00011D2C10E0
:100AB0000000000000F01C1001E0700000F02000B9
:100AC00000000000000000000000000001682C1081
:100AD00000000000011D100000F0700001682000FF
:100AE00000000000000000000000000000F02C10DA
:100AF00000000000010D1000011D8000011D2000FC
:100B000000000000000000000000000001682C1040
:100B10000000000000F01A0F021A7A0F016820008E
:100B20000000000000000C0000000C00011D2C1053
:100B30000000000001941000021A7000010D200056
:100B400000000000000000000000000001682C1000
:100B50000000000001401000010D70000194200011
:100B6000000000000000000000000000010D2C103B
:100B700000000000010D1000011D80000140200058
:100B800000000000000000000000000001942C1094
:100B90000000000001941000021A7A0F0194200056
:100BA000000000000000000000000C0001402C10BC
:100BB0000000000001401C10021A7000010D20000E
:100BC00000000000000000000000000001942C1054
:100BD0000000000001941000010D7000019420003D
:100BE000000000000000000000000000010D2C10BB
:100BF0000000000001401000011D800001402000A5
:100C000000000000000000000000000001942C1013
:100C100000000000010D100003287A0F019420004D
:100C2000000000000000000000000C0001402C103B
:100C300000000000011D100002D07000010D200016
:100C400000000000000000000000000001942C10D3
:100C500000000000014010000168700001AC20009D
:100C6000000000000000000000000000010D2C103A
:100C70000000000001531000011D80000140200011
:100C800000000000000000000000000001AC2C107B
:100C9000000000000140100002D07A0F01AC2000DB
:100CA000000000000000000000000C0001402C10BB
:100CB000000000000153100002D07000011D200050
:100CC00000000000000000000000000001AC2C103B
:100CD0000000000001AC10000168700001AC2000B1
:100CE000000000000000000000000000011D2C10AA
:100CF0000000000001401C10011D80000153200075
:100D000000000000000000000000000001AC2C10FA
:100D10000000000001AC1A0F01687A0F01AC20003E
:100D200000000000011D1A0F00000C0001532C10E0
:100D300000000F0400000F8500000000011D2000CE
:100D400000000000000000000000000001AC2C10BA
:100D500000000000012E41030000000001C520003A
:100D600000000000011D43FF00000000011D2C10C9
:100D7000000000000153400000000000015320006B
:100D800000000000000000000000000001C52C1061
:100D900000000000012E40000000000001C52000FE
:100DA00000000000000000000000000001532C10B3
:100DB00000000000011D4C1000000000012E20006A
:100DC00000000000000000000000000001C52C1021
:100DD000000000000168400001C57A0F01C5200035
:100DE000000000000000000000000C00012E2C108C
:100DF0000000000001C54000017D7A0A0168200062
:100E00000000000001684C1000000C0001C52C100F
:100E10000000000001684A0F012E7A0F01C5200072
:100E200000000D0000000C0000000C0001682C10F8
:100E300000000000000000000000000000000000B2
:100E400000000000000000000000000000000000A2
:100E50000000000000000000000000000000000092
:100E60000000000000000000000000000000000082
:10113000017D900001534F0402A6700000E22000E0
:1011400000000000000000000000000000E22C1081
:10115000012E9A0F017D40000153700001532000C1
:1011600000000C00000000000000000000E22C1055
:1011700001539F0401534000012E8000011D2000F7
:1011800000000000000000000000000001532C10CF
:101190000153503C01C54A0602A67A0F01532000B4
:1011A0000000003C0000000000000C00011D2C109D
:1011B0000153900001534C1002A6700000E2200081
:1011C00000000000000000000000000001532C108F
:1011D00001C59000015340000153700001532000ED
:1011E00000000000000000000000000000E22C10E1
:1011F00001539C10011D4000012E8000011D2000A4
:1012000000000000000000000000000001532C104E
:101210000153900000FE400003287A0F0153200084
:10122000000000000000000000000C00011D2C1058
:10123000011D900001534C1002A6700000E2200036
:1012400000000000000000000000000001532C100E
:10125000015360C7011D400001537000015320007D
:10126000000000C7000000000000000000E22C1099
:1012700001539C1000FE4C10012E8000011D200027
:1012800000000000000000000000000001532C10CE
:10129000011D9000012E400002A67A0F015320008C
:1012A000000000000000000000000C00011D2C10D8
:1012B0000153603C011D4C1002A6700000E22000AA
:1012C0000000003C000000000000000001532C1052
:1012D000012E900001C54000015370000153200011
:1012E00000000000000000000000000000E22C10E0
:1012F000011D9C1001AC4A0F012E8000011D200031
:101300000000000001C54C0A0000000001532C1031
:1013100001C59000017D4A0F03287A0F0153200078
:101320000000000000000C0000000C00011D2C104B
:1013300001AC9A0F015340000358700000D6200002
:1013400001C51C0A000000000000000001532C1021
:10135000017D9A0F017D4C1001AC700001532000FB
:1013600000000C00000000000000000000D62C105F
:101370000153900001AC4000012E8000011D2000AF
:1013800000000000000000000000000001532C10CD
:10139000017D9C100153400003587A0F0153200037
:1013A000000000000000000000000C00011D2C10D7
:1013B00001AC504701AC4C100358700000D620001F
:1013C00000000047000000000000000001532C1046
:1013D000015390000153400001AC70000153200004
:1013E00000000000000000000000000000D62C10EB
:1013F00001AC9C10012E4000012E8000011D200038
:1014000000000000000000000000000001532C104C
:1014100001539000011D400001AC7A0F01532000E0
:101420000000000000000A0600000C00011D2C1046
:10143000012E9000012E4C1001AC7000017D2000A7
:10144000000000000000000000000C00012E0A0354
:10145000017D30C7011D4C300000000000FE0A0372
:10146000000000C700000A0600000000017D2C30CB
:1014700001539C10011D4C1001AC7C30012E0A025E
:10148000000000000000000000000C0000FE0A0246
:1014900000FE900000FE4000017D7C40017D2C207C
:1014A0000000000000000A0600000C00012E0A01E6
:1014B000017D604C011D4C1000000000017D2C30AE
:1014C0000000004C0000000000000000012E0A0295
:1014D00000FE9C1000FE4C30017D7C3000FE0A02B4
:1014E0000000000000000A0600000C00017D2C2016
:1014F000011D9C1000FE4C10012E8C20012E0A01B3
:101500000000000000000C000000000000FE0A01C6
:1015100000FE9C3000FE4C10017D7C20017D2C10D3
:1015200000000A060000000000000C00012E0A0165
:101530000168900001404F040280700001402000CB
:1015400000000000000006070000000001402C1011
:10155000011D9A0F016844F101407000010D200047
:1015600000000C00000006070000000001402C10E5
:1015700001409F040140440000A0700000D62000FC
:10158000000000000000060700000000010D2C1004
:101590000140503C01AC4A0602807A0F0140200015
:1015A0000000003C0000060100000C0000D62C10DA
:1015B0000140940001404C1001408000010D2000CA
:1015C00000000607000006040000000001402C1087
:1015D00001AC9A0601E044000140700000D62000F2
:1015E000000006010000060700000000010D2C109D
:1015F00001409C100168440000A0700001402000E0
:1016000000000604000006070000000000D62C10B1
:1016100001E0940001AC440002FA7A0F010D2000B1
:10162000000006070000060700000C0001402C1017
:101630000168940001404C100280700000D6200028
:10164000000006070000060500000000010D2C1038
:10165000014060C701684C2001407000014020003B
:10166000000000C7000006050000000000D62C1096
:1016700001409C1001AC4C2000A07000010D200026
:1016800000000000000006050000000001402C10D2
:1016900001689C2001AC440002807A0F00D6200033
:1016A000000006050000060700000C00010D2C10CC
:1016B0000140603C0168440001408000014020007E
:1016C0000000003C000006070000000000D62C10BF
:1016D00001AC940001AC4C1001407000010D2000E1
:1016E00000000607000006040000000001402C1066
:1016F000016894000140440000A0700000D6200062
:10170000000006070000060700000000010D2C1075
:1017100001AC9C1001684C1002FA7A0F010D2000F8
:10172000000006040000060400000C0000D62C1087
:1017300001409400010D4400032870000140200086
:10174000000006070000060700000000010D2C1035
:1017500001689C1001404C1001947000010D2000A4
:1017600000000604000000000000000001402C10F2
:10177000010D940000F0440000CA700000CA20006F
:10178000000006070000060700000000010D2C10F5
:1017900001409C10010D440003287A0F01402000F5
:1017A000000000000000060700000C0000CA2C101A
:1017B0000194504700F04C1001408000010D2000C2
:1017C00000000047000006040000000001402C104B
:1017D00001409000011D44000194700000CA2000E7
:1017E000000000000000060700000000010D2C10A2
:1017F00001949C10010D440000CA70000168200093
:1018000000000000000006070000000000CA2C10C5
:1018100001409000011D440003287A0F011D2000A3
:10182000000000000000060700000C0001682C10FA
:10183000011D9000010D4C1002D0700000F020003E
:10184000000000000000060400000000011D2C1034
:10185000016830C701404400016870000168200041
:10186000000000C7000006070000000000F02C1078
:1018700001409C10011D4C1000B47000011D20009F
:1018800000000000000006040000000001682C10A9
:1018900000F090000168440002D07A0F00F02000B0
:1018A000000000000000060700000C00011D2C10C5
:1018B0000168604C01404C1001408000016820002C
:1018C0000000004C000006040000000000F02C1096
:1018D00000F09C1001684C1001687000011D200090
:1018E00000000000000006040000000001682C1049
:1018F000011D900001AC440001538C2000F0200039
:10190000000000000000060700000000011D2C1070
:1019100001AC900001684C1001687A0F016820004A
:10192000000000000000060400000C0000F02C1075
:101930000168900001404F040280700001402000C7
:1019400000000000000000000000000001402C101A
:10195000011D9A0F0168400001407000010D200038
:1019600000000C00000000000000000001402C10EE
:1019700001409F040140400000A0700000D62000FC
:10198000000000000000000000000000010D2C100D
:101990000140503C01AC4A0602807A0F0140200011
:1019A0000000003C0000000000000C0000D62C10DD
:1019B0000140900001404C1001408000010D2000CA
:1019C00000000000000000000000000001402C109A
:1019D00001AC900001E040000140700000D6200002
:1019E000000000000000000000000000010D2C10AD
:1019F00001409C100168400000A0700001402000E0
:101A000000000000000000000000000000D62C10C4
:101A10000140900001AC400002FA7A0F010D200055
:101A2000000000000000000000000C0001402C102D
:101A3000010D900001404C100280700000D6200083
:101A4000000000000000000000000000010D2C104C
:101A5000014060C701684C20014070000140200037
:101A6000000000C7000000000000000000D62C109D
:101A700001409C1001AC4C2000A07000010D200022
:101A800000000000000000000000000001402C10D9
:101A9000010D900001AC400002807A0F00D62000BA
:101AA000000000000000000000000C00010D2C10E0
:101AB0000140603C01E04000014080000140200006
:101AC0000000003C000000000000000000D62C10C8
:101AD000011D900001AC4C1001407000010D200070
:101AE00000000000000000000000000001402C1079
:101AF000010D9C10021A400000A0700000D62000CA
:101B0000000000000000000000000000010D2C108B
:101B100001AC900001E04C1002FA7A0F010D200098
:101B2000000000000000000000000C0000D62C1097
:101B300001949A0F01E0400003287000014020004A
:101B400001AC1C0A0000000000000000010D2C1078
:101B500001689A0F021A4C1001947000010D2000C8
:101B600000000C00000000000000000001402C10EC
:101B700001409000021A400000CA700000CA200014
:101B8000000000000000000000000000010D2C100B
:101B900001689C100280400003287A0F0140200059
:101BA000000000000000000000000C0000CA2C1023
:101BB00001945047021A4C1001408000010D200092
:101BC00000000047000000000000000001402C1051
:101BD00001409000028040000194700000CA200083
:101BE000000000000000000000000000010D2C10AB
:101BF00001949C10021A400000CA70000168200085
:101C000000000000000000000000000000CA2C10CE
:101C10000140900002804C1003287A0F011D200023
:101C2000000000000000000000000C0001682C1003
:101C3000011D900001AC400002D0700000F02000B7
:101C4000000000000000000000000000011D2C103A
:101C5000016830C701684000016870000168200019
:101C6000000000C7000000000000000000F02C1081
:101C700001409C1001E0400000B47000011D2000F4
:101C800000000000000000000000000001682C10AF
:101C900000F0900001AC400002D07A0F00F020006C
:101CA000000000000000000000000C00011D2C10CE
:101CB0000168604C01E04C10014080000168200088
:101CC0000000004C000000000000000000F02C109C
:101CD00000F09C1001E0400001687000011D200030
:101CE00000000000000000000000000001682C104F
:101CF000011D900001AC400001538C2000F0200039
:101D0000000000000000000000000000011D2C1079
:101D100001AC90000168400001688C30016820002F
:101D200000000000000000000000000000F02C1087
:101D3000011D9C08015341060328700000D62000B5
:101D400000000000014043F00000000000D62C1C01
:101D500001689C0801404C10019470000140200073
:101D600000000000000000000000000000D62C1C55
:101D7000015391060168400001688000010D2000B8
:101D8000014093F000000A070000000001402C1CF5
:101D90000140503C0140400003287A0F01402000E0
:101DA0000000003C0000000000000C00010D2C1C95
:101DB0000140900001684C100328700000D62000FC
:101DC00000000000000000000000000001402C1C8A
:101DD00001539C10010D400001947000014020004F
:101DE000014003F0000000000000000000D62C1CA1
:101DF0000140900001404C1001688000010D20005E
:101E000000000000000000000000000001402C1C49
:101E100001409C10011D400003287A0F0140200062
:101E2000000000000000000000000C00010D2C1C50
:101E3000011D9000010D4C1002D0700000F0200038
:101E400000000000000000000000000001402C1C09
:101E5000016830C701404C20016870000168200013
:101E6000000000C7000000000000000000F02C1C73
:101E700001409C10011D4C2001688000011D2000C4
:101E800000000000000000000000000001682C1CA1
:101E900001409C200140100002D07A0F0168200010
:101EA000000000000000000000000C00011D2C1CC0
:101EB0000168304C011D100002D0700000F02000BD
:101EC0000000004C000000000000000001682C1C15
:101ED0000140A00000B410000168700001682000FB
:101EE00000000000000000000000000000F02C1CBA
:101EF000011DA000011D100001688000011D2000CF
:101F000000000000000000000000000001682C1C20
:101F100000B4A00000F0100002D07A0F0168200089
:101F2000000000000000000000000C00011D2C1C3F
:101F3000011DA000011D1C2003587000011D200080
:101F400000000000000000000000000001682C1CE0
:101F500000F0A000011D1C2001AC700001AC2000AD
:101F6000000000000000000000000000011D2C1C0B
:101F7000011DAC2000F01C20016880000140200001
:101F800000000000000000000000000001AC2C1C5C
:101F9000011DAC20011D1C1003587A0F01AC20005C
:101FA000000000000000000000000C0001682C1C74
:101FB00001AC5037011D1C1003587000011D20009A
:101FC00000000037000000000000000001AC2C1CE5
:101FD000011DAC1000F01C1001AC700001AC200021
:101FE000000000000000000000000000011D2C1C8B
:101FF000011DAC10010D100001688000014020009F
:1020000000000000000000000000000001AC2C1CDB
:1020100000F0AC100140100003587A0F01AC200012
:10202000000000000000000000000C0001682C1CF3
:10203000010DA000010D1C2003287000010D2000DF
:1020400000000000000000000000000001AC2C1C9B
:10205000019430C7010D1C200194700001942000F0
:10206000000000C70000000000000000010D2C1C53
:10207000010DAC2001401C200168800001402000BF
:1020800000000000000000000000000001942C1C73
:10209000010DAC20010D1C1003287A0F01942000C3
:1020A000000000000000000000000C0001402C1C9B
:1020B0000194604C010D1C1003287000010D2000DC
:1020C0000000004C000000000000000001942C1CE7
:1020D000010DAC1001401C1001947000019420000F
:1020E000000000000000000000000000010D2C1C9A
:1020F000010DAC10010D1C0801688000014020009A
:1021000000000000000000000000000001942C1CF2
:102110000140AC10010D1C080194700001942000D6
:1021200000000000000000000000000001402C1C26
:1021300001689C08015341060328700000D6200066
:1021400000000000014043F00000000000D62C1009
:1021500001AC9C0801404C1001947000014020002B
:1021600000000000000000000000000000D62C105D
:10217000015391060168400001688000010D2000B4
:10218000014093F000000A070000000001402C10FD
:102190000140503C0140400003287A0F01402000DC
:1021A0000000003C0000000000000C00010D2C109D
:1021B0000140900001684C100328700000D62000F8
:1021C00000000000000000000000000001402C1092
:1021D00001539C10010D400001947000014020004B
:1021E000014003F0000000000000000000D62C10A9
:1021F0000140900001404C1001688000010D20005A
:1022000000000000000000000000000001402C1051
:1022100001409C10011D400003287A0F014020005E
:10222000000000000000000000000C00010D2C1058
:10223000011D900001404C1002D0700000F0200001
:1022400000000000000000000000000001402C1011
:10225000016830C701404C2001687000016820000F
:10226000000000C7000000000000000000F02C107B
:1022700001409C10011D4C2001688000011D2000C0
:1022800000000000000000000000000001682C10A9
:1022900001409C200140100002D07A0F016820000C
:1022A000000000000000000000000C00011D2C10C8
:1022B0000168304C011D100002D0700000F02000B9
:1022C0000000004C000000000000000001682C101D
:1022D000014090000140100001687000016820007A
:1022E00000000000000000000000000000F02C10C2
:1022F000011D90000168100001688000011D200090
:1023000000000000000000000000000001682C1028
:10231000014090000140100002807A0F0168200007
:10232000000000000000000000000C00011D2C1047
:1023300001689000011D1C200280700000D6200062
:1023400000000000000000000000000001682C10E8
:102350000140900001681C200140700001402000F5
:1023600000000000000000000000000000D62C105B
:10237000011D9C2001401C2001688000010D2000EF
:1023800000000000000000000000000001402C10D0
:1023900001689C20011D1C1002807A0F0140200062
:1023A000000000000000000000000C00010D2C10D7
:1023B00001AC505801681C100280700000D620004B
:1023C00000000058000000000000000001402C1038
:1023D000011D9C1001401C100140700001402000B4
:1023E00000000000000000000000000000D62C10DB
:1023F00001689C10010D100001688000010D200093
:1024000000000000000000000000000001402C104F
:1024100001409C100140100002807A0F0140200012
:10242000000000000000000000000C00010D2C1056
:10243000010D9000010D1C200280700000D62000CC
:1024400000000000000000000000000001402C100F
:1024500001AC30C8010D1C2001407000014020007B
:10246000000000C8000000000000000000D62C1092
:10247000010D9C2001401C2001688000010D2000FE
:1024800000000000000000000000000001402C10CF
:10249000010D9C20010D1C1002807A0F01402000CC
:1024A000000000000000000000000C00010D2C10D6
:1024B00001AC605C010D1C100280700000D6200091
:1024C0000000005C000000000000000001402C1033
:1024D000010D9C1001401C100140700001402000C3
:1024E00000000000000000000000000000D62C10DA
:1024F000010D9C10010D1C0801688000010D2000D9
:1025000000000000000000000000000001402C104E
:1025100001409C10010D1C0801407A0F0140200071
:10252000000000000000000000000C00010D2C1055
:1025300001689F8801404F040280700000D620008F
:1025400000000000000000000000000000D62C1079
:10255000011D9A0F016840000140700001402000F9
:1025600000000C00000000000000000000D62C104D
:1025700001409F040140400000A07000010D2000B8
:1025800000000000000000000000000001402C10CE
:102590000140503C01AC4A0602807A0F0140200005
:1025A0000000003C0000000000000C00010D2C1099
:1025B0000140900001404C100140800000D62000F6
:1025C00000000000000000000000000001402C108E
:1025D00001AC900001E0400001407000014020008B
:1025E00000000000000000000000000000D62C10D9
:1025F00001409C100168400000A07000010D200007
:1026000000000000000000000000000001402C104D
:102610000140900001AC400002FA7A0F0140200016
:10262000000000000000000000000C00010D2C1054
:10263000010D900001404C100280700000D6200077
:1026400000000000000000000000000001402C100D
:10265000014060C701684C2001407000014020002B
:10266000000000C7000000000000000000D62C1091
:1026700001409C1001AC4C2000A07000010D200016
:1026800000000000000000000000000001402C10CD
:10269000010D900001AC400002807A0F0140200043
:1026A000000000000000000000000C00010D2C10D4
:1026B0000140603C01E040000140800000D6200065
:1026C0000000003C000000000000000001402C1051
:1026D000011D900001AC4C10014070000140200031
:1026E00000000000000000000000000000D62C10D8
:1026F000010D9C10021A400000A07000010D200086
:1027000000000000000000000000000001402C104C
:1027100001AC900001E04C1002FA7A0F0140200059
:10272000000000000000000000000C00010D2C1053
:1027300001949A0F01E040000328700000CA2000B5
:1027400001AC1C0A000000000000000001402C1039
:1027500001689A0F021A4C10019470000140200089
:1027600000000C00000000000000000000CA2C1057
:1027700001409000021A400000CA7000010D2000C4
:1027800000000000000000000000000001402C10CC
:1027900001689C100280400003287A0F014020004D
:1027A000000000000000000000000C00010D2C10D3
:1027B00001945047021A4C100140800000CA2000CA
:1027C00000000047000000000000000001402C1045
:1027D0000140900002804000019470000140200000
:1027E00000000000000000000000000000CA2C10E3
:1027F00001949C10021A400000CA7000010D2000D4
:1028000000000000000000000000000001402C104B
:102810000140900002804C1003287A0F01402000F4
:10282000000000000000000000000C00010D2C1052
:10283000011D900001AC400002D0700000F02000AB
:1028400000000000000000000000000001402C100B
:10285000016830C70194400001AC7000016820009D
:10286000000000C7000000000000000000F02C1075
:1028700001409C1001AC400000D67000011D2000FA
:1028800000000000000000000000000001682C10A3
:1028900000F090000168400001AC70000168200069
:1028A000000000000000000000000000011D2C10CE
:1028B0000168604C01AC400001E0700000F02000B5
:1028C0000000004C000000000000000001682C1017
:1028D00000F09C100140400000F0700001682000F2
:1028E00000000000000000000000000000F02C10BC
:1028F000011D900001AC400001E07000011D2000AE
:1029000000000000000000000000000001682C1022
:1029100001AC9000011D400002D070000168200051
:10292000000000000000000000000000011D2C104D
:10293000014060000280700003586A0F01402000CF
:10294000000000000000000002806A0F01402C100F
:102950000168600001407000021A6A0F010D20003A
:10296000000000000000000002806A0F01402C10EF
:102970000140600000A07000021A6A0F00D620001B
:10298000000000000000000001AC6A0F010D2C10D7
:102990000140503C02807A0F021A6A0F0140200069
:1029A0000000003C00000C0001AC6A0F00D62C10A7
:1029B00001405C1C0140800001406A0F010D2000B5
:1029C000000000000000000001AC6A0F01402C1064
:1029D000014050000140700001406A0F00D6200005
:1029E0000000000000000000010D6A0F010D2C1016
:1029F000011D500000A0700001406A0F014020003E
:102A00000000000000000000010D6A0F00D62C102D
:102A1000010D500002FA7A0F00D66A0F010D200056
:102A20000000000000000C00010D6A0F01402C1096
:102A300001405C1C0280700000D66A0F00D62000A6
:102A4000000000000000000000A06A0F010D2C1023
:102A5000014060C70140700000D66A0F01402000AD
:102A6000000000C700000000010D6A0F00D62C1006
:102A7000010D5C1C00A0700000D66A0F010D200043
:102A80000000000000000000010D6A0F01402C1042
:102A900001AC500002807A0F01406A0F00D620007E
:102AA0000000000000000C00010D6A0F010D2C1049
:102AB0000140603C0140800001406A0F014020005D
:102AC0000000003C0000000001AC6A0F00D62C1092
:102AD00001AC5C1C0140700001406A0F010D200038
:102AE000000000000000000001AC6A0F01402C1043
:102AF00001AC500000A07000021A6A0F00D620003E
:102B0000000000000000000001AC6A0F010D2C1055
:102B10000168500002FA7A0F021A6A0F010D2000B4
:102B20000000000000000C0002806A0F00D62C108C
:102B3000010D50000328700003286A0F0140200097
:102B4000000000000000000002806A0F010D2C1040
:102B500001685C1C01947000021A6A0F010D2000CC
:102B6000000000000000000002806A0F01402C10ED
:102B7000011D500000CA7000021A6A0F00CA20002E
:102B8000000000000000000001946A0F010D2C10ED
:102B90000140500003287A0F021A6A0F01402000FA
:102BA0000000000000000C0001946A0F00CA2C1005
:102BB000019450470140800001406A0F010D200040
:102BC000000000470000000001946A0F01402C1033
:102BD00001405C1C0194700001406A0F00CA200093
:102BE0000000000000000000010D6A0F010D2C1014
:102BF0000194500000CA700001406A0F0168200073
:102C00000000000000000000010D6A0F00CA2C1037
:102C100001945C1C03287A0F00CA6A0F011D200072
:102C20000000000000000C00010D6A0F01682C106C
:102C30000168500002D0700000CA6A0F00F0200046
:102C4000000000000000000000A06A0F011D2C1011
:102C5000016830C70168700000F06A0F0168200049
:102C6000000000C700000000011D6A0F00F02C10DA
:102C700001685C1C00B4700001686A0F011D20002F
:102C80000000000000000000011D6A0F01682C1008
:102C90000140500002D07A0F01686A0F00F0200056
:102CA0000000000000000C0001E06A0F011D2C1064
:102CB0000168604C0140800001686A0F01682000D3
:102CC0000000004C0000000001E06A0F00F02C1032
:102CD00001405C1C01687000023A6A0F011D20006F
:102CE000000000000000000001E06A0F01682C10E5
:102CF0000168500001538C20023A6A0F00F0200056
:102D0000000000000000000002D06A0F011D2C101E
:102D100001405C1C01687A0F023A6A0F01682000CA
:102D20000000000000000C0002D06A0F00F02C1020
:102D300001406F040194700003286A0F0194200081
:102D4000000000000000000002806A0F01942C10B7
:102D50000168600000CA7000021A6A0F014020007A
:102D6000000000000000000002806A0F01942C1097
:102D70000140600001408000021A6A0F010D20002E
:102D8000000000000000000001946A0F01402C10B8
:102D90000140503C01688C10021A6A0F0194200017
:102DA0000000003C0000000001946A0F010D2C108F
:102DB00001405C1C0194700001406A0F014020003A
:102DC000000000000000000001946A0F01942C1024
:102DD0000140500000CA700001406A0F010D200040
:102DE0000000000000000000010D6A0F01402C10DF
:102DF000011D50000140800001406A0F0194200035
:102E00000000000000000000010D6A0F010D2C10F1
:102E1000010D50000194700000CA6A0F01402000AB
:102E20000000000000000000010D6A0F01942C104A
:102E300001405C1C0168700000F06A0F016820000E
:102E40000000000000000000011D6A0F01402C106E
:102E5000016830C700B4700001686A0F011D2000CE
:102E6000000000C700000000011D6A0F01682C105F
:102E7000010D5C1C0140800001686A0F00F0200019
:102E8000000000000000000001AC6A0F011D2C10C2
:102E900000D650000168700001686A0F01682000C8
:102EA000000000000000000001AC6A0F00F02C10D0
:102EB0000168404C01687000021A6A0F011D200071
:102EC0000000004C0000000001AC6A0F01682C10EB
:102ED00001AC5C1C00B47000021A6A0F00F0200004
:102EE000000000000000000002D06A0F011D2C103D
:102EF000010D500001408000021A6A0F0168200095
:102F0000000000000000000002D06A0F00F02C104A
:102F1000011D50000168700003286A0F011D200088
:102F2000000000000000000002D06A0F01682C10B1
:102F3000014050000140700003586A0F014020001A
:102F4000000000000000000002806A0F011D2C102C
:102F5000011D5C1C00A07000021A6A0F010D200008
:102F6000000000000000000002806A0F01402C10E9
:102F70000168500001408000021A6A0F00D620004C
:102F8000000000000000000001AC6A0F010D2C10D1
:102F90000140500001407000021A6A0F01402000F9
:102FA000000000000000000001AC6A0F00D62C10E9
:102FB000014060370140700001406A0F010D2000A0
:102FC000000000370000000001AC6A0F01402C1027
:102FD00001405C1C00A0700001406A0F00D6200078
:102FE0000000000000000000010D6A0F010D2C1010
:102FF000011D50000140800001406A0F0140200087
:103000000000000000000000010D6A0F00D62C1027
:10301000011D5C1C0140700000D66A0F010D2000EC
:103020000000000000000000010D6A0F01402C109C
:10303000014050000140700000D66A0F014020009E
:103040000000000000000000010D6A0F010D2C10AF
:10305000014030C700A0700001406A0F010D200040
:10306000000000C700000000010D6A0F01402C1095
:10307000011D5C1C0140800001406A0F00D6200049
:10308000000000000000000001AC6A0F010D2C10D0
:1030900001405C1C0140700001406A0F01402000AB
:1030A000000000000000000001AC6A0F00D62C10E8
:1030B0000140603C01407000021A6A0F010D2000BF
:1030C0000000003C0000000001AC6A0F01402C1021
:1030D00000000C0000A07000021A6A0F00D6200049
:1030E000000000000000000002806A0F010D2C109B
:1030F0000000000001408000021A6A0F0140200019
:10310000000000000000000002806A0F00D62C10B2
:10311000000000000140700003586A0F010D2000FC
:10312000000000000000000002806A0F01402C1027
:10313000000000000000000000000F800000000000
:10314000000000000000000000000000000000007F
:103150000000000001534F040000000000000000C8
:10316000000000000000000000000000000000005F
:10317000000000000000000000000000000000004F
:103180000000000001534A0F000000000000000092
:1031900000000000017D4000000000000000000071
:1031A000000000000000000000000000000000001F
:1031B0000000000000000A0F0000000000000000F6
:1031C000000000000153400000000000000000006B
:1031D00000000000017D4C10000000000000000015
:1031E0000000000000000A0F0000000000000000C6
:1031F0000000000001C540000000000000000000C9
:1032000000000000000000000000000000000000BE
:1032100000000000000000000000000000000000AE
:103220000000000000000A0F000000000000000085
:1032300000000000015340000000000000000000FA
:10324000000000000000000000000000000000007E
:10325000000000000000000000000000000000006E
:103260000000000000000A0F000000000000000045
:1032700000000000011D40000000000000000000F0
:10328000000000000000000000000000000000003E
:10329000000000000000000000000000000000002E
:1032A0000000000000000A0F000000000000000005
:1032B0000000000000FE40000000000000000000D0
:1032C00000000000000000000000000000000000FE
:1032D0000000000000000A0F0000000000000000D5
:1032E00000000000011D4000000000000000000080
:1032F00000000000000000000000000000000000CE
:1033000000000000000000000000000000000000BD
:103310000000000000FE4C10000000000000000053
:10332000000000000000000000000000000000009D
:103330000000000000000A0F000000000000000074
:1033400000000000012E400000000000000000000E
:10335000000000000000000000000000000000006D
:10336000000000000000000000000000000000005D
:10337000000000000000000000000000000000004D
:10338000000000000000000000000000000000003D
:103390000000000000000A0F000000000000000014
:1033A0000000000001C54000000000000000000017
:1033B0000000000000000A01000000000000000002
:1033C0000000000000000A010000000000000000F2
:1033D0000000000000000A010000000000000000E2
:1033E0000000000000000A010000000000000000D2
:1033F0000000000000000A010000000000000000C2
:103400000000000000000A0F0000000000000000A3
:1034100000000000000000000000000000000000AC
:10342000000000000000000000000000000000009C
:10343000000000000000000000000000000000008C
:10344000000000000000000000000000000000007C
:10345000000000000000000000000000000000006C
:10346000000000000000000000000000000000005C
:10347000000000000000000000000000000000004C
:10348000000000000000000000000000000000003C
:10349000000000000000000000000000000000002C
:1034A000000000000000000000000000000000001C
:1034B000000000000000000000000000000000000C
:1034C00000000000000000000000000000000000FC
:1034D00000000000000000000000000000000000EC
:1034E00000000000000000000000000000000000DC
:1034F00000000000000000000000000000000000CC
:1035000000000000000000000000000000000000BB
:103510000000000000000D0000000000000000009E
:10352000000000000000000000000000000000009B
:1035300001689C080153410603287F0400D620003F
:1035400000000000014043F00000000000D62C10F5
:1035500001AC9C0801404C10019470000140200017
:1035600000000000000000000000000000D62C1049
:10357000015391060168400001688000010D2000A0
:10358000014093F000000A070000000001402C10E9
:103590000140503C0140400003287A0F01402000C8
:1035A0000000003C0000000000000C00010D2C1089
:1035B0000140900001534C100328700000D62000F9
:1035C00000000000014003F00000000001402C104A
:1035D00001539C10010D4000019470000140200037
:1035E000014003F0000000000000000000D62C1095
:1035F0000140900001404C1001688000010D200046
:1036000000000000000000000000000001402C103D
:1036100001409C10011D400003287A0F014020004A
:10362000000000000000000000000C00010D2C1044
:10363000011D900001404C1002D0700000F02000ED
:1036400000000000000000000000000001402C10FD
:10365000016830C701404000016870000168200027
:10366000000000C7000000000000000000F02C1067
:1036700001409C10011D400001688000011D2000D8
:1036800000000000000000000000000001682C1095
:1036900001409C200140400002D07A0F01682000C8
:1036A000000000000000000000000C00011D2C10B4
:1036B0000168304C011D400002D0700000F0200075
:1036C0000000004C000000000000000001682C1009
:1036D0000140900001404000016870000168200036
:1036E00000000000000000000000000000F02C10AE
:1036F000011D90000168400001688000011D20004C
:1037000000000000000000000000000001682C1014
:10371000014090000140400002807A0F01682000C3
:10372000000000000000000000000C00011D2C1033
:103730000168900001404C200280700000D62000FB
:1037400000000000000000000000000001682C10D4
:103750000140900001684C200140700001402000B1
:1037600000000000000000000000000000D62C1047
:10377000011D9C2001404C2001688000010D2000AB
:1037800000000000000000000000000001402C10BC
:1037900001689C20011D4C1002807A0F014020001E
:1037A000000000000000000000000C00010D2C10C3
:1037B00001AC505801684C100280700000D6200007
:1037C00000000058000000000000000001402C1024
:1037D000011D9C1001404C10014070000140200070
:1037E00000000000000000000000000000D62C10C7
:1037F00001689C10011D4C0801688000010D20002B
:1038000000000000000000000000000001402C103B
:1038100001409C1001684C0802807A0F0140200092
:10382000000000000000000000000C00010D2C1042
:103830000168900001404C080280700000D6200012
:1038400000000000000000000000000001402C10FB
:1038500001AC40C8000000000140700001402000A1
:10386000000000C8000000000000000000D62C107E
:10387000011D9C200140900C01688000010D20007A
:103880000000000000000C000000000001402C10AF
:1038900001689C200140900C0000000001402000C5
:1038A0000000000000000C0000000000010D2C10C2
:1038B00001AC305C0140900C01688C2000D62000E7
:1038C0000000005C00000C000000000001402C1013
:1038D000011D9C100168900C0000000001402000B8
:1038E0000000000000000C000000000000D62C10BA
:1038F00001689C100140A00C01688C10010D200093
:103900000000000000000C000000000001402C102E
:1039100001409C100168A00C000000000140200044
:103920000000000000000C0000000000010D2C1041
:1039300002805A050000000002807C3F0140200008
:1039400002805C1000000C0000007C0F00000000F2
:1039500001AC5A050000000000007C3F01682C20EB
:1039600002805C100000000000007C0F00000000DE
:1039700001405A050000000000007C3F01402C205F
:1039800001AC5C100000000000007C0F0000000093
:1039900002805A050000000000007C3F01682C10E6
:1039A00001405C100000000000007C0F00000000DF
:1039B00001AC5A050358890100007C3F01402C10DE
:1039C00002805C100000000000007C0F000000007E
:1039D000011D5A050000000000007C3F01682C0812
:1039E00001AC5C1003588C2000007C0F000000002C
:1039F00002805A050000000000007C3F01402C08B6
:103A0000011D5C100000000000007C0F00000000A1
:103A100001AC5A0503588C1000007C3F00000C00DC
:103A200002805C100000000000007C0F000000001D
:103A3000010D5A050000000002D07C3F01403C040B
:103A400001AC5C1003588C0800007C0F010D0EA225
:103A500002D05A050000000000007C3F00D60EA2F4
:103A6000010D5C100000000000007C0F01400EA260
:103A700001E05A0503588C0400007C3F010D0EA2A2
:103A800002D05C100000000000007C0F00D60EA2E7
:103A9000011D5A050000000000007C3F01400EA2FD
:103AA00001E05C100000000000007C0F010D0EA280
:103AB00002D05A050358890100007C3F00D60EA2AF
:103AC000011D5C100000000000007C0F01400EA2F0
:103AD00001E05A050000000000007C3F010D0EA22D
:103AE00002D05C1003588C1000007C0F00D60EA290
:103AF00001405A0503588C2000007C3F01400EA273
:103B000001E05C100000000000007C0F010D0EA21F
:103B100002D05A050000000000007C3F00D60EA233
:103B200001405C1003588C0800007C0F01400EA27D
:103B300002805A0500000C0003287C3F010D0EA2F4
:103B400002D05C100000000000007C0F00D60EA226
:103B500001AC5A050000000000007C3F01400EA2AD
:103B600002805C100000000000007C0F010D0EB20E
:103B700001405A050000000000007C3F00D60EB254
:103B800001AC5C100000000000007C0F01400EB290
:103B900002805A050000000000007C3F010D0EB2BB
:103BA00001405C100000000000007C0F00D60EB247
:103BB00001AC5A050358890100007C3F01400EB258
:103BC00002805C100000000000007C0F010D0EB2AE
:103BD000011D5A050000000000007C3F00D60EB217
:103BE00001AC5C1003588C2000007C0F01400EB229
:103BF000021A5A050000000000007C3F010D0EB2C1
:103C0000011D5C100000000000007C0F00D60EB209
:103C100001E05A0503588C1000007C3F01400EB2B1
:103C2000021A5C100000000000007C0F010D0EB2B3
:103C3000010D5A050000000002D07C3F00D60EB2F4
:103C400001E05C1003588C0800007C0F01400EB2AC
:103C5000021A5A050000000000007C3F010D0EB260
:103C6000010D5C100000000000007C0F00D60EB2B9
:103C700001E05A0503588C0400007C3F010D0EB290
:103C8000021A5C100000000000007C0F00D60EB28B
:103C9000011D5A050000000000007C3F011D2103AA
:103CA00001E05C100000000000007C0F010D230FFC
:103CB000021A5A050358890100007C3F00000000E9
:103CC000011D5C100000000000007C0F00000000DF
:103CD00001E05A050000000000007C3F011D2A059C
:103CE000021A5C1003588C1000007C0F011D2C1070
:103CF000011D5A0503588C2000007C3F010D030074
:103D000001E05C100000000000007C0F011D2C1081
:103D100001685A050000000000007C3F01402000BF
:103D2000011D5C1003588C0800007C0F0168200006
:103D300001405F040194700003286A0F0194200081
:103D4000000000000000000002806A0F01942C10A7
:103D50000168500000CA7000021A6A0F014020007A
:103D6000000000000000000002806A0F01942C1087
:103D70000140500001408000021A6A0F010D20002E
:103D8000000000000000000001946A0F01402C10A8
:103D90000140503C01947000021A6A0F0194200007
:103DA0000000003C0000000001946A0F010D2C107F
:103DB00001405C1C0194700001406A0F014020002A
:103DC000000000000000000001946A0F01942C1014
:103DD0000140500000CA700001406A0F010D200030
:103DE0000000000000000000010D6A0F01402C10CF
:103DF000011D50000140800001406A0F0194200025
:103E00000000000000000000010D6A0F010D2C10E1
:103E1000010D50000194700000CA6A0F014020009B
:103E20000000000000000000010D6A0F01942C103A
:103E300001405C1C0168700000F06A0F01682000FE
:103E40000000000000000000011D6A0F01402C105E
:103E5000016830C700B4700001686A0F011D2000BE
:103E6000000000C700000000011D6A0F01682C104F
:103E7000010D5C1C0140800001686A0F00F0200009
:103E8000000000000000000001AC6A0F011D2C10B2
:103E9000014050000168700001686A0F016820004D
:103EA000000000000000000001AC6A0F00F02C10C0
:103EB0000168404C01687000021A6A0F011D200061
:103EC0000000004C0000000001AC6A0F01682C10DB
:103ED00001405C1C00B47000021A6A0F00F0200060
:103EE000000000000000000002D06A0F011D2C102D
:103EF0000168500001408000021A6A0F016820002A
:103F0000000000000000000002D06A0F00F02C103A
:103F1000011D50000168700003286A0F011D200078
:103F2000000000000000000002D06A0F01682C10A1
:103F3000014050000140700003586A0F014020000A
:103F4000000000000000000002806A0F011D2C101C
:103F5000011D5C1C00A07000021A6A0F010D2000F8
:103F6000000000000000000002806A0F01402C10D9
:103F70000168500001408000021A6A0F00D620003C
:103F8000000000000000000001AC6A0F010D2C10C1
:103F90000140500001407000021A6A0F01402000E9
:103FA000000000000000000001AC6A0F00D62C10D9
:103FB000014060370140700001406A0F010D200090
:103FC000000000370000000001AC6A0F01402C1017
:103FD00001405C1C00A0700001406A0F00D6200068
:103FE0000000000000000000010D6A0F010D2C1000
:103FF000011D50000140800001406A0F0140200077
:104000000000000000000000010D6A0F00D62C1017
:10401000011D5C1C0140700000D66A0F010D2000DC
:104020000000000000000000010D6A0F01402C108C
:10403000014050000140700000D66A0F014020008E
:104040000000000000000000010D6A0F010D2C109F
:10405000014030C700A0700001406A0F010D200030
:10406000000000C700000000010D6A0F01402C1085
:10407000011D5C1C0140800001406A0F00D6200039
:10408000000000000000000001AC6A0F010D2C10C0
:1040900001405C1C0140700001406A0F014020009B
:1040A000000000000000000001AC6A0F00D62C10D8
:1040B0000140603C01407000021A6A0F010D2000AF
:1040C0000000003C0000000001AC6A0F01402C1011
:1040D00000000C0000A07000021A6A0F00D6200039
:1040E000000000000000000002806A0F010D2C108B
:1040F0000000000001408000021A6A0F0140200009
:10410000000000000000000002806A0F00D62C10A2
:10411000000000000140700003586A0F010D2000EC
:10412000000000000000000002806A0F01402C1017
:1041300003285A0500000F0403287C3F014020009B
:1041400003285C1000000C0000007C0F00000C1025
:1041500002805A050000000000007C3F011D200085
:1041600003285C100000000000007C0F00000C1011
:1041700001405A05010DBA0F00007C3F010D2000DF
:1041800002805C100000000000007C0F00000C109A
:1041900003285A0500B4BA0F00007C3F00D6200067
:1041A00001405C10010DBC1000007C0F00000C10E1
:1041B00002805A050358890100007C3F010D2C1034
:1041C00003285C100000000000007C0F00000C04BD
:1041D000011D5A0500B4BC1000007C3F01402C308A
:1041E00002805C1003588C2000007C0F00000C0C37
:1041F00003285A050087BA0F00007C3F011D2C30B0
:10420000011D5C100000000000007C0F00000C0C81
:1042100002805A0503588C1000007C3F010D2C30A1
:1042200003285C100087BC1000007C0F00000C0C01
:10423000010D5A050097BA0F03287C3F00D62C3099
:1042400002805C1003588C0800007C0F00000C0CEE
:1042500003285A0500B4BA0F00007C3F01402C200F
:10426000010D5C100000000000007C0F00000C0835
:1042700002805A050097BC1000007C3F011D2C20D5
:1042800003285C1000000C0000007C0F00000C08EC
:10429000011D5A0500B4BC1000007C3F010D2C200C
:1042A00002805C1000000C0000007C0F00000C0875
:1042B00003285A050358890100007C3F00D62C20B2
:1042C000011D5C100000000000007C0F00000C08C5
:1042D00002805A050097BC0400007C3F01402C106E
:1042E00003285C1003588C1000007C0F00000C04A5
:1042F00001405A0503588C2000007C3F011D2C1002
:1043000002805C100000000000007C0F00000C0424
:1043100003285A050000000000007C3F00D62C1046
:1043200001405C1003588C0800007C0F00000C0456
:1043300002D05A050000000002D07C3F014020005E
:1043400003285C1000000C0000007C0F00000C0033
:10435000023A5A050000000000007C3F011D2000C9
:1043600002D05C100000000000007C0F00000C0078
:1043700001405A05010DBA0F00007C3F010D2000DD
:10438000023A5C100000000000007C0F00000C00EE
:1043900002D05A0500B4BA0F00007C3F00D62000BE
:1043A00001405C10010DBC1000007C0F00000C00EF
:1043B000023A5A050358890100007C3F010D2C1078
:1043C00002D05C100000000000007C0F00000C0018
:1043D000011D5A0500B4BC1000007C3F01402C3088
:1043E000023A5C1003588C2000007C0F00000C0087
:1043F00002D05A0500CABA0F00007C3F011D2C30C4
:10440000011D5C100000000000007C0F00000C008B
:10441000023A5A0503588C1000007C3F010D2C30E5
:1044200002D05C1000CABC1000007C0F00000C0021
:10443000010D5A0500B4BA0F02D07C3F00D62C30D3
:10444000023A5C1003588C0800007C0F00000C003E
:1044500002D05A050097BA0F00007C3F01402C2083
:10446000010D5C100000000000007C0F00000C003B
:10447000023A5A0500B4BC1000007C3F011D2C20FC
:1044800002D05C1000000C0000007C0F00000C004B
:10449000011D5A050097BC1000007C3F011D21033F
:1044A000023A5C1000000C0000007C0F010D230F8D
:1044B00002D05A050358890100007C3F000000002B
:1044C000011D5C100000000000007C0F00000000D7
:1044D000023A5A050000000000007C3F011D2A0539
:1044E00002D05C1003588C1000007C0F011D2C10B2
:1044F00001405A0503588C2000007C3F010D030049
:10450000023A5C100000000000007C0F011D2C101E
:1045100002D05A050000000000007C3F014020004E
:1045200001405C1003588C0800007C0F01682000DB
:1045300002805A0500B4BA0F02807C3F014020007F
:1045400002805C100000000000007C0F00000000F2
:1045500001AC5A0500B4BC1000007C3F01682C205F
:1045600002805C100000000000007C0F00000000D2
:1045700001405A05010DBA0F00007C3F01402C207C
:1045800001AC5C100000000000007C0F0000000087
:1045900002805A0500B4BA0F00007C3F01682C105D
:1045A00001405C10010DBC1000007C0F00000000F9
:1045B00001AC5A050358890100007C3F01402C10D2
:1045C00002805C100000000000007C0F0000000072
:1045D000011D5A05010DBC1C00007C3F01682C0820
:1045E00001AC5C1003588C2000007C0F0000000020
:1045F00002805A0500B4BC1C00007C3F01402C081E
:10460000011D5C1000000C0000007C0F0000000089
:1046100001AC5A0503588C1000007C3F00000C00D0
:1046200002805C100000000000007C0F0000000011
:10463000010D5A05010DBC1002D07C3F01403C0425
:1046400001AC5C1003588C0800007C0F010D0EA219
:1046500002D05A0500B4BC1000007C3F00D60EA268
:10466000010D5C1000000C0000007C0F01400EA248
:1046700001E05A0503588C0400007C3F010D0EA296
:1046800002D05C100000000000007C0F00D60EA2DB
:10469000011D5A050000000000007C3F01400EA2F1
:1046A00001E05C100000000000007C0F010D0EA274
:1046B00002D05A050358890100007C3F00D60EA2A3
:1046C000011D5C100000000000007C0F01400EA2E4
:1046D00001E05A050000000000007C3F010D0EA221
:1046E00002D05C1003588C1000007C0F00D60EA284
:1046F00001405A0503588C2000007C3F01400EA267
:1047000001E05C100000000000007C0F010D0EA213
:1047100002D05A050000000000007C3F00D60EA227
:1047200001405C1003588C0800007C0F01400EA271
:1047300002805A0500000C0003287C3F010D0EA2E8
:1047400002D05C100000000000007C0F00D60EA21A
:1047500001AC5A050000000000007C3F01400EA2A1
:1047600002805C100000000000007C0F010D0EB202
:1047700001405A050000000000007C3F00D60EB248
:1047800001AC5C100000000000007C0F01400EB284
:1047900002805A050000000000007C3F010D0EB2AF
:1047A00001405C100000000000007C0F00D60EB23B
:1047B00001AC5A050358890100007C3F01400EB24C
:1047C00002805C100000000000007C0F010D0EB2A2
:1047D000011D5A050000000000007C3F00D60EB20B
:1047E00001AC5C1003588C2000007C0F01400EB21D
:1047F000021A5A050000000000007C3F010D0EB2B5
:10480000011D5C100000000000007C0F00D60EB2FD
:1048100001E05A0503588C1000007C3F01400EB2A5
:10482000021A5C100000000000007C0F010D0EB2A7
:10483000010D5A050000000002D07C3F00D60EB2E8
:1048400001E05C1003588C0800007C0F01400EB2A0
:10485000021A5A050000000000007C3F010D0EB254
:10486000010D5C100000000000007C0F00D60EB2AD
:1048700001E05A0503588C0400007C3F0000000052
:10488000021A5C100000000000007C0F0000000015
:10489000011D5A050000000000007C3F011D21039E
:1048A00001E05C100000000000007C0F010D230FF0
:1048B000021A5A050000090100007C3F00000000B8
:1048C000011D5C100000000000007C0F00000000D3
:1048D00001E05A0501688C2002D07000011D2A05F4
:1048E000021A5C100000000000000A0F011D2C10CD
:1048F000011D5A0501688C3001687000010D03002C
:1049000001E05C100000000000000A0F011D2C10E7
:1049100001685A050168800000B470000140200061
:10492000011D5C100000000000000A0F016820005B
:1049300000000000000038222B1DE5D2D1FDF9193E
:104940000E030D3A2B2BD9F2DD11E7E7ED284223B8
:104950002B0600004141414141414141414141411A
:104960004141414141414141414141414141414137
:1049700041410000000000004141414141414141AD
:104980004141414141414141414141414141414117
:1049900041414141414100000000000000005260DF
:1049A00035434242424242424242424242424242F3
:1049B000424242424242424242424242F1E30DFFFF
:1049C0000000000000004144414144414144414154
:1049D00044414144414144414144414144414144B5
:1049E00041414441000000000000000000000000C0
:1049F00041414141414141424141414141414141A6
:104A00004241414141414141414241414141000016
:104A10000000000000000000000000000000000096
:104A200000004141414141414141414141414142F7
:104A30004141414141414141414141414141414166
:104A40004141414142414141414141414141414155
:104A50004141414141414141414241414141414145
:104A60004141414141414141414141414141424135
:104A70004141414141414141414141414141414126
:104A80004141414241414141414141414141414115
:104A90004141414141410000000000000000000090
:104AA00000000000000000000000000000000205FF
:104AB0005FFFFF0020FF80FF0080A7BBFFAFF70F65
:104AC0003F486D7C7F7F777060463CC004C7BFA8BD
:104AD0008580808080808080808097BFE707175F17
:104AE0003F45206018313447677F7F7F7F7F7F7F1E
:104AF0007F7F7F7F7F7F74614020F2DDD09884804C
:104B000080808080808080808080808080808080A5
:104B1000AFDFEF281F3F407F7C776F7F7F7F7F7FF6
:104B20007F7F7F7F7F7F7F7F7F785F70671850F701
:104B3000D0E8D0C0C0AD9FA29780858A809880972A
:104B400083809094809780A0DFBFD400EF2C2F2724
:104B50004B5F7C7F7C7F7F7F7F7F7F7F4760472F9E
:104B600000C0E0D4A2B0A08888808080808080804F
:104B70008080808F878F9FACD0D3E0E7241F3F4F8A
:104B80006D37785F6170687F3F6F72576B56275F34
:104B9000004F0740EF4008262A1000EBD7C8E8C8AE
:104BA000BBA2C8AF92B0A0B0AF89C0AFC4B7CBC8EA
:104BB00000FFFF1F38402F4037463021442C3F2F45
:104BC000502048092800FFFFFFD400E0FAFFC1DFB2
:104BD000D7D0CFF0E0DFBFBFD7DFEFB7C4CCDFD493
:104BE000CDCFDDF4D9E00800F8300B2F273F3F444C
:104BF0004B37783F40435B3F4045212F302B110717
:104C00001BF010D8FFC0C8BFB0BFAFC8C5D3CFD846
:104C1000D7FBD7F7DF08000B200F08343F17F10848
:104C200022F510FF0F0020FF1408FFFF00F4F3FF30
:104C3000F9FF2CFF0F0F2817101518121415000B71
:104C400013F10006E8FFE2F0E4D3E2E9D9F0EFD097
:104C5000E0D7CFEAE7F7FDF610002B070C1010178E
:104C60000B280020071408FF14050500FDF30FF5BD
:104C7000FE02060CFFEBF70EF8FFF7FBFF0C08082F
:104C800014FFFF070007020F101F13081730171437
:104C90000411071F040BF0FFFDFFEBF4FCE0F4EF41
:104CA000FBE7EAFBF7FFFF080515020418FF1400F5
:104CB00010101714150C0DFF00041C0EFF10F80047
:104CC000F7F6F9F8EAE8E0ECF2E4F5E7EFF3F8FFDD
:104CD000FF0F1F1C0820141C00000008FFFFFFEF3F
:104CE000000400F8F7FBF8F0FF00F3FFFDFFFF04FE
:104CF00017031B000A0B0C0202090BFF0BF708F845
:104D000000FCE3EDF0EBE4EBEFDFE0EFE4E7E4F7EA
:104D1000F0E9E7F6F7EEF304FC080718171B281C68
:104D200027172423242F1F2F1A1828130E1008FFCB
:104D3000F4FBFAEEE2EFE5D9DCE1E2E2DCDFDCE411
:104D4000E6E8DDF0EAE8EFFAFFF3FF0A0F100F17CD
:104D50000C19071B060A14180F240C0F0F1D0B0F3C
:104D60000B24170F17100708FF0CF7F6FFF0F8F8E1
:104D7000F3EAF3E0FEDFF0E5F0E0EFE8F6DDF0EF78
:104D8000ECEBF8ECFBE9FEFF040D101424171828D7
:104D9000181A1A1C170F100D0807FEF5F0F8F6E7A1
:104DA000F0EDE8ECF0EAE8EBF0F3EDFFF700F9FFE7
:104DB000FDFEF502FAFCFEFA03050508FF0D0715D6
:104DC000030A05FCFFF8F0E5E5E8E7E0E8DDE8DFE9
:104DD000E0E7E0F7F7F6FFFD05FF0B0B08FF0C011E
:104DE000060AFE00F5F5EDEBF4F0EBEBEFEFE4EC8B
:104DF000E8E5F0E8EAE3F0F0F0DFE8E3E7E9EEEF1A
:104E0000EDF3EAF5F7FD00031016231B2D211F28F3
:104E10002027180710FD00F8F4F9E4F3ECECEAF3AE
:104E2000F8DBE5E8E7E8E7E4DADFD8E0DED7D0D57D
:104E3000D0E0CFE1DFE8F4F8F907000312070B0F29
:104E4000100F0708130E0F0D10121A11220F1B213D
:104E500024191F0C100B10FDF7ECEFE0DCD2D2CBC5
:104E6000D0C7C5C2C9BDC6C7C9CAD4DBDDDFEAF831
:104E7000EF0402050B141F1A1320102F202A2527D8
:104E8000201F24201815120800FDFAE8EAE3D6DEF8
:104E9000D0C5CCC2BBBCCCD0C5CFD6D8DFE4F4E4FF
:104EA000FDF301FEFF0007FF060B0D161D2524274D
:104EB00023342E2B232B1926131815000BF400EB8B
:104EC000E8F2E5E6DFDFDCCDD8C6CBC4C7C8BFC19A
:104ED000CDCDDBD1E2E4EEFDFF000D07100F1C2568
:104EE000181F202F201F242A20181714050800F54A
:104EF000E4D9DDD1D0CCC7C3C2C5C5CEC8CDD5D5C8
:104F0000DFE7E2F4EB00FA090D161F1A2A2E34240B
:104F10002F2D2028301B130F12030803FBF9F7F481
:104F2000E0E4E9E6E4E5E1E2DDF6F3E0E7E4E6E427
:104F3000E7E8DFE1EFF0F6EF03FD05080F040B03F0
:104F40001306000F0906060A080F060C040A1210C1
:104F50000F0A03110C0305080603FD00FCEBF4F730
:104F6000EDE7E8F8E7EDEBF0E6E6F1F5EDF4EDFD61
:104F7000FBFFF9FDFB08FFFD00FF08FF02FD0A0033
:104F80000C0514031211130D0C0C1F04090B0D0C4E
:104F90000C180F101A1A1313110F080E0F03030821
:104FA00002FCF3F5F1F6F6E7E4D4EAD9DCDDDCE760
:104FB000E6F2F1EF06F5060702070F131B1F232F7A
:104FC0002D3034343634353628281E1A1E0B160080
:104FD00006FF00F0F7E6E7EAE7EDD7E8E3E3E1E70D
:104FE000E9EFEBFAF305010F0B161F1A24282D1F0A
:104FF00030252D2C1F23251E270B240E220F10FEDB
:10500000FEFDFBF3F3E4EEF2F6EBF3F0EAECECEE8C
:10501000E8EEEEEAE8F7EBF7F9F3FA030F14101AEB
:105020001915162C15231A2C181F1F2020261F1C9B
:10503000162017181913100C080F07FAFFFA04F4BA
:10504000FDF9F3FCEFF8FAF4F0F9F8EBFDFAF1F7FB
:10505000F4FAF6FEFC07FBFFFA12030F0C10080A25
:1050600009100913100B141916181710180620032D
:105070000C0B000C0008F20AFF07FC06FFF7FF000C
:10508000FF00F0F7F800000000061A2D332708F1A2
:10509000E4E0F7060104192D322608F8FDFAE6E0EF
:1050A000F70C1A2A322507F80000000000001B0F39
:1050B000150EF3EAEAFFFD0B0601061B1513EEFAC7
:1050C000EF07F5F5F7131E11130200000102060B9E
:1050D0000B0B0B08080B0F100C0500FFFBF5F0EA9B
:1050E000EAEAECECECEAEAEAECF4FE020B141B1E32
:1050F0001E1B1A1A1B1B1B190B01FFFBEEE1DBD851
:10510000D8DBDBD8D8DCE2EAF1FB010C1F2F332F10
:105110002D2D2D2D2D291E100600F5DECECCC9C952
:10512000C9C9C9C5C5D1E5F1F1FE122D3D3D3E41CC
:105130004648463D2D241A0C02F1D3BFBFBEB8B578
:10514000B3ACB3B4C2D7ECFB051B2D3D4B54646428
:105150005F574B3D32281905ECD3C9C3AAA59C97CC
:1051600098A2A2A2B8DBFB061A253D5A6F77776496
:105170005E5B5A4C2B0F00EEDCCAB5A19F9795974A
:10518000A1A1A1A6C8F105081A3452697773615F1D
:105190005F5F563B1A0801EECEB3A6A19795989F84
:1051A0009F9F9FBBE2FE010B2D50656B6968615F9D
:1051B0005F5B48290F05F1D8C5BAA7A198979795C5
:1051C00011241FBECFEFCDBFDFE7DEBF80914000CF
:1051D00080934000811105C098ED21E094BF209399
:1051E00041008CBB80E38093011088ED90EB84BF7D
:1051F0009093011010E4A0E0B0E4E0E2F6E600E0F5
:105200000BBF02C007900D92A034B107D9F721E47B
:10521000A0E4B0E401C01D92A831B207E1F755D671
:105220000C940E330C940000FC01862F807F71F0EB
:1052300062956F708181680F67FD0AC061340CF060
:1052400060E46183848D8160848F08956195F2CFDD
:1052500060E0F7CF2F923F924F925F926F927F92D2
:105260008F929F92AF92BF92CF92DF92EF92FF9276
:105270000F931F93CF93DF93CDB7DEB72B97CDBF9F
:10528000DEBF80918F408F5F80938F4090909240DF
:10529000891550F080919040882309F4C7C081504F
:1052A0008093904010928F40A3E9B0E4A983BA8321
:1052B00010E000E04EE1F42E53E0E52E62E0C62E51
:1052C000D12C80910B418017110609F00CF436C4E3
:1052D000A981BA815096EC9120918F40E93E09F462
:1052E00069C308F02CC3EE2309F456C321118BC304
:1052F000E23E09F4ADC308F098C3E13E09F4A3C34C
:10530000F09EF001F19EF00D1124E155FF4B8081DC
:1053100080FF14C0A981BA8111968C91813408F064
:1053200080E4E981FA81858FF09EF001F19EF00D15
:105330001124E155FF4B80818E7F8083F09EF00128
:10534000F19EF00D1124E155FF4B808181FF66C075
:10535000A981BA811C961D921D921D921C921F97C5
:1053600012966D917C916115710509F44DC090E024
:1053700080E00E94E0314B015C01E981FA81808983
:10538000811128C02189222329F1E22FF0E08091A8
:105390008F406E2D0E94F9329601291B3109C901F7
:1053A000880F991F880F991F02C0F595E7958A9578
:1053B000E2F7EF70FF27EE0FFF1FEE0FFF1FE05029
:1053C000F04C2081318142815381C501B40164D701
:1053D0004B015C0160910C4170910D4190E080E0C7
:1053E000EFD7A50194010E9496329B01AC016AE3BC
:1053F0007CE788E59AE450D7A981BA811C966D9321
:105400007D938D939C931F97F09EF001F19EF00D7C
:105410001124E155FF4B80818D7F80830F5F1F4FEB
:10542000E981FA817E96E983FA834BCF80918E40A1
:105430008F5F80938E408090874080346CF08091A5
:1054400089408F5F80938940881104C08091884093
:105450008093894010928E4010918940E091854060
:10546000F0918640E10FF11DE49100918E40809112
:105470000B41282F30E029833A83409144405091DA
:1054800045404C835D8380910C4190910D4140904B
:105490000E4150900F416090104170901141A3E96E
:1054A000B0E4AA87BB87B0E4EB9FF0011124E00FC2
:1054B000F11D07FDFA95E29F7001E39FF00CF29F4A
:1054C000F00C1124EE0CFF1CEE0CFF1C20918A4006
:1054D00030918B40E20EF31E1B82D12CC12C222472
:1054E0002A94322CAEE1AA2E9C0150E040E02E839B
:1054F0003F834887598749815A81C416D5060CF0E5
:10550000F1C1F7012491C7010296FC014491207F6B
:1055100050E0A4E055954795AA95E1F7422BF70195
:1055200024913196E49130E0322F222722273F70D8
:105530002E2BFC0184913196E49190E0982F8827DE
:1055400088279F708E2B692F772767FD7A956E309D
:10555000710509F07DC0BC01F4E075956795FA9579
:10556000E1F7AA85BB8550966C9350978F70519642
:105570008C934115510561F1403151050CF06FC01C
:10558000AA85BB854C93CA010197A89EF001A99EEC
:10559000F00D1124BD968C819D81E80FF91F849137
:1055A000813408F05AC0E491AA85BB851196EC932A
:1055B000119750968C918D3E09F4BBC2AC9CF001C2
:1055C000AD9CF00D1124E155FF4B808181608083FB
:1055D0002115310569F0AA85BB8550968C918330E1
:1055E000E9F08D3E09F03FC0EA85FB8526833783CD
:1055F000AA85BB8550968C918D3009F443C108F083
:105600005DC0873009F4C2C008F043C0843009F49B
:10561000A9C0853069F0833009F043C0EA85FB8575
:105620008189811101C08289AA85BB8552968C939C
:10563000922F832F232B21F4EA85FB85948185818A
:10564000AA85BB8514969C93149715968C9329C0B4
:10565000EA85FB85608B818B8CCFE0E4A5CFEA8562
:10566000FB851082B5CFAA85BB8512962D933C93FE
:105670001397FD011086118612861386AC9CF001EB
:10568000AD9CF00D1124E155FF4B80818260808339
:10569000AFCF8B3009F4D8C008F0DFC0893009F4EF
:1056A000B5C0EFEFCE1ADE0A2A853B85225E3F4F5A
:1056B0002A873B8734E0E30EF11C1DCF853E09F4B9
:1056C000F5C058F5813E09F475C0823E09F47DC0ED
:1056D0008F3039F7AA85BB855196BC90BB2009F362
:1056E000BFE1BB1508F0FCC06E817F81888599857C
:1056F00067D62B013C016B2D70E090E080E060D616
:105700002DEC3CEC4CEC5EE311D79B01AC01C301EA
:10571000B201C2D52B013C01C4CF8A3E09F460C05E
:10572000B0F4863E09F0BDCFAA85BB8551969C9109
:105730005197992309F4CDC05A968C915A978111AB
:10574000BFC05A969C935A975B960C91AACF8B3EFA
:1057500009F451C08E3E09F0A4CFEA85FB85F1899A
:10576000FB839FCFEA85FB858189982F9F7011F479
:1057700093899F70807F21F4EA85FB858389807FF0
:10578000892BAA85BB8553968C938BCFEA85FB85A5
:105790008189982F9F7011F494899F70807F21F4E4
:1057A000EA85FB858489807F892BAA85BB855496F1
:1057B0008C9377CFEA85FB858189811101C0868929
:1057C000AA85BB8556968C936CCFEA85FB8581892B
:1057D000811101C08789AA85BB8557968C9361CFBB
:1057E000EA85FB858189811101C0808DAA85BB85F1
:1057F00058968C9356CFEA85FB858189811101C02B
:10580000818DAA85BB8559968C934BCF232B19F498
:10581000452B09F446CFEA85FB856189611101C0FA
:105820006589AA85BB8555966C9370E0762F6627AF
:10583000072E000C880B990BC5D5EA85FB85608780
:105840007187828793872DCFAA85BB8551961C913E
:10585000181508F010E00FEF24CFEA85FB85818949
:10586000813408F080E4AA85BB8511968C93AC9CAA
:10587000F001AD9CF00D1124E155FF4B808181605A
:1058800080830FCFEA85FB858189282F30E074E083
:10589000359527957A95E1F7FAE0F29F1001F39F8D
:1058A000300C11248F70280E311CFBCEAC9CF00103
:1058B000AD9CF00D1124E155FF4B80818260E0CF5B
:1058C0008150EA85FB85828F882309F4EACE038D17
:1058D000E8CE8FEF800FAA85BB855B968C93E1CED7
:1058E0009B2CDFCE1093894000938E404B814093D8
:1058F00090409092924040920E4150920F4160929F
:105900001041709211415FEF2516350609F4CACC9B
:1059100080E4281631048CF48FEF820D80938E4042
:105920001F5F1093894080918740181708F4BACC04
:105930008091884080938940B5CC8FEFEFCFEC3ECB
:1059400009F44BC0ED3E09F0D1CCA981BA81519642
:105950008C915197821354C08C91882309F450C0C4
:10596000F09ED001F19EB00D1124A155BF4B8C913A
:10597000826081608C93A981BA8116968D919C91E9
:10598000179712968D939C93139718961D921D92BC
:105990001D921C921B9734C0F09ED001F19EB00D59
:1059A0001124A155BF4B8C9182608C93222309F462
:1059B0009FCCA6CCA981BA8151966C91662321F027
:1059C000822F17D69111F2CFA981BA8118961D9214
:1059D0001D921D921C921B97E9CFA981BA81519605
:1059E0008C9151978213E2CF11961C92F09ED001B8
:1059F000F19EB00D1124A155BF4B8C9181608C9309
:105A0000222309F47DCCE150EA3008F079CCF0E0B3
:105A1000E55FF24DFAC5462D4A2D532D6D2D4E2DC5
:105A2000832D8B2D80298029952DEA3E41F1EB3E77
:105A300009F066CCA981BA8159966C9159976F701B
:105A4000CD01F2DB5DCCE981FA812689219503C085
:105A5000E981FA81278982819381820F911D27FD37
:105A60009A958137910510F481E790E08935F3E04C
:105A70009F0710F088E593E0A981BA812AC0E981E7
:105A8000FA81608D6295607FCF01DBCFE981FA8179
:105A90002189DCCFE981FA812189DDCFE981FA8191
:105AA0006189CF01C1DBA981BA8112968D919C9148
:105AB000139714962D913C91159752964C915297AD
:105AC00050E082179307A0F4840F951F2817390719
:105AD000A8F012968D939C931397F09EF001F19E7F
:105AE000F00D1124E155FF4B80818260808308CC4A
:105AF000841B950B8217930708F0BECFE981FA81CA
:105B000022833383EACFA981BA8151966C91519750
:105B1000CD018ADBE2CFF09EF001F19EF00D112461
:105B2000E155FF4B80818160E1CFE981FA81618994
:105B3000ABCF2115310509F057CDB3CD2B96CDBF95
:105B4000DEBFDF91CF911F910F91FF90EF90DF901B
:105B5000CF90BF90AF909F908F907F906F905F900D
:105B60004F903F902F900895EF93FF93E0E4F0E47F
:105B70008F938FB78F9380818F5F808381818F4FC9
:105B8000818382818F4F828383818F4F838381E0E2
:105B90008093260B8F918FBF8F91FF91EF91189576
:105BA0001F920F920FB60F9211240BB60F922F92E5
:105BB0003F924F925F926F927F928F929F92AF929D
:105BC000BF92CF92DF92EF92FF920F931F932F938A
:105BD0003F934F935F936F937F938F939F93AF9375
:105BE000BF93EF93FF93CF93DF93CDB7DEB72797A4
:105BF000CDBFDEBF0091164110911741011511056F
:105C000009F060C180910B41282F30E02B833C8349
:105C1000A0904440B0904540F3E9EF2EF0E4FF2E11
:105C2000312C212C8B819C81281639060CF0DAC08E
:105C3000D70112968D919C911397892B09F4B1C0CD
:105C400018964D905D906D907C901B9720E030E011
:105C5000A901C301B20166D487FDA3C0F701808109
:105C6000882309F49EC0282F2150330B69013EE19F
:105C70003C9DC0013D9D900D1124DC019E96AA0D16
:105C8000BB1DFD01F491F983BC01615D7F4F6A0D7D
:105C90007B1DFB0164919C01205D3F4F2A0D3B1D44
:105CA000F9012491FC01F196EA0DFB1D849030E08E
:105CB000322F2227330F912C880C991C820E931EB1
:105CC000F3E08F16910408F473C03981232F30E07C
:105CD000322F2227330F70E0660F771F260F371FF2
:105CE000280D391D2E833F83D7015D96BC91BD835E
:105CF000C301B20139D3F601EE0FFF1FEE0FFF1FF4
:105D0000EC5BFF4B2681378129833A836217730747
:105D100008F051C0F601EE0FFF1FEE0FFF1FE85B0A
:105D2000FF4B0190F081E02DE60FF71FD490A30107
:105D30009201D7011C966D917D918D919C911F9739
:105D400043D2F7016087718782879387D7011896BE
:105D50004D905D906D907C901B97EE81FF81309708
:105D600061F1BF0190E080E02BD3A301920190D2BA
:105D700018161CF1B40190E080E022D39B01AC0125
:105D8000C301B20120D2D70118966D937D938D93F4
:105D90009C931B972D813D2D3203F00111240E0F92
