:1000000088C00000B8C00000B6C00000B4C0000046
:10001000B2C00000B0C00000AEC00000ACC0000024
:10002000AAC00000A8C00000A6C00000A4C0000034
:10003000A2C00000A0C0000020C300009CC00000BF
:100040009AC0000098C0000096C0000094C0000054
:1000500092C0000090C000008EC000008CC0000064
:100060008AC0000088C0000086C0000084C0000074
:1000700082C0000080C000007EC00000E2C200001C
:100080007AC0000078C0000076C0000074C0000094
:1000900072C0000070C000006EC000006CC00000A4
:1000A0006AC0000068C0000066C0000064C00000B4
:1000B00062C0000060C000005EC000005CC00000C4
:1000C0005AC0000058C0000056C0000054C00000D4
:1000D00052C0000050C000004EC000004CC00000E4
:1000E0004AC0000048C0000046C0000044C00000F4
:1000F00042C0000005A84CCDB2D44EB93836A90292
:100100000C50B9918688083CA6AAAA2ABE00000015
:10011000803F11241FBECFEFCDBFDFE7DEBF809150
:10012000400080934000811105C098ED21E094BF0C
:10013000209341008CBB80E38093011088ED90EB0D
:1001400084BF9093011010E4A0E0B0E4E8EFF8E180
:1001500000E00BBF02C007900D92AE33B107D9F794
:1001600024E4AEE3B0E401C01D92AB38B207E1F77E
:100170000BD30C947A0C44CFCF93DF93DB01EA01CD
:1001800020E0382F330F330FC901F6E0969587959D
:10019000FA95E1F724E0329F212D33271124422FD5
:1001A0009C01332741111BC0220F331FF901E05C72
:1001B000FE4B20813181288339839395292F237029
:1001C0009927211129C0880F991FFC01E05CFE4B83
:1001D000808191818D939C93DF91CF9108954130DF
:1001E00039F4E0E0F1E0E21BF30BEE0FFF1FDFCF8D
:1001F000423059F4220F331FF901E05CFE4B20819D
:100200003181319521953109D6CFE0E0F1E0E21B53
:10021000F30BEE0FFF1FF1CF213039F4E0E0F1E0F6
:10022000E81BF90BEE0FFF1FD1CF223059F4880FD6
:10023000991FFC01E05CFE4B808191819195819535
:100240009109C8CFE0E0F1E0E81BF90BEE0FFF1FCA
:10025000F1CF2F923F924F925F926F927F928F9247
:100260009F92AF92BF92CF92DF92EF92FF920F9345
:100270001F93CF93DF93CDB7DEB76A97CDBFDEBFB5
:100280001C0180589F4FAEEBB0E4F1011192119226
:100290001D921D92E817F907C9F7BEE3CB2EB0E413
:1002A000DB2E0EEB10E4710180E4482E512C612C02
:1002B000712CAA24A394B12C9501220F331F2D83F6
:1002C0003E83F901EC5BFB4B8080918036E0831626
:1002D00091040CF451C0F60184819581A681B78107
:1002E000840D951DA61DB71D9370AA27BB27848377
:1002F0009583A683B783AE014F5F5F4FBE016D5FED
:100300007F4F3ADFAB81BC8194010E946E0CEFE01D
:100310009595879577956795EA95D1F7D7011296C8
:100320006D937C931397A981BA810E946E0CFFE0B4
:100330009595879577956795FA95D1F7F80162833A
:100340007383D70112962D913C918D819E81919559
:100350008195910980589F4FF101E80FF91F208383
:10036000318382549F4BF80122813381319521954D
:100370003109DC012D933C93BFEFAB1ABB0AE4E0DB
:10038000CE0ED11CF0E44F0E511C611C711C22E0FA
:10039000E20EF11C0E5F1F4F411438E0530661045A
:1003A000710409F089CF7EEBA72E70E4B72ED1013E
:1003B00030E020E041E050E005E010E070E060E077
:1003C00090E080E07A01062E02C0EE0CFF1C0A9439
:1003D000E2F7E222F322EF2861F07801E61AF70A49
:1003E000FA0102C0EE0FFF1FEA94E2F77F018E2BA5
:1003F0009F296F5F7F4F6630710521F728173907F6
:10040000F4F4ED90FC901197880F991FB101680FDB
:10041000791FFB01C080D180CD92DC921197E082E0
:10042000F182F5016081718182549F4BFC01E08073
:10043000F180F501E082F182FC01608371832F5F1E
:100440003F4F1296F2E0AF0EB11C2034310509F097
:10045000B5CF86E090E08D879E8701E010E03801FF
:10046000660C771C80E490E0B3010E945B0C698FFE
:100470007A8F6301CC0CDD1CCF8AD88E2EEB30E452
:100480002F83388729863A861B861C86512C412C5F
:10049000AE014F5F5F4FBE016D5F7F4F8B859C85C7
:1004A0006BDEEB81FC81EF87F88BC980DA80CB8A29
:1004B000DC8AEF81F88549855A854D825E826A0122
:1004C000C60CD71CD601ED90FC909F01260D371D60
:1004D0002D8B3E8BD9010D90BC91A02DA98BBA8B91
:1004E0009701AF85B8890E946E0C4B015C01298988
:1004F0003A89AB89BC890E946E0C861A970AA80AB1
:10050000B90A8FE0B594A794979487948A95D1F708
:10051000DA018D919C9188199909D6018D939C934C
:100520009701AB89BC890E946E0C6B017C012F8501
:100530003889A989BA890E946E0CC60ED71EE81E9A
:10054000F91E9FE0F594E794D794C7949A95D1F754
:10055000808191818C199D09AD89BE898D939C9371
:10056000DA018D919C911197880E991E8D929C9223
:1005700060817181C60ED71EC082D182CD80DE809F
:10058000C60CD71CCD82DE82CF88D88C4C0D5D1D69
:10059000EC0DFD1D2D813E81203431050CF48FCFF3
:1005A0003FEF431A530ACB84DC84298D3A8DC20E67
:1005B000D31ECB86DC8689859A85029689879A87A1
:1005C000AF81B8851296AF83B8874016510609F0FF
:1005D0005FCF2D853E85215031092D873E878301D0
:1005E000232B09F03CCF6A96CDBFDEBFDF91CF91C0
:1005F0001F910F91FF90EF90DF90CF90BF90AF9041
:100600009F908F907F906F905F904F903F902F9032
:100610000895CF92DF92EF92FF926B017C01C1149B
:10062000D104E104F10431F07BD6A7019601CDD6C7
:100630006B017C01C701B601FF90EF90DF90CF9076
:100640000895EF93FF93E7E8F4E48F938FB78F93C8
:1006500080818F5F808381818F4F818382818F4FE3
:10066000828383818F4F838381E08093260B8F91D8
:100670008FBF8F91FF91EF9118951F920F920FB638
:100680000F9211240BB60F922F934F935F936F939A
:100690007F938F939F93AF93BF93EF93FF9380913B
:1006A0004244E0913E41F0913F41EE0FFF1F811126
:1006B00064C0EE5BFC4B8081918195958795959503
:1006C00087959E5F97FD5CC0092E000CAA0BBB0BA3
:1006D000811524E09207A105B10524F08FEF93E086
:1006E000A0E0B0E0AC01BD0126E0440F551F661F3D
:1006F000771F2A95D1F74093A20642E0B595A795BA
:10070000979587954A95D1F78093A30680913E41AE
:1007100090913F41019680933E4190933F4180915B
:100720003E4190913F418034910594F010923E41BA
:1007300010923F418091004081110AC09091424443
:1007400081E0911180E08093424481E080930040F9
:1007500081E08093060BFF91EF91BF91AF919F9144
:100760008F917F916F915F914F912F910F900BBE61
:100770000F900FBE0F901F901895EE53FC4B9BCF20
:1007800080E090E0DC01AECFCF93DF93CDB7DEB752
:100790006C97CDBFDEBF88ED94E284BF9093680074
:1007A00021E02093030A8EEF8093260A8093270A84
:1007B0009BE09093000A2093430A8093660A8093FB
:1007C000670A9093400A32E03093E6059093E7057C
:1007D00037E03093010B80930C0B10920D0B95E0DA
:1007E0009093000B3093110B80931C0B10921D0BF8
:1007F0009093100B3093310B80933C0B10923D0B78
:100800009093300B4FEF5FE04093AA0B5093AB0BEC
:1008100080E88093820B1092810B4BEF53E0409362
:10082000AE0B5093AF0B81E78093800B1092E805DD
:10083000E0E0F6E092838EE0858380E68383908318
:1008400085E582953091B200387F8770832B809345
:10085000B2004FED5EE240932C0B50932D0B209392
:10086000250B1092210B83E08093200B789484E079
:10087000809370049093B00020930006809302064A
:100880001092080620930A0680910D0680FFFCCF87
:10089000609110067091110690E080E0611571057D
:1008A0008105910509F088D5E0E4EE2EE1E4FE2E05
:1008B00010E000E0B801012E000C880B990B15D652
:1008C0002BED3FE049EC50E474D620E030E040E806
:1008D0005AE36FD6D1D620E03EEF4FEF56E469D60B
:1008E000D1D5D7016D937D937D010F5F1F4F01150A
:1008F000B1E01B07F9F68FEF9FE780934043909399
:10090000414384E08093760490E89093B20091ECA8
:100910009093A0068093720481E08093000797E192
:100920009093020795E0909310079FE79093140728
:1009300092E2909313071092000B1092010B27EE96
:1009400033E020930C0B30930D0B8093050B8093B9
:10095000000B64E6862E912CA12CB12C74E6272E78
:10096000312C8091854490918644019680938544F2
:100970009093864468EE73E08AD78436910508F038
:100980007EC08091844490E001968F709927809377
:10099000844490E1E5E0F0E4DE01119601900D92CF
:1009A0009A95E1F78770E82FF0E0EE0FFF1F41E026
:1009B00050E04C0F5D1FE40FF51F0081118168EEC0
:1009C00073E080E090E025DEF801EE0FFF1FEC5BA6
:1009D000FB4B20813181DC01CB018C509E4FAF4F0E
:1009E000BF4F820F931F8083918360E971E080E0A5
:1009F00090E00FDEF801EE0FFF1FEA5BFB4B20815A
:100A00003181DC01CB0188539F4FAF4FBF4F820F25
:100A1000931F8083918384D4A5019401D6D46E3131
:100A20007105810591055CF56CE271E080E090E074
:100A3000F0DDF801EE0FFF1FE65BFB4B20813181FB
:100A4000DC01CB018C599F4FAF4FBF4F820F931FDB
:100A50008083918366E970E080E090E0DADD000F4A
:100A6000111FF801EE5BFB4B20813181DC01CB01D2
:100A7000C296A11DB11D820F931F80839183809127
:100A800085449091864460E570E001D7059708F0B1
:100A9000A3C08091434490E001966CE070E00BD7D6
:100AA0008093434428E1E5E1F0E4DE0111960190F2
:100AB0000D922A95E1F7880F991FE1E0F0E0EC0F25
:100AC000FD1FE80FF91F0081118162EC71E080E0E9
:100AD00090E09FDDF801EE0FFF1FEC5BFB4B2081E8
:100AE0003181DC01CB01845D9E4FAF4FBF4F820F40
:100AF000931F8083918368EC70E080E090E089DD53
:100B0000F801EE0FFF1FE85BFB4B20813181DC0118
:100B1000CB018C599F4FAF4FBF4F820F931F8083E4
:100B2000918364E670E080E090E073DDF801EE0F01
:100B3000FF1FE45BFB4B20813181DC01CB01C296BE
:100B4000A11DB11D820F931F8083918366E470E025
:100B500080E090E05EDDF801EE0FFF1FEE5AFB4BE8
:100B600020813181DC01CB014E96A11DB11D820F88
:100B7000931F80839183D4D3A501940126D46A3036
:100B800071058105910544F568EC70E080E090E026
:100B900040DD6B017C0164E070E080E090E039DDD5
:100BA0006F5F7F4F8F4F9F4F012E000C220B330B37
:100BB000060F171F281F391F000F111FF801EC5BCC
:100BC000FB4B8081918154E6C50ED11CE11CF11CC8
:100BD000C80ED91EC082D1828091854490918644EE
:100BE0006EE170E054D6039708F069C063E070E0EE
:100BF00080E090E00EDD6B018B010F5F1F4F60E91D
:100C000071E080E090E005DDF801EE0FFF1FEC5B86
:100C1000FB4B20813181DC01CB018C599F4FAF4FC1
:100C2000BF4F820F931F8083918366E970E080E05D
:100C300090E0EFDCA3E0CA0ED11CF601EE0FFF1F1F
:100C4000EC5BFB4B20813181AB01BC014E5C5F4F03
:100C50006F4F7F4F420F531F4083518361D3A501D4
:100C60009401B3D3623371058105910544F564E6BF
:100C700070E080E090E0CDDC6B017C0163E070E02F
:100C800080E090E0C6DC6F5F7F4F8F4F9F4F012E5B
:100C9000000C220B330B060F171F281F391F000FE4
:100CA000111FF801EC5BFB4B80819181B2E3CB0E0D
:100CB000D11CE11CF11CC80ED91EC082D1828091CA
:100CC00085449091864468E770E0E1D5089708F084
:100CD0005DC06AE070E080E090E09BDC6B018B011E
:100CE000065F1F4F63E070E080E090E092DC6130CF
:100CF000710509F437C16230710509F48FC1672BA2
:100D000009F044C060E971E080E090E082DC000F0F
:100D1000111FF801EC5BFB4B20813181DC01CB0121
:100D200088539F4FAF4FBF4F820F931F8083918394
:100D30006AEF70E080E090E06CDCF6013E96EE0F2A
:100D4000FF1FEC5BFB4B20813181DC01CB018A561C
:100D50009F4FAF4FBF4F820F931F8083918368ECEB
:100D600070E080E090E055DCF6017196EE0FFF1F19
:100D7000EC5BFB4B20813181DC01CB018C599F4F17
:100D8000AF4FBF4F820F931F808391838091854423
:100D9000909186446DE270E07AD5049708F077C0B0
:100DA0006770772780E1EDE2F0E4DE0111960190B3
:100DB0000D928A95E1F78B010E5E1F4F660F771F2C
:100DC000E1E0F0E0EC0FFD1FE60FF71F608171819D
:100DD000060F171F6CE271E080E090E01ADCF8016A
:100DE000EE0FFF1FEC5BFB4B20813181DC01CB015F
:100DF00088539F4FAF4FBF4F820F931F80839183C4
:100E000064E670E080E090E004DCF801EE0FFF1F84
:100E1000EA5BFB4B20813181DC01CB018C599F4F78
:100E2000AF4FBF4F820F931F8083918379D2A5016B
:100E30009401CBD2693171058105910544F568ECC7
:100E400070E080E090E0E5DB6B017C0163E070E046
:100E500080E090E0DEDB6E5F7F4F8F4F9F4F012E73
:100E6000000C220B330B060F171F281F391F000F12
:100E7000111FF801EC5BFB4B8081918124E6C20ECF
:100E8000D11CE11CF11CC80ED91EC082D18248D2EF
:100E900028EC30E040E050E098D2633071058105E5
:100EA00091050CF0E0C069E170E080E090E0B1DB1A
:100EB0002B013C0145E0440E511C611C711C64E097
:100EC00070E080E090E0A5DB6E5F7F4F8F4F9F4F1B
:100ED000698F7A8FF12CE12CD12CC12CC2010196A3
:100EE0008B8F9C8FA98DBA8DCA16DB060CF0BBC008
:100EF0008701040D151D003211056CF566E970E0DF
:100F000080E090E086DB000F111FF801EC5BFB4BEB
:100F100020813181DC01CB01C296A11DB11D820F60
:100F2000931F8083918366E470E080E090E071DB42
:100F3000EB8DFC8DEE0DFF1DEE0FFF1FEC5BFB4BF1
:100F400020813181DC01CB014E96A11DB11D820FA4
:100F5000931F80839183BFEFCB1ADB0AE2E0EE0E92
:100F6000F11CC0CF68EC70E080E090E052DB000F35
:100F7000111FF801EC5BFB4B20813181DC01CB01BF
:100F8000845D9E4FAF4FBF4F820F931F808391832D
:100F900068EC70E080E090E03CDBF6013D96EE0FFF
:100FA000FF1FEC5BFB4B20813181DC01CB018853BF
:100FB0009F4FAF4FBF4F820F931F8083918366E98E
:100FC00070E080E090E025DBF6017196EE0FFF1FE8
:100FD000EC5BFB4B20813181DC01CB018A569F4FBA
:100FE000AF4FBF4F820F931F8083918364E670E001
:100FF00080E090E00EDBF6017496EE0FFF1FEC5BD5
:10100000FB4B20813181AB01BC014C595F4F6F4FCD
:101010007F4F420F531F40835183B8CE55E0C52EFA
:10102000D12C6CE070E080E090E0F3DA7801E60E1D
:10103000F71E66E970E080E090E0EBDAF701EE0F72
:10104000FF1FEC5BFB4B20813181DC01CB01C296A1
:10105000A11DB11D820F931F80839183E1E0CE1A01
:10106000D108F9F693CE5CD12CE231E040E050E0BB
:10107000ACD162307105810591050CF04BC06BE17C
:1010800070E080E090E0C5DA6B017C0166E272E01E
:1010900080E090E0BEDA66507F4F8F4F9F4FFB019C
:1010A00023E0C20ED11CE11CF11C960110E000E00F
:1010B0000F5F1F4F2032310544F5C901880F991F7A
:1010C000AC014C5B5B4B7A01DA01CD90DC90CF0137
:1010D000B801F1D36C0D7D1DD7016D937C93223047
:1010E00031059CF0C9018E7FAC014C5B5B4B7A01F2
:1010F000DA01CD90DC90CF01B8016E5F7F4FDBD37A
:101100006C0D7D1DD7016D937C932E5F3F4F033097
:10111000110571F610E000E026E9722E7801EE0C60
:10112000FF1CF701EC5BFB4B8081918118161906BF
:101130000CF046C02AE530E00530110564F025E5E5
:1011400030E00F3011053CF02BE430E00E3111059A
:1011500014F026E430E0F701EC5BFB4B6F014081BB
:101160005181429FC001439F900D529F900D1124C9
:10117000B101A1D360837183D3D0A501940125D19E
:10118000653071058105910594F4D6018D919C918E
:101190001197C39764F02D913C91729EC001739E8C
:1011A000900D1124B10187D3F60160837183F7019B
:1011B000EC5BFB4B808191810A9714F410821182C1
:1011C0000F5F1F4F0032110509F0A8CF80918544B1
:1011D0009091864460E47FE15AD38D5D9E41C19732
:1011E00008F042C02FE030E01CE3F901EE0FFF1FD2
:1011F000EC5BFB4B40815181149FC001159F900D0A
:101200001124B10158D3608371832E5F3F4F213287
:10121000310559F76AE872E080E090E0FAD9209150
:10122000544430915544DC01CB01825A9E4FAF4F5C
:10123000BF4F820F931F809354449093554464EFA3
:1012400071E080E090E0E5D920915C4430915D440C
:10125000DC01CB0186509F4FAF4FBF4F820F931FD2
:1012600080935C4490935D4480910040882309F40E
:1012700078CB80914244811107C082EC93E40E94B4
:101280002901109200406DCB82E493E4F8CF8F9255
:101290009F92AF92BF92CF92DF92EF92FF92CF9345
:1012A000DF93EC01688179818A819B8161157105E9
:1012B0008105910521F464E279ED8BE597E02DE15C
:1012C00033EF41E050E081D049015A019B01AC016C
:1012D000A7EAB1E496D06B017C01ACEEB4EFA501B6
:1012E00094019BD0C60ED71EE81EF91EF7FE06C05D
:1012F00081E0C81AD108E10880E8F80AC882D982DA
:10130000EA82FB82C701B6019F77DF91CF91FF9000
:10131000EF90DF90CF90BF90AF909F908F90089507
:101320008F929F92AF92BF92CF92DF92EF92FF92F5
:10133000609101407091024080910340909104407F
:10134000611571058105910521F464E279ED8BE564
:1013500097E02DE133EF41E050E037D049015A01E9
:101360009B01AC01A7EAB1E44CD06B017C01ACEE6F
:10137000B4EFA501940151D0C60ED71EE81EF91E88
:10138000F7FE06C081E0C81AD108E10880E8F80A33
:10139000C0920140D0920240E0920340F09204409B
:1013A000C701B6019F77FF90EF90DF90CF90BF907D
:1013B000AF909F908F90089560930140709302408A
:1013C00080930340909304400895052E97FB16F4F4
:1013D00000940FD057FD05D024D007FC02D046F46E
:1013E00008C050954095309521953F4F4F4F5F4F26
:1013F000089590958095709561957F4F8F4F9F4F81
:10140000089531D0A59F900DB49F900DA49F800D9D
:10141000911D11240895B7FFF4CFF3DF821B930BC6
:101420000895A1E21A2EAA1BBB1BFD010DC0AA1F25
:10143000BB1FEE1FFF1FA217B307E407F50720F03D
:10144000A21BB30BE40BF50B661F771F881F991FB8
:101450001A9469F760957095809590959B01AC0101
:10146000BD01CF010895A29FB001B39FC001A39F0A
:10147000700D811D1124911DB29F700D811D1124CD
:10148000911D089504D06894B1118DC0089570D055
:1014900088F09F5790F0B92F9927B751A0F0D1F05D
:1014A000660F771F881F991F1AF0BA95C9F712C0E7
:1014B000B13081F077D0B1E0089574C0672F782FF4
:1014C0008827B85F39F0B93FCCF386957795679553
:1014D000B395D9F73EF490958095709561957F4FBF
:1014E0008F4F9F4F0895E89409C097FB3EF4909565
:1014F0008095709561957F4F8F4F9F4F9923A9F0ED
:10150000F92F96E9BB279395F6958795779567957B
:10151000B795F111F8CFFAF4BB0F11F460FF1BC0BF
:101520006F5F7F4F8F4F9F4F16C0882311F096E952
:1015300011C0772321F09EE8872F762F05C0662300
:1015400071F096E8862F70E060E02AF09A95660FB9
:10155000771F881FDAF7880F9695879597F9089572
:1015600057FD9058440F551F59F05F3F71F0479554
:10157000880F97FB991F61F09F3F79F08795089539
:10158000121613061406551FF2CF4695F1DF08C058
:10159000161617061806991FF1CF86957105610575
:1015A00008940895E894BB2766277727CB0197F91D
:1015B00008950BD0A6C06FD028F074D018F09523F2
:1015C00009F060C065C01124EECFCADFA0F3959F7B
:1015D000D1F3950F50E0551F629FF001729FBB271A
:1015E000F00DB11D639FAA27F00DB11DAA1F649FC6
:1015F0006627B00DA11D661F829F2227B00DA11D79
:10160000621F739FB00DA11D621F839FA00D611DFE
:10161000221F749F3327A00D611D231F849F600D1F
:10162000211D822F762F6A2F11249F5750408AF058
:10163000E1F088234AF0EE0FFF1FBB1F661F771FE4
:10164000881F91505040A9F79E3F510570F01AC075
:10165000AACF5F3FECF3983EDCF3869577956795CC
:10166000B795F795E7959F5FC1F7FE2B880F911D02
:101670009695879597F908959F931CD00F9007FC36
:10168000EE5F50C097F99F6780E870E060E00895D2
:101690009FEF80EC089500240A941616170618068A
:1016A0000906089500240A94121613061406050666
:1016B0000895EECF5DDFE8F3E894E0E0BB279F57A5
:1016C000F0F02AED3FE049EC06C0EE0FBB0F661FBD
:1016D000771F881F28F0B23A62077307840728F043
:1016E000B25A620B730B840BE3959A9572F78038AC
:1016F00030F49A95BB0F661F771F881FD2F790486A
:1017000084C0092E0394000C11F4882352F0BB0FFF
:1017100040F4BF2B11F460FF04C06F5F7F4F8F4F09
:101720009F4F0895EF93E0FF06C0A2EA2AED3FE045
:1017300049EC5FEB15D0E5DF0F90039401FC905866
:10174000E4EFF0E06EC0A7DF30F0ACDF20F031F462
:101750009F3F11F41EF49CCF0EF4E095E7FB92CF6F
:10176000E92FFEDE80F3BA17620773078407950737
:1017700018F071F49EF516CF0EF4E0950B2EBA2FEB
:10178000A02D0B01B90190010C01CA01A001112487
:10179000FF27591B99F0593F50F4503E68F11A1633
:1017A000F040A22F232F342F4427585FF3CF4695C4
:1017B00037952795A795F0405395C9F77EF41F16E6
:1017C000BA0B620B730B840BBAF09150A1F0FF0FB0
:1017D000BB1F661F771F881FC2F70EC0BA0F621F9C
:1017E000731F841F48F4879577956795B795F7958C
:1017F0009E3F08F0B3CF9395880F08F09927EE0F1E
:101800009795879508959F3F31F0915020F48795E3
:1018100077956795B795880F911D9695879597F958
:1018200008959F938F937F936F93FF93EF939B0103
:10183000AC01BFDEEF91FF9105D02F913F914F9109
:101840005F91B7CEDF93CF931F930F93FF92EF92E9
:10185000DF927B018C01689405C0DA2EEF01B5DEC2
:10186000FE01E894A5912591359145915591AEF3EE
:10187000EF0176DFFE019701A801DA9479F7DF9096
:10188000EF90FF900F911F91CF91DF910895AA1BC8
:10189000BB1B51E107C0AA1FBB1FA617B70710F05B
:1018A000A61BB70B881F991F5A95A9F7809590958D
:1018B000BC01CD01089597FB072E16F4009406D0C5
:1018C00077FD08D0E4DF07FC05D03EF490958195C4
:1018D0009F4F0895709561957F4F0895C4DD332320
:1018E00012F48A1B9B0B01C0BEDDB7FF0895821B5B
:0818F000930B0895F894FFCF5B
:1018F80001010000000200050003000700020004C7
:1019080000060003000C000F0013000E0011001465
:1019180000100012000D0015000F00160000000452
:0E1928000007000C0007000400000003000090
:00000001FF
